:400000000040002011000000010A0000010A000010B500F017FDC04610B51222164B1A60302001F09FF9154A154B1A60154A164B1A60164B164A1A6080218900154A116015
:40004000154A1A6080221206144B1A608022D202134B1A604122134B1A60013A124B1A601249072001F0B4F8072001F09BF800220F4B1A6010BDC0463000104006000080E0
:4000800004010B4000DF0100040301400000014041FF00800003014040FF008008010B4000010B402C01014014010140B91400000C020B4010B572B600240FE03948620057
:4000C000131959000B00411889881A5AC31858880004104300F08EFC0134E4B2012CEDD9304801000C31683000F05AFCCC2292012D4B1A60F02212062C4B1A602C4A2D4B38
:400100001A602D4A2D4B1A6099231B042C4A1360D42189032B4A11602B4A13602B4A1360B022D2032A4B1A602A490B783C22934314221343DBB20B70274A117816230B430C
:40014000DBB213700C22254B1A60254A254B1A600523254A1360802224490A6024482549086025490A600321244A11602449254A1160C0214902244A11608021C900234A2F
:4001800011608C210902224A1160224A1360C7214900214A1160214A1360FFF73DFF00F019FC10BDB8230000000002400002024033EE000000030240FF0F0000000602404E
:4001C00000500F4008500F4020500F4030500F4038500F4001700F4000700F40000004409B0D0000080004400C00044000020440B66DDB0008020440180204400003044016
:40020000B60D000008030440080404400C0404400805044000060440080604401806044010B5064C2378002B07D1054B002B02D0044800E000BF0123237010BD50010020D7
:4002400000000000F4220000084B10B5002B03D00749084800E000BF07480368002B00D110BD064B002BFBD09847F9E70000000054010020F4220000C0000020000000001F
:4002800070B504000D0000F0B9FC2900200000F017FD044B1B68DB07FBD5024B1B68DB07FBD470BD2400274000B583B001AB187055225A7002211800FFF7E2FF00F084FC7A
:4002C00000F082FCC0B203B000BDC046F0B54F464646C0B483B00400002001F087F924236A461370DB33537002216846FFF7C8FF25236A4613704E4D2B5D5370022168469B
:40030000FFF7BEFF26236A461370537002216846FFF7B6FF30236A461370A00000192818037C99466B464A465A70437C98466B4642469A70877CDF70C67C1E71047D5C7116
:4003400006216846FFF79CFF2A236A4613706B464A465A7042469A70DF701E715C7106216846FFF78DFF2B236A461370314B1B689A00D318EB181A7C69464A705A7C8A7021
:400380009A7CCA70DA7C0A711B7D4B7106216846FFF776FF31236A4613701024547002216846FFF76DFF32236A461370547002216846FFF765FF21236A4613700D3C5470DB
:4003C00002216846FFF75CFF22236A461370547002216846FFF754FF20236A461370123B537002216846FFF74BFFE1236A46137001216846FFF744FFE2236A461370012154
:400400006846FFF73DFF27236A4613705833537002216846FFF734FF012001F0E7F8962000F0E0FF03B00CBC90469946F0BDC046F82200006C01002030B583B0002001F0EE
:40044000D5F824236A461370DB33537002216846FFF716FF25236A4613704A4C4A4D2B68E35C537002216846FFF70AFF26236A461370537002216846FFF702FF30236A4671
:4004800013702A6893009B18E3181A7C69464A705A7C8A709A7CCA70DA7C0A711B7D4B7106216846FFF7ECFE2A236A4613702B689A00D318E3181A7C69464A705A7C8A708B
:4004C0009A7CCA70DA7C0A711B7D4B7106216846FFF7D6FE2B236A461370973353709370D3701371537106216846FFF7C9FE31236A4613701024547002216846FFF7C0FEB6
:4005000032236A461370547002216846FFF7B8FE21236A4613700D3C547002216846FFF7AFFE22236A461370547002216846FFF7A7FE20236A461370113B537002216846FC
:40054000FFF79EFEE1236A46137001216846FFF797FEE2236A46137001216846FFF790FE27236A4613705833537002216846FFF787FE012001F03AF8962000F033FF03B0E5
:4005800030BDC046F82200006C01002070B586B0060001A8612303701121FFF771FE00F013FB002404E0351900F00EFB287001340F2CF8DD0023337401A827330370583314
:4005C00043700221FFF75CFE012006B070BDC04670B588B0040015000800FFF777FE002304E05A1CE35C69468B5413000F2BF8DD002400261BE0A0236A461370112168465B
:40060000FFF73EFE00F0EAFF0028FBD10730FFF74BFE830601D4013400E0012627236A4613704933537002216846FFF729FE002E01D1AC42DFDBFFF7FFFE300008B070BD51
:4006400030B587B001AC2000FFF7A0FF2578002363716B46981D01F037F9040064282AD8472D10D002D8422D15D027E0522D02D0592D18D022E0002001F038F8200000F0B4
:40068000D1FF00201CE0012001F030F8200000F0C9FF002014E0022001F028F8200000F0C1FF00200CE0032001F020F8200000F0B9FF002004E00120404201E002204042F9
:4006C00007B030BDF0B58BB00422AC49543109A801F02CF962B6012000F088FF642000F0AFFD00F0FDFC00F05FFA00F0EFFF642000F090FF002000F095FF002000F0F6FF83
:4007000000F028FA00F05CFF9D4C002363602360012000F099FC23689A4A112104A801F017F904A800F07EFC2DE0954B9B68002B29D0934B9B68012B09D1914A136801337B
:4007400013600D2B10D100228D4B1A600CE08C4B9B68013308D18A4A1368013B1360002B02DA0C22864B1A60854C0023A360012000F06AFC2368834A112104A801F0E8F8B3
:4007800004A800F04FFC7E4B5B68002BCDD00021012000F0B5FC7A4B1B687B4A112104A801F0D6F804A800F03DFCFA20800000F047FDFFF741FE00270022714B5A600120B9
:4007C00000F042FC0123714A112104A801F0C0F804A800F027FC01242AE000F0FFFE002801D1FFF72DFF664B9B68002B20D0644B9B68012B03D101340D2C0AD106E0604B13
:400800009B68013305D1013C03D501E0002400E00C2400225A4B9A60012000F015FC23005A4A112104A801F093F804A800F0FAFB534B5B68002BD0D00022514B5A60002127
:40084000012000F05DFC09ABD85D00F0F9FB26E000F0C4FE002801D1FFF7F2FE484B9B68002B1CD0464B9B68012B03D10137042F0AD106E0424B9B68013305D1013F03D58A
:4008800001E0002700E003270021012000F038FC09ABD85D00F0D4FB0022394B9A60384B5B68002BD4D00022354B5A6009ABDD5D0395322300932B00354A112104A801F020
:4008C00047F80021012000F01BFC04A800F0AAFB322630E000F082FE002801D1FFF7B0FE274B9B68002B26D0254B9B68012B03D1632E08DC013606E0214B9B68013302D1A8
:40090000002E00DD013E00221D4B9A600096039B1F4A112104A801F01BF80021012000F0EFFB1C4800F07EFB0021012000F0E8FB04A800F077FB124B5B68002BCAD0002158
:40094000012000F0DDFB144800F06CFB0422210004A8FFF73DFE002809D1013000F074FB0E4800F05FFBFA20800000F069FC012000F06AFB280000F063FB1DE7F82200008C
:400980006C010020502300005C2300006C230000782300008023000094230000A4230000F0B50025002711E0BB00C658F3B2FF22964308E06A008A181478A419527822707A
:4009C0000135013BDBB2002BF4D10137042FEBD9F0BDC0460323044A1360044A13600022034B1A607047C0463000304030003140000E3F4010B50A00002100F0A0FF10BDBD
:400A000010B500F067FF03680C2B00D1FEE7FEE710B50300094A1068C318094A9A1A802189008A4202DC054A136005E000F052FF0C2303600120404210BDC046C400002041
:400A40001802002070B50F4E0F4D13E029686B68AC68002202E001C901C30432A242FAD1E868002202E0002102C304328242FAD11035013E002EE9D100F032FFFFF722FEDA
:400A8000FEE7C04601000000BC25000010B50E4A136801218B43136000230AE0032B03D89A000A49505800E009489900094A885001332F2BF2D9FFF7FDFA034A116801239E
:400AC0000B43136010BDC0460000104000000000010A00000000002010B500F01DFE0400642000F07FFC00F017FE84420BD1012C03D10122054B1A6005E0022C03D1012285
:400B00005242024B1A6000F00FFE10BD74010020014B18647047C0460000002010B5040000F0F3FD044A1368C0218B43A4011C43146000F0EEFD10BD00E400E00122014BE2
:400B40001A60704700E100E00122014B1A60704780E100E010B5FFF7F7FF0448FFF7D8FF0320FFF7DBFFFFF7E9FF10BDD90A000010B50B2000F016FB10BDC04610B500F0DE
:400B8000ABF810BD10B500F0D1F810BD10B5054A1368802109060B431360FFF7E9FFFFF7EDFF10BD0000274010B5064B1B78002B04D1FFF7E7FF0122024B1A70FFF7E6FF2C
:400BC00010BDC04678010020094B1A68094B1B689A420BD0074B1B680133212B00D10023054AD05CC0B2034A136000E000207047BC0100200C020020E401002010B50B2078
:400C000000F0DAFA0B4B1A680B4B1A6000220B4B1A700B4B1A68802149020A431A601968084A0A401A60084A084B1A600B2000F0B9FA10BD0C020020BC010020B801002086
:400C400004032740FFFFFEFFED0F0000C00F2740144B1A68144B1B689A4208D1134B1B681F221340082B02D0114B186019E00D4B1A680132202A00D100220B4B1B689A421B
:400C8000FBD002230B490B60C0B20B49885405490A600A4A1268134203D1084A11680B4313607047C0010020080200200802274040022740800F2740C4010020880F2740F3
:400CC00070B506000D00002403E0305DFFF7C0FF0134AC42F9D370BD084A1368F02109010B431360064A1368F02109060B431360044B1A88044B1A607047C0460006024043
:400D00000002024080010020880F274005490A68054B1A408006C0231B051840104308607047C04620002740FFFFFFF310B51D4A1D4B1A601D4A1E4B1A601E4B1E4A1360FA
:400D400007211E4A11601E4A136000241D4B1C600B2000F031FA03210B2000F04BFA1A490B2000F035FA194B1C60194B1C60194B1C60194B1C600422184B1A60184B1C60B6
:400D80001A68184B1A800020FFF7C0FF164B1C60164B1C60164B1C70164B1C60164B1C6010BDC0460F000001000027400100008020002740070100800003274004032740CC
:400DC0000002274004022740FD0D0000880E2740C80E2740480F2740080F2740C80F2740880F274080010020BC0100200C020020B8010020C00100200802002010B5274B9A
:400E00001B68002B00D09847254B1B685B071DD5244B1B680133212B00D10023224A1268934205D1214B1B682022214B1A7006E01E4A1268D2B21F49CA541A4A13601E4BDE
:400E40001B68DB06E4D104221C4B1A601C4B1B689B0721D51B4B1A681B4B1B689A4213D0194B1B680133202B00D10023174AD25CD2B217490A60144A1360164B1B681F2213
:400E80001340082BE6D104E0134A136802218B4313600222114B1A6010BDC0467C010020CC0F2740BC0100200C02002040032740B8010020E401002008032740C00F2740EE
:400EC0008C0F2740C001002008020020C40100204002274008022740880F2740800F274010B50B4C226860239A4322602268513B9A432260226810230343D8B21043206095
:400F0000012000F06FFA236810229343236010BD0002044070B505000E4C22682023134323602368402293432360002000F05AFA23680F2293432360226810232B43D8B270
:400F400010432060012000F04DFA236810229343236070BD00020440F8B5274A13687F218B43136025490B681B0B1B03244803430B60136820218B431360116840230B43DA
:400F80001360CA277F00002000F02CFA1A4C2368102633432360012000F024FA194B1D682368B3432360002000F01CFA08231D40236833432360012000F014FA2368B3430A
:400FC0002360002D02D10A2000F00CFA013F002D01D0002FD7D1084B1A6840218A431A601A683F318A431A60044A13681B0B1B0305490B431360F8BD00020440080204401E
:401000004902000004020440B60D000010B50400FFF7A2FF2009FFF77DFF0F202040FFF779FF10BD70B505000078012404E0FFF7EDFF285D0134E4B20028F8D170BDC04692
:4010400010B5FFF7E3FF10BD10B50400FFF784FF2009FFF745FF0F202040FFF741FF10BD10B5282000F0ECF80320FFF739FF052000F0E6F80320FFF733FF0F2000F0E0F868
:401080000320FFF72DFF012000F0DAF80220FFF727FF052000F0D4F80620FFF7D5FF0E20FFF7D2FF2C20FFF7CFFF0820FFF7CCFF0120FFF7C9FF0C20FFF7C6FF0320FFF72C
:4010C000C3FF052000F0BCF810BDC04610B50C20FFF7BAFF0122014B1A7010BD8201002010B5064B5B78002B04D1FFF7B9FF0122024B5A70FFF7EAFF10BDC0468201002063
:4011000010B501280BD0002804D002280CD003280FD012E08039C8B2FFF796FF0DE04039C8B2FFF791FF08E06C39C8B2FFF78CFF03E02C39C8B2FFF787FF10BD00230AE024
:401140000D4A12683F210A400C49C95C8A4201D1033303E001332D2BF2D9032308490868084A02400A60084A944663441B78DBB2064A13607047C0462CFF0B403424000046
:4011800000002240FFFFFFBFCDF1FF0F28FF0B40034B18688023DB05184000D001207047000022401F2318401E3B8340014A13607047C04600E100E01F2318401E3B834078
:4011C000014A13607047C04680E100E001BE704770B504000D001F2802D90020FFF7F6FF1034A40080239B059C4664442068256070BDC04670B504000E00032902D9002007
:40120000FFF7E4FF1F2C02D90020FFF7DFFF03252540ED00063500F078FAA408A400074B9C46644421680323AB4099430B003100A9401943216000F06CFA70BD00E400E0B9
:4012400010B5040006E0084B586800F055FA074B9C46644480231B029C42F4D8024B9868604300F049FA10BDC80000200080FFFF70B582B000F0CAF800285DD000F045FA44
:40128000050000230AE02D4A12683F210A402C49C95C8A4201D1033303E001332D2BF2D903230021274A1160274A1268D20606D1254802681F318A4313390A430260234CB8
:4012C0002168234A1140234A5A438023DB019C466244D20B013A5205520D0B001343A0225203134323601C4B1B680193302000F023FA1A4A13688021C9050B4313602668FF
:40130000174B1E40002407E00120FFF799FF1034A30533430D4A1360EE2CF5D90120FFF78FFFFF239B051E43084B1E60019A0A4B1A60280000F0EDF902B070BD2CFF0B40C9
:401340003424000028FF0B4034FF0B400800224000F800C040420F003000104000002240FFFF3FC030B587B0040000F0CEF90500FFF70EFF002803D0FFF7E0FE012100E0E3
:401380000021104B1B6800930F4B1B680193033C0E4B1B5D02930E4B1B68039304AA0D4B04936B4605930C4B1A600C480C4A10601B68012901D1FFF75BFF280000F0A9F9B9
:4013C00007B030BD08010B4000010B403424000030001040B6EA000008001040170000800400104010B5034B1B7B584300F084F910BDC046C8000020034B1868C0231B02B4
:40140000184000D00120704700010B40034B1B68002B01DA012000E0002070470000224010B500F072F9044A1368C02109020B43136000F06EF910BD00010B4010B500F094
:4014400064F908490A68084B1A408024E40122430A600A6813408022120213430B6000F058F910BD00010B40FF3FFFFF70B5050000F04BF90400FFF7BFFF002803D0FFF76E
:40148000DDFF012100E0002108482840084A1568084B2B40184310601368012901D1FFF7BFFF200000F035F970BDC0460404040010020B40FBFBFBFF10B5244B1B685B070F
:4014C00015D5234B5B685B070ED5224B596A042001401F4C62688A4362605A6A82435A629B69002B00D098470420FFF7BFFF174B1B685B0518D5164B5B685B0510D5154B3D
:40150000596A8022D2001140114842688A434260596A114A0A405A62DB69002B00D098478020C000FFF7A2FF084B1B685B030CD5074B5B685B0304D5064B1B6A002B00D046
:4015400098478020C002FFF791FF10BD10020B40DC00002084010020FFFBFFFF10B56420FFF740FF00F012F9002802D00122024B1A6000F013F910BD70010020014B186561
:401580007047C0460000002010B5040000F0BDF8044A1368C0218B43A4011C43146000F0B8F810BD04E400E01022014B1A60704700E100E01022014B1A60704780E100E05B
:4015C00010B5FFF7F7FF0448FFF7D8FF0320FFF7DBFFFFF7E9FF10BD5D150000024B186840090123184070470405044004490A68D2B208239A43C0001840104308607047A6
:40160000000504400004000C014B18607047C046080120400004000C014B18607047C046140120400004000C014B18607047C0460C01204070B504000D0000F066F8AC40F3
:40164000024B1C6000F065F870BDC0460800204010B500F05AF8064A116801230B43136000F057F818210120FFF7E4FF10BDC04600002040014B18607047C0463801204045
:4016800010B50E4C8023DB042360236823600020FFF7B8FF236823600C22094B1A600120FFF7E8FF3122074B1A60074C2000FFF7B1FF2000FFF7B6FF10BDC04600012040EC
:4016C0002401204028012040FFFF000010B5064B1B78002B04D1FFF7D3FF0122024B1A70FFF7B6FF10BDC046AC010020014B18707047C04672000F400230800803D0013810
:40170000FDD1C046C046C0467047EFF3108072B6704780F310887047024B1B68032018407047C04604000440024A106803231840106070471000044070B50400FFF7E5FFEF
:401740000500102C05D8104A136803218B43136016E0202C07D80C490B6803229343023A13430B600CE0302C07D807490B6803229343013A13430B6002E00020FFF726FD34
:401780002800FFF7C6FF70BD30001040024B1868400901231840704704040440034A10682023184010604009C0B2704710040440002243088B4274D303098B425FD3030AD1
:4017C0008B4244D3030B8B4228D3030C8B420DD3FF22090212BA030C8B4202D31212090265D0030B8B4219D300E0090AC30B8B4201D3CB03C01A5241830B8B4201D38B0345
:40180000C01A5241430B8B4201D34B03C01A5241030B8B4201D30B03C01A5241C30A8B4201D3CB02C01A5241830A8B4201D38B02C01A5241430A8B4201D34B02C01A5241EF
:40184000030A8B4201D30B02C01A5241CDD2C3098B4201D3CB01C01A524183098B4201D38B01C01A524143098B4201D34B01C01A524103098B4201D30B01C01A5241C3083E
:401880008B4201D3CB00C01A524183088B4201D38B00C01A524143088B4201D34B00C01A5241411A00D20146524110467047FFE701B5002000F006F802BDC0460029F7D014
:4018C00076E770477047C04610B50A22002100F003F910BD014B18687047C046440100200E4B70B500251E000D4CE41AA410A54204D0AB00F35898470135F8E700F04CFEB3
:40190000084B00251E00084CE41AA410A54204D0AB00F35898470135F8E770BDA4250000A4250000A4250000AC250000002310B59A4203D0CC5CC4540133F9E710BD030052
:401940008218934202D019700133FAE7704700000CB430B5164B9DB00C1E1D6804DA8B2301202B6040421DE0822302A99B008B810023029008619C4200D0631E8B604B613D
:4019800001235B42CB81209A21AB2800019300F011F9431C01DA8B232B60002C02D00023029A13701DB030BC08BC02B01847C04644010020F0B51E00454B87B01B68019292
:4019C000029308220B00059003911C7802995D1C09194878104001D02B00F6E72D2C04D19D1C5C780123009304E000902B2C01D15C789D1C002E02D0102E0AD162E0302CEE
:401A00005ED120222B789343582B54D110266C780235009F31007B1E9F412E4BFF183800FFF74CFF380004913100FFF7C1FE00230322070094461800029A121951780422C7
:401A4000114201D0303C07E06246114017D03722012900D02032A41AA64210DD5A1C0BD0B84207D802D1049B9C4203DC70430123201801E001235B422C780135DCE75A1CBA
:401A80000BD10098059A431E9841124BC01822231360019B002B0AD117E0009A002A00D04042019A002A10D0039A002B00D06A1E019B1A6009E03024002EAAD10826A8E7BF
:401AC0000A26A6E7302C9CD0A3E707B0F0BDC04648010020FFFFFF7F10B513000A00010002480068FFF766FF10BDC04644010020F0B58E6885B007000C00039201939E4274
:401B000043D890238A89DB001A423ED003250969236801985B1A029363695D43EB0F5D19029B6D1001331B18AB4200D91D00530510D52900380000F037FB061E14D0029A13
:401B40002169FFF7F3FEA289194B134080221343A38112E02A00380000F086FB061E0CD12169380000F0D4FA0C23402201203B60A38940421343A38117E0029B2661F61812
:401B800026606561019EED1AA560019BB34200D21E0032000399206800F0A5FA0020A3689B1BA36023689E19266005B0F0BDC0467FFBFFFFF0B59FB0029005938B890F00FB
:401BC00016001B0610D50B69002B0DD1402100F0EBFA38603861002804D10C23029A01381360D8E040237B61002306AD6B6120336B761033AB7634002378002B03D1A31BB4
:401C0000049312D003E0252BF9D00134F4E7A31B320039000298FFF76BFF431C00D1B4E06A69049B944663446B612378002B00D1ABE00122002352426A6002A95432521818
:401C400001342B60EB60AB601370AB65534E21780522300000F03CFA002807D00123801B83402A68013413432B60EFE72B68DA0604D55322202102A8121811701A0704D5B4
:401C800053222B2102A81218117022782A2A03D0099B00200A210EE0059A111D12680591002A01DB099204E05242EA60022213432B6001340BE02278303A092A04D84B436A
:401CC00001349B180120F6E7002800D0099323782E2B1ED163782A2B0AD1059B02341A1D1B680592002B01DA01235B42079310E000230A201A0001346B6021783039092969
:401D000004D84243013452180123F6E7002B00D00792234E21780322300000F0D9F9002806D04023801B83402A68013413432B60217806221B48661C297600F0C9F9002867
:401D400012D0194B002B06D10722059B073393430833059314E005AB00933A00134B2900029800E000BF07E005AB00933A000F4B2900029800F08AF80390039B013304D012
:401D80006B69039A9B186B6135E7BB890B985B0601D5012040421FB0F0BDC046652500006B2500006F25000000000000F11A0000F7B5170001938A680B6900900C009342ED
:401DC00000DA130022003B6043321278002A01D001333B6023689B0602D53B6802333B60062523681D401ED0230043331B785A1E9341226892061CD53020E1184331087039
:401E000021005A1C45310978A2184332023311700FE022000123193201990098089EB047431C0ED00135E3683A689B1A9D42F0DBDAE72200019943320098089DA847431CA4
:401E400002D10120404220E006232068E1683A6803400025042B03D18D1AEB43DB171D40A3682269934201DD9B1AED180027BD420AD0220001231A3201990098089EB0475D
:401E8000431CDED00137F2E70020FEBDF0B58BB006920A0043320793059004920A7E0C00109B6E2A00D1ABE011D8632A22D009D8002A00D1B5E0582A00D0C5E045310A707A
:401EC000814A4FE0642A1DD0692A1BD0BCE0732A00D1AAE009D86F2A29D0702A00D0B3E0202209680A43226037E0752A1FD0782A33D0A9E00E001A684236111D196013686C
:401F00003370A4E021681A68080606D4490604D5111D19600023D55E02E0111D19601568002D3BDA2D23049A6D42137036E021681A68080606D4490604D51568111D1960A5
:401F4000ADB202E0111D196015685F4B227E039308276F2A1DD00A271BE022007821453211705A4A19680392081D226818600D68100602D4500600D5ADB2D30702D52023C8
:401F80001A4322601027002D03D1202322689A4322602300002243331A7002E00A274A4B03936368A360002B09DB0422216891432160002D05D1049E002B11D07BE0002D41
:401FC00079D0049E28003900FFF778FC039B013E5B5C280033703900FFF7EAFB051EF1D1082F09D12368DB0706D563682269934202DC3023013E3370049B9B1B23612BE058
:4020000009681A68080607D4490605D5111D19601368A28A1A8004E0111D1960136862691A600023049E236116E01A68111D1960166800216268300000F04AF8002801D03C
:40204000801B6060636803E0260042363270012323610023049A1370079B09AA00932100069B0598FFF7A4FE431C02D10120404227E02369320006990598079DA847431C84
:40208000F4D0236800259B070FD4099BE068984217DA180015E022000123193206990598079EB047431CE1D00135E368099A9B1A9D42F0DBE9E72600039B42361B78337025
:4020C0008EE70BB0F0BDC0467625000087250000C9B28218904204D003788B4202D00130F8E70020704710B5884202D98B18984201D3002305E09B1A013A08D3995C8154A2
:40210000FAE7934203D0CC5CC4540133F9E710BD70B50500002944D00C1F2368002B00DAE418280000F0D8F81E4A13681100002B02D16360146031E0A3420DD92268A018A8
:40214000834203D118685B688218226063600C6024E0A24203D813005A68002AF9D11E689819A0420BD12168711858181960824214D110685268411819605A600EE0A04285
:4021800002D90C232B6009E021686018824203D1106852684118216062605C60280000F09CF870BDB4010020032370B5CD1C9D43083506000C2D01D20C2501E0002D01DB52
:4021C000A94202D90C23336048E0300000F084F8234B1C681A002100002913D00B685B1B0DD40B2B02D90B60CC181EE08C4202D1636813601AE04B6863600C0016E00C00D5
:402200004968E9E7174C2368002B03D1300000F051F820602900300000F04CF8431C18D00323C41C9C43A0420DD12560300000F054F8200007220B30231D9043C31A0ED08B
:402240005A42E2500BE0211A300000F033F8431CEBD10C233000336000F03FF8002070BDB4010020B0010020F8B506000C001500002904D11100FFF797FF040018E0002A63
:4022800003D1FFF745FF2C0012E000F027F885420ED929003000FFF787FF071E07D021002A00FFF743FB21003000FFF731FF3C002000F8BD002370B5064C05000800236033
:4022C000FEF7A6FB431C03D12368002B00D02B6070BDC04610020020704770470B1F1A68101F002A04DA891804390B68D018043870470000000000001018202830384048C2
:402300005058606870000000111111111122222222223333333333444444444455555555556666666666777777777788888888889999999999AAAAAAAAAABBBBBBBBBBCC07
:40234000CCCCCCCCDDDDDDDDDD00000052474259456D756C6174653A20256400456D756C6174696E673A2025640000005461726765743A20256400002563202564000000F4
:4023800020202020202020202020202020202020000000005472616E736D697474696E672E2E2E004661696C656420546F2053656E6421212100000000300F400004004097
:4023C0000F4000041A0F28032A0C2C062E0930023201340436083E5558045B045F010E0815501D021E111F206D5085028B208E149601AE01C240C4C0E002E280512056029C
:40240000D420D6208A029E02AD20EA10190852105B2086108D088F20C608D405E202E4080D320F400F330F4004400F4004410F400A430F40030405060708090A0B0C0E0F26
:40244000101112131415161718191B1C1D1E1F2021222325262728292A2B2E2F30313233343543000020202020202020202028282828282020202020202020202020202009
:4024800020202020208810101010101010101010101010101004040404040404040404101010101010104141414141410101010101010101010101010101010101010101D2
:4024C0001010101010104242424242420202020202020202020202020202020202020202101010102000000000000000000000000000000000000000000000000000000068
:40250000000000000000000000000000000000000000000000000000000000000000000000000000000000000000000000000000000000000000000000000000000000009B
:4025400000000000000000000000000000000000000000000000000000000000000000000000000000232D302B2000686C4C0065666745464700303132333435363738395F
:40258000414243444546003031323334353637383961626364656600F8B5C046F8BC08BC9E467047490200008D0A0000F8B5C046F8BC08BC9E46704721020000D02500009E
:4025C000C000002090000000C8000000000000000000000018020020010000000000C05D80BB000030000000006CDC02F0000000040404000000000000000000000000009A
:402600000000000000000000000000000000000000000000622400000000000000000000000000000000000000000000000000000000000000000000000000000000000014
:402640000000000000000000000000000000000000000000E400002064240000000000000000000000000000000000000000000000000000000000000000000000000000CE
:40268000000000000000000000000000000000000000000000000000000000000000000000000000000000000000000000000000000000000000000000000000000000001A
:4026C00000000000000000000000000000000000000000000000000000000000000000000000000000000000000000000000000000000000000000000000000000000000DA
:402700000000000000000000000000000000000000000000000000000000000000000000000000000000000000000000000000000000000000000000000000000000000099
:402740000000000000000000000000000000000000000000000000000000000000000000000000000000000000000000000000000000000000000000000000000000000059
:020000040001F9
:0200000490303A
:02000000412F8E
:0200000490402A
:4000000000000000000000000000000000000000000000000000000000000000000000000000000000000000000000000000000000000000000000000000000000000000C0
:400040000000000000000000000000000000000000000000000000000000000000000000000000000000000000000000000000000000000000000000000000000000000080
:0200000490501A
:0C0000000002112D11A10001113952D095
:0200000490600A
:0100000001FE
:00000001FF