:400000000040002011000000A5030000A503000010B500F0CFF9C04610B512220C4B1A60302000F021FC0B4A0B4B1A60063A0B4B1A608022D2020A4B1A600A49072000F071
:4000400071FB072000F062FB0022074B1A6010BD300010400600008004010B4008010B4000010B40BD0900000C020B4010B572B600240FE01A486200131959000B00411823
:4000800089881A5AC31858880004104300F084F90134E4B2012CEDD9EE221202114B1A6099231B04104A1360104A1360104A1360104A117806230B43DBB213700E4A0F4B26
:4000C0001A600F4A0F4B1A600F4A104B1A60C32252020F4B1A60FFF79FFF00F04DF910BD400B00000003024010500F4020500F4030500F4000700F40F606000008010440B2
:40010000B66D1B0008020440B60D0000080304400805044010B5064C2378002B07D1054B002B02D0044800E000BF0123237010BD48010020000000003C0B0000084B10B597
:40014000002B03D00749084800E000BF07480368002B00D110BD064B002BFBD09847F9E7000000004C0100203C0B0000C00000200000000070B505000C00102903D10120C1
:4001800000F054FA0024280000F044FA601C70BD70B562B600F096FA012000F047FA0024002529E0012D10D002DC002D05D023E0022D12D0032D18D01EE0002000F068F9F4
:4001C000012000F041F9013516E0002000F03CF9012000F045F901350EE0002000F040F9012000F049F9013506E0002000F044F9012000F04DF9002500F056F900280BD10C
:4002000000F05AF9002807D100F05EF9002803D100F062F90028C5D00A2000F095FA00F043F9012822D1012D08D002DC002D17D090E0022D08D0032D0CD08BE021003120E7
:40024000FFF798FF040085E021003420FFF792FF04007FE021003720FFF78CFF040079E021002A20FFF786FF040073E000F024F9012822D1012D08D002DC002D17D069E02C
:40028000022D08D0032D0CD064E021003220FFF771FF04005EE021003520FFF76BFF040058E021003820FFF765FF040052E021003020FFF75FFF04004CE000F005F90128A5
:4002C00022D1012D08D002DC002D17D042E0022D08D0032D0CD03DE021003320FFF74AFF040037E021003620FFF744FF040031E021003920FFF73EFF04002BE0210023200E
:40030000FFF738FF040025E000F0E6F8012821D1012D08D002DC002D17D01BE0022D08D0032D0CD016E021004120FFF723FF040010E021004220FFF71DFF04000AE0210070
:400340004320FFF717FF040004E021004420FFF711FF040000F0A8F80128FBD000F0ACF80128F7D000F0B0F80128F3D000F0B4F80128EFD040E7C0460323044A1360044A25
:4003800013600022034B1A607047C0463000304030003140000E3F4010B50A00002100F0C5FB10BD10B500F095FB03680C2B00D1FEE7FEE770B50F4E0F4D13E029686B6831
:4003C000AC68002202E001C901C30432A242FAD1E868002202E0002102C304328242FAD11035013E002EE9D100F07AFBFFF7D0FEFEE7C04601000000BC0B000010B50E4A0E
:40040000136801218B43136000230AE0032B03D89A000A49505800E009489900094A885001332F2BF2D9FFF721FE034A116801230B43136010BDC046000010400000000002
:40044000A503000000000020044A1368DBB201218B430840184310607047C0460003044004490A68D2B202239A434000184010430860704700030440044A1368DBB2012149
:400480008B430840184310607047C0460001044004490A68D2B202239A434000184010430860704700010440024B1868800801231840704704010440024B1868C00801233B
:4004C0001840704704010440024B1868C00801231840704704050440024B186840090123184070470405044010B50B4C226860239A4322602268513B9A432260226810233F
:400500000343D8B210432060012000F0EDF9236810229343236010BD0002044070B505000E4C22682023134323602368402293432360002000F0D8F923680F229343236092
:40054000226810232B43D8B210432060012000F0CBF9236810229343236070BD00020440F8B5274A13687F218B43136025490B681B0B1B03244803430B60136820218B434F
:400580001360116840230B431360CA277F00002000F0AAF91A4C2368102633432360012000F0A2F9194B1D682368B3432360002000F09AF908231D4023683343236001207F
:4005C00000F092F92368B3432360002D02D10A2000F08AF9013F002D01D0002FD7D1084B1A6840218A431A601A683F318A431A60044A13681B0B1B0305490B431360F8BD43
:4006000000020440080204404902000004020440B60D000010B50400FFF7A2FF2009FFF77DFF0F202040FFF779FF10BD10B50400FFF796FF2009FFF757FF0F202040FFF7BB
:4006400053FF10BD10B5282000F07EF80320FFF74BFF052000F078F80320FFF745FF0F2000F072F80320FFF73FFF012000F06CF80220FFF739FF052000F066F80620FFF76F
:40068000D5FF0E20FFF7D2FF2C20FFF7CFFF0820FFF7CCFF0120FFF7C9FF0C20FFF7C6FF0320FFF7C3FF052000F04EF810BDC04610B50C20FFF7BAFF0122014B1A7010BD43
:4006C0006401002010B5064B5B78002B04D1FFF7B9FF0122024B5A70FFF7EAFF10BDC04664010020024A1168024B0B401360704700002240FFFFFFBF034B18688023DB0577
:40070000184000D001207047000022401F2318401E3B8340014A13607047C04600E100E001BE704770B504000D001F2802D90020FFF7F6FF1034A40080239B059C466444D7
:400740002068256070BDC04610B5040006E0084B586800F085F9074B9C46644480231B029C42F4D8024B9868604300F079F910BDC40000200080FFFF30B583B000F0C8F87A
:4007800000285AD000F075F9040000230AE02C4A12683F210A402B49C95C8A4201D1033303E001332D2BF2D90323274A1268D20606D1254802681F218A4313390A43026098
:4007C000224A1168224A0A40224959438020C00184466144C90B01394905490D0A43A021490311430800192B02D81B4B1A430EE01A4A9A1812781A3B1249C9183023CB5CA5
:40080000D318FF2B00D9FF239B0502001A430F4B1A60134D2B680193302000F031F9114A13688021C9050B4313601420FFF78CFF019B2B60200000F020F903B030BDC04633
:400840002CFF0B404C0B000034FF0B400800224000F800C040420F000000D43FCDF1FF0F300010400000224030B587B0040000F000F90500FFF740FF002803D0FFF732FF54
:40088000012100E00021104B1B6800930F4B1B680193033C0E4B1B5D02930E4B1B68039304AA0D4B04936B4605930C4B1A600C480C4A10601B68012901D1FFF75DFF280052
:4008C00000F0DBF807B030BD08010B4000010B404C0B000030001040B6EA000008001040170000800400104010B5034B1B7B584300F0B6F810BDC046C4000020034B1868D0
:40090000C0231B02184000D00120704700010B40034B1B68002B01DA012000E0002070470000224010B500F0A4F8044A1368C02109020B43136000F0A0F810BD00010B40F2
:4009400010B500F096F808490A68084B1A408024E40122430A600A6813408022120213430B6000F08AF810BD00010B40FF3FFFFF70B5050000F07DF80400FFF7BFFF0028FA
:4009800003D0FFF7DDFF012100E0002108482840084A1568084B2B40184310601368012901D1FFF7BFFF200000F067F870BDC0460404040010020B40FBFBFBFF10B5244B05
:4009C0001B685B0715D5234B5B685B070ED5224B596A042001401F4C62688A4362605A6A82435A629B69002B00D098470420FFF7BFFF174B1B685B0518D5164B5B685B05A8
:400A000010D5154B596A8022D2001140114842688A434260596A114A0A405A62DB69002B00D098478020C000FFF7A2FF084B1B685B030CD5074B5B685B0304D5064B1B6A07
:400A4000002B00D098478020C002FFF791FF10BD10020B40D800002068010020FFFBFFFF0230800803D00138FDD1C046C046C0467047EFF3108072B6704780F310887047A1
:400A800070B50400FFF7F5FF0500102C05D8104A136803218B43136016E0202C07D80C490B6803229343023A13430B600CE0302C07D807490B6803229343013A13430B6009
:400AC00002E00020FFF72CFE2800FFF7D6FF70BD30001040014B18687047C046400100200E4B70B500251E000D4CE41AA410A54204D0AB00F35898470135F8E700F04CF8A5
:400B0000084B00251E00084CE41AA410A54204D0AB00F35898470135F8E770BDA40B0000A40B0000A40B0000AC0B000003008218934202D019700133FAE7704700000000EA
:400B400000300F40000400400F400004030405060708090A0B0C0E0F101112131415161718191B1C1D1E1F2021222325262728292A2B2E2F3031323334350000EEDBC9B924
:400B8000AA9B8E82766B60564D443B332C241D17100A044300000000F8B5C046F8BC08BC9E4670473D010000FD030000F8B5C046F8BC08BC9E46704715010000D00B0000AA
:400BC000C000002088000000480000000000000000000000010000000000C05D80BB000030000000006CDC02F0000000040404000000000000000000000000000000000076
:400C000000000000000000000000000000000000930B0000000000000000000000000000000000000000000000000000000000000000000000000000000000000000000016
:400C400000000000000000000000000000000000E0000020000000000000000000000000000000000000000000000000000000000000000000000000000000000000000074
:400C80000000000000000000000000000000000000000000000000000000000000000000000000000000000000000000000000000000000000000000000000000000000034
:400CC00000000000000000000000000000000000000000000000000000000000000000000000000000000000000000000000000000000000000000000000000000000000F4
:400D000000000000000000000000000000000000000000000000000000000000000000000000000000000000000000000000000000000000000000000000000000000000B3
:400D40000000000000000000000000000000000000000000000000000000000000000000000000000000000000000000000000000000000000000000000000000000000073
:020000040001F9
:0200000490303A
:02000000DF9887
:0200000490402A
:4000000000000000000000000000000000000000000000000000000000000000000000000000000000000000000000000000000000000000000000000000000000000000C0
:400040000000000000000000000000000000000000000000000000000000000000000000000000000000000000000000000000000000000000000000000000000000000080
:0200000490501A
:0C0000000002112D11A100011130F13996
:0200000490600A
:0100000001FE
:00000001FF