:400000000040002011000000150300001503000010B500F09FF9C04610B51222164B1A60302000F0B5FC154A154B1A60F0221201144B1A60144B154A1A608821C901144AC7
:400040001160144A1A6082221206134B1A608022D202124B1A604022114B1A600132114B1A601149072000F0C9FB072000F0BAFB00220E4B1A6010BD30001040060000804C
:4000800004010B40000301400000014040FF00800403014041FF008008010B4000010B402801014014010140E50A00000C020B4010B572B600240FE02D48620013195900A0
:4000C0000B00411889881A5AC31858880004104300F0ECF80134E4B2012CEDD9244801000C312C3000F0C8F8C022D200214B1A60EE221202204B1A609922204B1A609923BE
:400100001B041F4A1360802149031E4A11601E4A13601E4A13601E4A13601E490B783C22934314221343DBB20B701B4A117816230B43DBB213700423184A1360184A136065
:400140007C33184A1360184A1360184A1360D8221201174B1A600223164A13603121164A1160164A1360FFF757FF00F0B5F810BD20160000000002400003024000070240BE
:4001800000500F4008500F4010500F4020500F4030500F4001700F4000700F400000044018000440180104400002044018020440080304400007044008070440180704404C
:4001C00010B5064C2378002B07D1054B002B02D0044800E000BF0123237010BD480100200000000014160000084B10B5002B03D00749084800E000BF07480368002B00D1F0
:4002000010BD064B002BFBD09847F9E7000000004C01002014160000C00000200000000030B58BB062B600F06BF900F0F1F900F023FA00F075F9002419E0200000F0F8F985
:400240000A2000F013FB022000F074F9002000F085F902AD00902300064A2021280000F0A5FD0023EB77280000F07CFA0134FE2CE3DDFEE718160000F0B50025002711E075
:40028000BB00C658F3B2FF22964308E06A008A181478A419527822700135013BDBB2002BF4D10137062FEBD9F0BDC04610B50A00002100F072FD10BD064B1B68002803D06F
:4002C00080221206134301E05B005B08014A13607047C04680033A4010B50323084A1360084A136080221206074B1A608022074B1A600022064B1A600120FFF7DDFF10BDC1
:40030000300030403000314000003A4000033A40000E3F4010B500F00BFD03680C2B00D1FEE7FEE710B50300084A1068C318084A9A1A802A02DC054A136005E000F0F8FC78
:400340000C2303600120404210BDC046C4000020B001002070B50F4E0F4D13E029686B68AC68002202E001C901C30432A242FAD1E868002202E0002102C304328242FAD101
:400380001035013E002EE9D100F0D8FCFFF748FFFEE7C04601000000F016000010B50E4A136801218B43136000230AE0032B03D89A000A49505800E009489900094A885043
:4003C00001332F2BF2D9FFF773FE034A116801230B43136010BDC0460000104000000000150300000000002010B50321102000F017FA2049102000F001FA01221E4B1A6093
:400400001E4B1B68002B01DA1D4900E01D491E4A13680B4313601D4A1D4B1A601D4A1E4B1A6000231D4A13601D4A1E490A601E490A601E4A13601E4A136001221D4B1A6026
:400440001D4A11681D4B0B40802189050B43136000230BE09A001A495018002101605C00184821521848194950500133002BF1D010BDC0468905000020003A4080033A405B
:40048000C00E1051C00E005100003A408800008004003A400000FF0718003A401C003A400400040010003A4014003A4028023A4038023A4018023A4030003A40FEFFFFDF2F
:4004C00080003A40A4010020204E0000A001002010B5094B1B68002B0CDB084B1B68002BFBDB054A1368802109060B4313600A2000F08EFA10BDC04600003A4008023A40DB
:4005000010B5064B1B78002B04D1FFF76DFF0122024B1A70FFF7DCFF10BDC04664010020034A1368802149020B4313607047C04604003A40020083070CD0074B1B6801207F
:40054000184001D19307F8D4002804D00122024B1A6000E00020704710023A4010B5041E02D0002000F048F9002C07D1A400054B9C46644420680004000C00E0002000B2EC
:4005800010BDC04680013A40014B1A681A60704710023A4010B500F000FB0D4C23680F22934319000B4B1B7813400B4323600A4A13681360094B1C6809492140196014685F
:4005C0007821214311601A681A6000F0EAFA10BD00FF284060F1FF0F0800284004002840FFFFFEFF10B500F0D8FA074A1368C02189000B431360054A1368802109060B430D
:40060000136000F0CEFA10BD080028400400284010B5064B1B68002B04D1FFF7BBFF0122024B1A60FFF7DEFF10BDC0466801002010B5040000F0B1FA044A1368FF218B4369
:400640001C43146000F0ADFA10BDC0460800284010B500F075F810BD10B500F01DF810BD10B5044A1368802109060B431360FFF7EFFF10BD0000274010B5064B1B78002B5C
:4006800004D1FFF7E9FF0122024B1A70FFF7E8FF10BDC0466C010020154A164B1A600023154A13601549164A1160164A16490A6007201649086016490B600638154908600D
:4006C00015490A60154A13600421154A1160154A1360154A1360154A1360154A1360154A1360154A13601268144B1A807047C0460B000002000027404000274001000A0029
:40070000480027400700008000032740040327401003274044002740000227400402274050002740880E2740C80E2740480F2740080F2740C80F2740880F27406E010020B8
:4007400005490B68F0229343603A13430B60034B1A88034B1A607047000702406E010020880F274070B50500002402E000F01CFA0134285D0028F9D170BDC04600230AE00E
:400780000D4A12683F210A400C49C95C8A4201D1033303E001332D2BF2D9032308490868084A02400A60084A944663441B78DBB2064A13607047C0462CFF0B4068160000EA
:4007C00000002240FFFFFFBFCDF1FF0F28FF0B40034B18688023DB05184000D001207047000022401F2318401E3B8340014A13607047C04600E100E001BE704770B5040059
:400800000D001F2802D90020FFF7F6FF1034A40080239B059C4664442068256070BDC04670B504000E00032902D90020FFF7E4FF1F2C02D90020FFF7DFFF03252540ED00BE
:40084000063500F0AAF9A408A400074B9C46644421680323AB4099430B003100A9401943216000F09EF970BD00E400E010B5040006E0084B586800F087F9074B9C46644480
:4008800080231B029C42F4D8024B9868604300F07BF910BDC80000200080FFFF70B582B000F0CAF800285DD000F077F9050000230AE02D4A12683F210A402C49C95C8A4276
:4008C00001D1033303E001332D2BF2D903230021274A1160274A1268D20606D1254802681F318A4313390A430260234C2168234A1140234A5A438023DB019C466244D20B60
:40090000013A5205520D0B001343A0225203134323601C4B1B680193302000F053F91A4A13688021C9050B4313602668174B1E40002407E00120FFF799FF1034A3053343F2
:400940000D4A1360EE2CF5D90120FFF78FFFFF239B051E43084B1E60019A0A4B1A60280000F01FF902B070BD2CFF0B406816000028FF0B4034FF0B400800224000F800C0AD
:4009800040420F003000104000002240FFFF3FC030B587B0040000F000F90500FFF718FF002803D0FFF7EAFE012100E00021104B1B6800930F4B1B680193033C0E4B1B5DBE
:4009C00002930E4B1B68039304AA0D4B04936B4605930C4B1A600C480C4A10601B68012901D1FFF75BFF280000F0DBF807B030BD08010B4000010B40681600003000104023
:400A0000B6EA000008001040170000800400104010B5034B1B7B584300F0B6F810BDC046C8000020034B1868C0231B02184000D00120704700010B40034B1B68002B01DA45
:400A4000012000E0002070470000224010B500F0A4F8044A1368C02109020B43136000F0A0F810BD00010B4010B500F096F808490A68084B1A408024E40122430A600A6857
:400A800013408022120213430B6000F08AF810BD00010B40FF3FFFFF70B5050000F07DF80400FFF7BFFF002803D0FFF7DDFF012100E0002108482840084A1568084B2B4029
:400AC000184310601368012901D1FFF7BFFF200000F067F870BDC0460404040010020B40FBFBFBFF10B5244B1B685B0715D5234B5B685B070ED5224B596A042001401F4C8C
:400B000062688A4362605A6A82435A629B69002B00D098470420FFF7BFFF174B1B685B0518D5164B5B685B0510D5154B596A8022D2001140114842688A434260596A114A4E
:400B40000A405A62DB69002B00D098478020C000FFF7A2FF084B1B685B030CD5074B5B685B0304D5064B1B6A002B00D098478020C002FFF791FF10BD10020B40DC0000203B
:400B800070010020FFFBFFFF0230800803D00138FDD1C046C046C0467047EFF3108072B6704780F310887047044B1B681F221340082BF9D0024B18607047C04608022740E7
:400BC0004002274070B50400FFF7E7FF0500102C05D8104A136803218B43136016E0202C07D80C490B6803229343023A13430B600CE0302C07D807490B6803229343013AEE
:400C000013430B6002E00020FFF7F6FD2800FFF7C8FF70BD30001040002243088B4274D303098B425FD3030A8B4244D3030B8B4228D3030C8B420DD3FF22090212BA030C60
:400C40008B4202D31212090265D0030B8B4219D300E0090AC30B8B4201D3CB03C01A5241830B8B4201D38B03C01A5241430B8B4201D34B03C01A5241030B8B4201D30B0379
:400C8000C01A5241C30A8B4201D3CB02C01A5241830A8B4201D38B02C01A5241430A8B4201D34B02C01A5241030A8B4201D30B02C01A5241CDD2C3098B4201D3CB01C01A75
:400CC000524183098B4201D38B01C01A524143098B4201D34B01C01A524103098B4201D30B01C01A5241C3088B4201D3CB00C01A524183088B4201D38B00C01A524143085C
:400D00008B4201D34B00C01A5241411A00D20146524110467047FFE701B5002000F006F802BDC0460029F7D076E770477047C046014B18687047C046440100200E4B70B5AA
:400D400000251E000D4CE41AA410A54204D0AB00F35898470135F8E700F0B8FC084B00251E00084CE41AA410A54204D0AB00F35898470135F8E770BDD8160000D816000092
:400D8000D8160000E0160000002310B59A4203D0CC5CC4540133F9E710BD03008218934202D019700133FAE7704700000CB430B5164B9DB00C1E1D6804DA8B2301202B60C4
:400DC00040421DE0822302A99B008B810023029008619C4200D0631E8B604B6101235B42CB81209A21AB2800019300F073F8431C01DA8B232B60002C02D00023029A13703C
:400E00001DB030BC08BC02B01847C04644010020F0B58E6885B007000C00039201939E4243D890238A89DB001A423ED003250969236801985B1A029363695D43EB0F5D1903
:400E4000029B6D1001331B18AB4200D91D00530510D52900380000F037FB061E14D0029A2169FFF791FFA289194B134080221343A38112E02A00380000F086FB061E0CD1D6
:400E80002169380000F0D4FA0C23402201203B60A38940421343A38117E0029B2661F61826606561019EED1AA560019BB34200D21E0032000399206800F0A5FA0020A3688C
:400EC0009B1BA36023689E19266005B0F0BDC0467FFBFFFFF0B59FB0029005938B890F0016001B0610D50B69002B0DD1402100F0EBFA38603861002804D10C23029A01384F
:400F00001360D8E040237B61002306AD6B6120336B761033AB7634002378002B03D1A31B049312D003E0252BF9D00134F4E7A31B320039000298FFF76BFF431C00D1B4E015
:400F40006A69049B944663446B612378002B00D1ABE00122002352426A6002A95432521801342B60EB60AB601370AB65534E21780522300000F03CFA002807D00123801B33
:400F800083402A68013413432B60EFE72B68DA0604D55322202102A8121811701A0704D553222B2102A81218117022782A2A03D0099B00200A210EE0059A111D126805910E
:400FC000002A01DB099204E05242EA60022213432B6001340BE02278303A092A04D84B4301349B180120F6E7002800D0099323782E2B1ED163782A2B0AD1059B02341A1D53
:401000001B680592002B01DA01235B42079310E000230A201A0001346B6021783039092904D84243013452180123F6E7002B00D00792234E21780322300000F0D9F90028CC
:4010400006D04023801B83402A68013413432B60217806221B48661C297600F0C9F9002812D0194B002B06D10722059B073393430833059314E005AB00933A00134B290026
:40108000029800E000BF07E005AB00933A000F4B2900029800F08AF80390039B013304D06B69039A9B186B6135E7BB890B985B0601D5012040421FB0F0BDC04698160000CE
:4010C0009E160000A216000000000000110E0000F7B5170001938A680B6900900C00934200DA130022003B6043321278002A01D001333B6023689B0602D53B6802333B604E
:40110000062523681D401ED0230043331B785A1E9341226892061CD53020E1184331087021005A1C45310978A2184332023311700FE022000123193201990098089EB0472C
:40114000431C0ED00135E3683A689B1A9D42F0DBDAE72200019943320098089DA847431C02D10120404220E006232068E1683A6803400025042B03D18D1AEB43DB171D4092
:40118000A3682269934201DD9B1AED180027BD420AD0220001231A3201990098089EB047431CDED00137F2E70020FEBDF0B58BB006920A0043320793059004920A7E0C0082
:4011C000109B6E2A00D1ABE011D8632A22D009D8002A00D1B5E0582A00D0C5E045310A70814A4FE0642A1DD0692A1BD0BCE0732A00D1AAE009D86F2A29D0702A00D0B3E099
:40120000202209680A43226037E0752A1FD0782A33D0A9E00E001A684236111D196013683370A4E021681A68080606D4490604D5111D19600023D55E02E0111D19601568EA
:40124000002D3BDA2D23049A6D42137036E021681A68080606D4490604D51568111D1960ADB202E0111D196015685F4B227E039308276F2A1DD00A271BE02200782145325F
:4012800011705A4A19680392081D226818600D68100602D4500600D5ADB2D30702D520231A4322601027002D03D1202322689A4322602300002243331A7002E00A274A4BBD
:4012C00003936368A360002B09DB0422216891432160002D05D1049E002B11D07BE0002D79D0049E28003900FFF71CFD039B013E5B5C280033703900FFF78EFC051EF1D1E6
:40130000082F09D12368DB0706D563682269934202DC3023013E3370049B9B1B23612BE009681A68080607D4490605D5111D19601368A28A1A8004E0111D19601368626974
:401340001A600023049E236116E01A68111D1960166800216268300000F04AF8002801D0801B6060636803E0260042363270012323610023049A1370079B09AA0093210089
:40138000069B0598FFF7A4FE431C02D10120404227E02369320006990598079DA847431CF4D0236800259B070FD4099BE068984217DA180015E02200012319320699059805
:4013C000079EB047431CE1D00135E368099A9B1A9D42F0DBE9E72600039B42361B7833708EE70BB0F0BDC046A9160000BA160000C9B28218904204D003788B4202D0013004
:40140000F8E70020704710B5884202D98B18984201D3002305E09B1A013A08D3995C8154FAE7934203D0CC5CC4540133F9E710BD70B50500002944D00C1F2368002B00DAD2
:40144000E418280000F0D8F81E4A13681100002B02D16360146031E0A3420DD92268A018834203D118685B688218226063600C6024E0A24203D813005A68002AF9D11E6808
:401480009819A0420BD12168711858181960824214D110685268411819605A600EE0A04202D90C232B6009E021686018824203D1106852684118216062605C60280000F0D2
:4014C0009CF870BD9C010020032370B5CD1C9D43083506000C2D01D20C2501E0002D01DBA94202D90C23336048E0300000F084F8234B1C681A002100002913D00B685B1B82
:401500000DD40B2B02D90B60CC181EE08C4202D1636813601AE04B6863600C0016E00C004968E9E7174C2368002B03D1300000F051F820602900300000F04CF8431C18D0E4
:401540000323C41C9C43A0420DD12560300000F054F8200007220B30231D9043C31A0ED05A42E2500BE0211A300000F033F8431CEBD10C233000336000F03FF8002070BDC3
:401580009C01002098010020F8B506000C001500002904D11100FFF797FF040018E0002A03D1FFF745FF2C0012E000F027F885420ED929003000FFF787FF071E07D0210045
:4015C0002A00FFF7E1FB21003000FFF731FF3C002000F8BD002370B5064C050008002360FEF7A0FE431C03D12368002B00D02B6070BDC046A8010020704770470B1F1A6850
:40160000101F002A04DA891804390B68D0180438704700000000000025642C25640A000000300F40000400400F40000438883E4458045F0118011B04AB04B4015720D440C4
:40164000AB20EE206C40DC02B440EC0804300F4002310F4002330F4002400F4002410F4002420F4002430F40030405060708090A0B0C0E0F101112131415161718191B1CE0
:401680001D1E1F2021222325262728292A2B2E2F3031323334354300232D302B2000686C4C00656667454647003031323334353637383941424344454600303132333435A3
:4016C000363738396162636465660000F8B5C046F8BC08BC9E467047E90100009D030000F8B5C046F8BC08BC9E467047C101000000170000C00000208800000068000000F8
:4017000000000000B0010020010000000000C05D80BB000030000000006CDC02F0000000040404000000000000000000000000000000000000000000000000000000000009
:4017400000000000961600000000000000000000000000000000000000000000000000000000000000000000000000000000000000000000000000000000000000000000BD
:4017800000000000E4000020000000000000000000000000000000000000000000000000000000000000000000000000000000000000000000000000000000000000000025
:4017C00000000000000000000000000000000000000000000000000000000000000000000000000000000000000000000000000000000000000000000000000000000000E9
:4018000000000000000000000000000000000000000000000000000000000000000000000000000000000000000000000000000000000000000000000000000000000000A8
:401840000000000000000000000000000000000000000000000000000000000000000000000000000000000000000000000000000000000000000000000000000000000068
:401880000000000000000000000000000000000000000000000000000000000000000000000000000000000000000000000000000000000000000000000000000000000028
:020000040001F9
:0200000490303A
:020000001E25BB
:0200000490402A
:4000000000000000000000000000000000000000000000000000000000000000000000000000000000000000000000000000000000000000000000000000000000000000C0
:400040000000000000000000000000000000000000000000000000000000000000000000000000000000000000000000000000000000000000000000000000000000000080
:0200000490501A
:0C0000000002112D11A1000111342FC6C7
:0200000490600A
:0100000001FE
:00000001FF