:4000000000400020110000007D0400007D04000010B500F03BFAC04610B51222184B1A60302000F079FD174A174B1A60BC229201164B1A60164B174A1A601749174A1160DA
:40004000174A1A6080221206164B1A608022D202154B1A604023154A1360154A13604121144A1160144A13601449072000F0B0FC072000F0A1FC0022114B1A6010BDC04618
:40008000300010400600008004010B40000301400000014040FF0080007FBB000403014041FF008008010B4000010B404C01014034010140300101402C010140590C00007B
:4000C0000C020B4010B572B600240FE028486200131959000B00411889881A5AC31858880004104300F0C4F90134E4B2012CEDD91F490C311F48083000F090F9CC229201AC
:400100001D4B1A601D4A1E4B1A6099231B041D4A1360B02109041C4A11601C4A13601C4A1360C022D2021B4B1A601B490B783C22934314221343DBB20B70184A117816230E
:400140000B43DBB213700C22154B1A60D8221201144B1A60144A154B1A601322144B1A60144A154B1A60FFF757FF00F071F910BDE00D0000E00E00000000024033EE0800FC
:400180000003024000500F4008500F4010500F4030500F4038500F4001700F4000700F400000044008000440DB0600000801044000030440B66D00000803044010B5064C52
:4001C0002378002B07D1054B002B02D0044800E000BF0123237010BD4801002000000000DC0D0000084B10B5002B03D00749084800E000BF07480368002B00D110BD064B2A
:40020000002BFBD09847F9E7000000004C010020DC0D0000C00000200000000010B500F089FA0028FBD0012010BDC046F8B504000D001600012809D002DC00280DD003E018
:40024000022805D0032805D0002707E0114F05E0114F03E0F8273F0100E0104F380000F0FDF9780800F002FAFA20800000F06EF9AB005D19680000F071F900F0C3F900F051
:4002800049FAE0B200F0CEF9300000F0B3FB00F0CFF9F8BD660C0000B0120000990C000070B51F4800F0DAF91E4800F0DFF9FA20800000F04BF91C4800F050F9002529E088
:4002C000FA20400000F096FB00F024FA00F09AF9002418E0002000F0A5F9012000F08AFB012000F09FF9012000F084FB022000F099F9012000F07EFB032000F093F901200B
:4003000000F078FB01347C2CE4DD00F091F900F007F90135022DD3DD00F08AF970BDC0468306000041030000E7030000F0B595B062B600F0C7FA00F0EDF900F079F900F005
:4003400061F900F0EDF800F059FA00F0FBF900F0F1FAFFF763FF0028FBD0FFF7A1FF002407E000F08DFAA300032210406A4698500134132CF5DD0124002645E01521091B29
:400380008B005918AB006A469858D2225200FFF74DFF013500E00025A542EFDB002526E000231C4A13601C4A136003E0FFF736FF184B1860174B1B68002B03D1164B1B68D1
:4003C000002BF3D0144B1B68012B13D0114F38681521091B8B005918D2225200FFF726FFAB006A469A583B689A4205D10135A542D6DB02E0012600E00126002E04D10134AF
:40040000C820800000F0F6FA142CA2DC002EC2D09FE7C0469001002094010020F0B50025002711E0BB00C658F3B2FF22964308E06A008A181478A419527822700135013B9F
:40044000DBB2002BF4D10137072FEBD9F0BDC0460323044A1360044A13600022034B1A607047C0463000304030003140000E3F4010B50A00002100F0A9FC10BD10B500F0F6
:4004800079FC03680C2B00D1FEE7FEE770B50F4E0F4D13E029686B68AC68002202E001C901C30432A242FAD1E868002202E0002102C304328242FAD11035013E002EE9D15F
:4004C00000F05EFCFFF732FFFEE7C046010000005C0F000010B50E4A136801218B43136000230AE0032B03D89A000A49505800E009489900094A885001332F2BF2D9FFF74A
:40050000E1FD034A116801230B43136010BDC04600001040000000007D0400000000002010B500F0F6FB044A136801218B43136000F0F3FB10BDC046000020400004000C7B
:40054000014B18607047C046080120400004000C014B18607047C046140120400004000C014B18607047C0460C01204070B504000D0000F0CEFBAC40024B1C6000F0CDFB31
:4005800070BDC0460800204010B500F0C2FB064A116801230B43136000F0BFFB18210120FFF7E4FF10BDC04600002040014B18607047C0463801204010B50E4C8023DB04B5
:4005C0002360236823600020FFF7B8FF236823600C22094B1A600120FFF7E8FF3122074B1A60074C2000FFF7B1FF2000FFF7B6FF10BDC04600012040240120402801204050
:40060000FFFF000010B5064B1B78002B04D1FFF7D3FF0122024B1A70FFF7B6FF10BDC04664010020014B18707047C04673000F4010B500F06EFB044A136804218B431360AE
:4006400000F06BFB10BDC046000020400004000C014B18607047C046880120400004000C014B18607047C046940120400004000C014B18607047C0468C01204070B504004A
:400680000D0000F046FBAC40024B1C6000F045FB70BDC0460800204010B500F03AFB064A116804230B43136000F037FB18210420FFF7E4FF10BDC04600002040014B186092
:4006C0007047C046B801204010B50E4C8023DB042360236823600020FFF7B8FF236823600C22094B1A600120FFF7E8FF3122074B1A60074C2000FFF7B1FF2000FFF7B6FF1A
:4007000010BDC04680012040A4012040A8012040FFFF000010B5064B1B78002B04D1FFF7D3FF0122024B1A70FFF7B6FF10BDC04665010020024B1B680F2018407047C04676
:400740000401044010B500F0E4FA044A136802218B43136000F0E1FA10BDC046000020400004000C014B18607047C046480120400004000C014B18607047C04654012040F2
:4007800070B504000D0000F0C4FAAC40024B1C6000F0C3FA70BDC0460800204010B500F0B8FA064A116802230B43136000F0B5FA18210220FFF7E4FF10BDC046000020403C
:4007C000014B18607047C0467801204010B580229204074B1A600C22064B1A600120FFF7EFFF0548FFF7C4FF0020FFF7B9FF10BD4001204064012040FFFF000010B5064BBD
:400800001B78002B04D1FFF7E1FF0122024B1A70FFF7C4FF10BDC04666010020034A117801230B43DBB213707047C04670000F4010B5040000F06DFA0C490A7803231A43F4
:40084000D2B20A700A490A781A43D2B20A7009490A781A43D2B20A70074A11780B43DBB2137000F05AFA054B1C6010BD90000F4091000F4092000F4093000F4000210F4014
:40088000014B18687047C04600200F40014B18607047C04600200F40014B18607047C04680200F4010B5A3200006FFF7F5FF012464422000FFF7EAFF2000FFF7B9FFFFF7DA
:4008C000ADFF10BD10B5064B1B78002B04D1FFF7E9FF0122024B1A70FFF7A0FF10BDC046670100207047C0469023014AD05070470000002010B5040000F00BFA044A1368D5
:40090000C0218B43A4011C43146000F006FA10BD14E400E080225203014B1A607047C04600E100E080225203014B1A607047C04680E100E010B5FFF7F5FF0448FFF7D4FF41
:400940000320FFF7D7FFFFF7E5FF10BDE508000000230AE00D4A12683F210A400C49C95C8A4201D1033303E001332D2BF2D9032308490868084A02400A60084A944663442C
:400980001B78DBB2064A13607047C0462CFF0B40080F000000002240FFFFFFBFCDF1FF0F28FF0B40034B18688023DB05184000D001207047000022401F2318401E3B834045
:4009C000014A13607047C04600E100E001BE704770B504000D001F2802D90020FFF7F6FF1034A40080239B059C4664442068256070BDC04610B5040006E0084B586800F03B
:400A00007FF9074B9C46644480231B029C42F4D8024B9868604300F073F910BDC40000200080FFFF70B582B000F0C0F800285DD000F06FF9050000230AE02D4A12683F216E
:400A40000A402C49C95C8A4201D1033303E001332D2BF2D903230021274A1160274A1268D20606D1254802681F318A4313390A430260234C2168234A1140234A5A4380236F
:400A8000DB019C466244D20B013A5205520D0B001343A0225203134323601C4B1B680193302000F03DF91A4A13688021C9050B4313602668174B1E40002407E00120FFF740
:400AC00099FF1034A30533430D4A1360EE2CF5D90120FFF78FFFFF239B051E43084B1E60019A0A4B1A60280000F017F902B070BD2CFF0B40080F000028FF0B4034FF0B40C3
:400B00000800224000F800C040420F003000104000002240FFFF3FC030B587B0040000F0F8F80500FFF73EFF002803D0FFF710FF012100E00021104B1B6800930F4B1B687A
:400B40000193033C0E4B1B5D02930E4B1B68039304AA0D4B04936B4605930C4B1A600C480C4A10601B68012901D1FFF75BFF280000F0D3F807B030BD08010B4000010B4003
:400B8000080F000030001040B6EA0000080010401700008004001040034B1868C0231B02184000D00120704700010B40034B1B68002B01DA012000E0002070470000224090
:400BC00010B500F0A6F8044A1368C02109020B43136000F0A2F810BD00010B4010B500F098F808490A68084B1A408024E40122430A600A6813408022120213430B6000F050
:400C00008CF810BD00010B40FF3FFFFF70B5050000F07FF80400FFF7BFFF002803D0FFF7DDFF012100E0002108482840084A1568084B2B40184310601368012901D1FFF725
:400C4000BFFF200000F069F870BDC0460404040010020B40FBFBFBFF10B5244B1B685B0715D5234B5B685B070ED5224B596A042001401F4C62688A4362605A6A82435A62A2
:400C80009B69002B00D098470420FFF7BFFF174B1B685B0518D5164B5B685B0510D5154B596A8022D2001140114842688A434260596A114A0A405A62DB69002B00D0984747
:400CC0008020C000FFF7A2FF084B1B685B030CD5074B5B685B0304D5064B1B6A002B00D098478020C002FFF791FF10BD10020B40D800002068010020FFFBFFFF0000000061
:400D00000230800803D00138FDD1C046C046C0467047EFF3108072B6704780F31088704770B50400FFF7F5FF0500102C05D8104A136803218B43136016E0202C07D80C4962
:400D40000B6803229343023A13430B600CE0302C07D807490B6803229343013A13430B6002E00020FFF732FE2800FFF7D6FF70BD30001040014B18687047C0464001002075
:400D80000E4B70B500251E000D4CE41AA410A54204D0AB00F35898470135F8E700F0CCF8084B00251E00084CE41AA410A54204D0AB00F35898470135F8E770BD440F00004D
:400DC000440F0000440F00004C0F000003008218934202D019700133FAE770470000000000300F40000400400F400004400549FF4AFF4BFF4C024E0852015A0C5B045F0107
:400E0000624863A168F06AF06CF06EF0C004C9FFCAFFCBFFCC03CE0CDA0CDF01E248E3A1E8F0EAF0ECF0EEF047024801680169406B0279407D40D080D208DE18400449FFBD
:400E40004AFF4BFF4C034E7C5A0C5F01624863A168F06AF06CF06EF0960FA803AA0CAC06AE09B008B202B404B601BE55C005C9FFCAFFCBFFCC03CEF4D804DA0CDB04DF0157
:400E8000E248E3A1E8F0EAF0ECF0EEF00808100A18821A101B20470248014A03680A7A017E0280018B208C088E1094809B02A001A840C204C403D080D208DE18E280E40414
:400EC00052025602D480D6208A029E02AA02EA80190857205B2083208D088F20C608D403E202E408010110011E300F400A310F4028320F401A330F4004400F4004410F40A5
:400F00000A430F4002600F40030405060708090A0B0C0E0F101112131415161718191B1C1D1E1F2021222325262728292A2B2E2F3031323334354300F8B5C046F8BC08BC06
:400F40009E467047E5010000D5040000F8B5C046F8BC08BC9E467047BD010000700F0000C000002088000000500000000000000000000000010000000000C05D80BB000003
:400F800030000000006CDC02F0000000040404000000000000000000000000000000000000000000000000000000000000000000360F000000000000000000000000000076
:400FC000000000000000000000000000000000000000000000000000000000000000000000000000000000000000000000000000E0000020000000000000000000000000F1
:4010000000000000000000000000000000000000000000000000000000000000000000000000000000000000000000000000000000000000000000000000000000000000B0
:401040000000000000000000000000000000000000000000000000000000000000000000000000000000000000000000000000000000000000000000000000000000000070
:401080000000000000000000000000000000000000000000000000000000000000000000000000000000000000000000000000000000000000000000000000000000000030
:4010C00000000000000000000000000000000000000000000000000000000000000000000000000000000000000000000000000000000000000000000000000000000000F0
:020000040001F9
:0200000490303A
:020000003E2B95
:0200000490402A
:4000000000000000000000000000000000000000000000000000000000000000000000000000000000000000000000000000000000000000000000000000000000000000C0
:400040000000000000000000000000000000000000000000000000000000000000000000000000000000000000000000000000000000000000000000000000000000000080
:0200000490501A
:0C0000000002112D11A1000111324FCCA3
:0200000490600A
:0100000001FE
:00000001FF