:400000000040002011000000F1160000F116000010B501F075FBC04610B51222124B1A60302001F037FE114A114B1A60C8225201104B1A60104A114B1A6082221206104B45
:400040001A608022D2020F4B1A6040220E4B1A600E49072001F054FD072001F045FD00220B4B1A6010BDC046300010400600008004010B400003014040FF0080000001400E
:4000800008010B4000010B4028010140E91D00000C020B4010B572B60122294B1A7000240FE028486200131959000B00411889881A5AC31858880004104301F0E5FA01345F
:4000C000E4B2012CEDD91F4801000C31143001F0C1FAEE2212021C4B1A6099231B041B4A13601B4A13601B4A13601B4A136002221A4B1A601A4A117806230B43DBB213702B
:400100008023184A1360B021C903174A116080210902164A11601649164A1160164A1360164A13601649174A1160174A1360D8221201164B1A60FFF76FFF01F0BBFA10BDC1
:400140001C700F400C2100000003024000500F4010500F4020500F4030500F402000104000700F4000000440080004400C000440B60D000008010440180104400002044094
:40018000B66D1B0008020440180204400803044010B5064C2378002B07D1054B002B02D0044800E000BF0123237010BD5001002000000000DC200000084B10B5002B03D012
:4001C0000749084800E000BF07480368002B00D110BD064B002BFBD09847F9E70000000054010020DC200000C000002000000000FEE7C046FEE7C04610B5084B1868002157
:4002000000F0B2FB0128F8D1054B1B88034B186800230022002100F0E1FAEEE7AC0A0020B00A0020034B044ADA62044A9A63044ADA6370470000002055040000B104000025
:40024000F504000000B583B0012000F049FB174B1860174B019302230093002364221549154800F0ADFD154B019303230093002364221349134800F0A3FD134B019304230C
:400280000093002364221149114800F099FDFFF7C9FF01F0E7FB01F00BFB01F019FB01F07BFB62B600F006FEFEE7C046AC0A0020A40A0020E0200000F1010000B40A00206A
:4002C000EC200000F9010000A80A0020F8200000F501000072B6FEE772B6FEE770B50400430709D0072302009A4313000833984201D3002400E01C0000F004FE134B1B68BA
:40030000002B05D1114A13000B3307218B431360002C0DD00E4B5B68E4180E4A944209D8A34209D2094A1568ED18094B5C6004E0002502E0002500E0002500F09FFE002D03
:4003400001D1FFF7C9FF280070BDC0466C0100206C090020F70700007047C046030008334360012252428260C3600361002303607047C046002303617047C04643684B60D7
:400380009A688A609A68516099600861036801330360704730B50C68631C01D1026907E00200083200E01A0053681D68AC42FAD253684B6099608A60516008610368013355
:4003C000036030BD03694268816891608268416851605A68904201D182685A60002202611A68013A1A6018687047C04682B00023019372B6019B002BFCD002B07047C04663
:400400000B4A13681868203080F30988022080F31488BFF36F8F3FBCAE4608BC04BC62B61847C046C046C046C046C046C046C0464C0A002010B5031F802464041C60043BFF
:400440001960043B02491960143B1A60403810BDED0300007047C04680225205034B1A60BFF34F8FBFF36F8F7047C04604ED00E072B6044A136801331360BFF34F8FBFF3DC
:400480006F8F7047C4000020034A1368013B1360002B00D162B67047C4000020EFF3108072B6704780F310887047C04600000000EFF309800E4B1A6820381060F0C044461C
:4004C0004D4656465F46F0C008B572B600F06CFE62B60CBC116808681030F0C8A046A946B246BB4680F309882038F0C81847C0464C0A002010B5FFF7D1FF040000F010FD2F
:40050000002803D080225205024B1A602000FFF7C9FF10BD04ED00E0054B00221A6005490A600549054A116007221A607047C04610E000E018E000E07FBB000014E000E0BC
:4005400010B50C4B1A68FF2109040A431A601A68FF2109060A431A60FFF7DEFF0022064B1A60FFF74DFF00F01FFEFFF73FFF002010BDC04620ED00E0C4000020436A002B92
:4005800004D0036B18680523181A00E00020704710B50400FFF76CFFA26BE36B9A4201D1012400E00024FFF76FFF200010BDC04610B50400FFF75CFFA36B002B01D101246B
:4005C00000E00024FFF760FF200010BD70B504001600856B026C002A08D10368002B2CD1806800F09BFF0023A3602DE0002E0ED1406801F061FD6368226C9446634463603C
:40060000A26893421BD32368636000201CE0C06801F052FD236C5B42E268D218E26021688A4203D2A26894466344E360022E08D1002D08D0013D002006E0002004E000200B
:4006400002E0002000E000200135A56370BDC04610B50C00026C002A0BD0C3689B18C36081688B4201D30368C360C168200001F023FD10BD70B50500FFF7FAFE4523EC5CBB
:4006800064B20CE06B6A002B0BD02800243000F03DFE002801D000F0DDFE013C64B2002CF0DCFF224523EA54FFF7EEFEFFF7E0FE4423EC5C64B20CE02B69002B0BD02800B7
:4006C000103000F023FE002801D000F0C3FE013C64B2002CF0DCFF224423EA54FFF7D4FE70BDC04670B504000D00002838D0C16B002937D00120404201F026FC236C984212
:4007000032D3FFF7B5FE2268E36B206C010059435118A1600021A1636260013B4343D318E360FF234422A3540132A354002D0BD12369002B10D02000103000F0E7FD002824
:400740000AD0FFF789FE07E020001030FFF706FE20002430FFF702FEFFF796FE012004E0002002E0002000E0002070BD10B5029B002901D11B6000E01A60D863196401218D
:400780001800FFF7AFFF10BDF0B583B004000F001600002819D001000120404201F0D4FBB84214D3380060430300493311D84830FFF794FD051E0DD00200483200903300D8
:4007C00039002000FFF7D2FF04E0002502E0002500E00025280003B0F0BDC046F0B585B004000D0001921F000026FFF741FEA36BE26B934201D3022F18D13A00290020009D
:40080000FFF7E4FE636A002B08D02000243000F07DFD002806D0FFF71FFE03E0002801D0FFF71AFEFFF730FE01204AE0019B002B03D1FFF729FE002043E0002E03D102A821
:4008400000F0D4FD0136FFF71FFE00F05BFBFFF70FFE4423E35C5BB2013302D100224423E2544523E35C5BB2013302D100224523E254FFF709FE01A902A800F0BFFD00280B
:4008800019D12000FFF784FE00280ED020001030019900F02DFD2000FFF7ECFE00F0EEFB0028A2D1FFF7D8FD9FE72000FFF7E2FE00F0E4FB99E72000FFF7DCFE00F0DEFBD9
:4008C000002005B0F0BDC04610B5002807D0002383600360C36000220021FFF77FFF10BD10B5020000210120FFF74EFF0400FFF7EBFF200010BDC046F8B504000E00FFF7C4
:40090000CDFD0500A36BE26B93421FD24522A75C7FB20133A3637B1C0ED1636A002B17D02000243000F0F2FC002813D0002E13D001233360012412E000F0ECFAB8420DD9AB
:4009400001377FB24523E754012408E0002406E0012404E0012402E0012400E001242800FFF7A0FD2000F8BD70B584B00400019100260025FFF77CFDA36B002B16D0013B86
:40098000A3632368002B02D100F056FEA0602369002B07D02000103000F0B8FC002801D0FFF75AFDFFF770FD012069E0019B002B03D1FFF769FD002062E0002D03D102A8BB
:4009C00000F014FD0135FFF75FFD00F09BFAFFF74FFD4423E35C5BB2013302D100224423E2544523E35C5BB2013302D100224523E254FFF749FD01A902A800F0FFFC002810
:400A000024D12000FFF7D4FD002819D02368002B07D1FFF72DFDA06800F022FD0600FFF733FD20002430019900F062FC2000FFF721FE00F023FB00289CD1FFF70DFD99E724
:400A40002000FFF717FE00F019FB93E72000FFF711FE00F013FB2000FFF7AAFD002889D0002E0CD0FFF704FD2000FFF787FD0100A06800F097FDFFF707FD002000E000202A
:400A800004B070BDF0B583B0040000910192FFF705FD0500A76B002F24D04423E35C5EB200992000FFF7D4FD7B1EA363731C0FD12369002B18D02000103000F027FC0028A5
:400AC00014D0019A002A13D001231360012412E000F020FAB0420DD9731C5BB24422A354012408E0002406E0012404E0012402E0012400E001242800FFF7D4FC200003B0CF
:400B0000F0BDC046084B42699A4207D1826A14339A4205D0002A05D0002004E0002002E0002000E00120704774090020074B9B6A1B68002B04D101225242044BDA6204E0F2
:400B4000024B9A6AD2681268DA6270477409002010B50400006BFFF7FFFB2000FFF7FCFB10BDC046F0B583B000900D0017000193089C0A9E9200A521306B01F0A6FA1C4B85
:400B8000FB189B00326B94466344072293431F00002D0AD10FE0E9180878F218343210700A78002A04D0013300E000230B2BF2D900223F23F254042C00D90424F462346442
:400BC000301DFFF7D7FB30001830FFF7D3FB366105231C1BB4617662019A00993800FFF729FC3060099B002B00D01E6003B0F0BDFFFFFF3FF8B5002408E0A20012199300D8
:400C000010483030C018FFF7A9FB0134042CF4D90D4C270014373800FFF7A0FB260028363000FFF79BFB074D28001430FFF796FB20003C30FFF792FB2800FFF78FFBAF6275
:400C40002665F8BD74090020F409002070B50400FFF70EFC284B5A6D01325A659B6D002B07D1254B9C655B6D012B0ED1FFF7C2FF0BE0214BDB6D002B07D11F4B9B6DDB6AC6
:400C8000E26A934201D81C4B9C651B4A136E01331366E36A526E934201D9174A536617499A00D3189A008A18536BA3609A68E2609868221D42609A60E36A0E0030369D000A
:400CC000E8188200B2186261E81882008A18106B0130EB189A008A181063FFF7D5FB064BDB6D002B07D0044B9B6DDA6AE36A9A4201D2FFF7B1FB70BDF409002074090020E2
:400D000070B512E0FFF7B4FB0A4CA36CDD68281DFFF758FB636D013B6365A36E013BA366FFF7B2FB2800FFF713FF024B9B6E002BE8D170BDF409002010B5FFF7E1FFFCE7C0
:400D400070B504000D001C4BDE6E986D0430FFF739FB631C16D1002D14D0184A5168164B986D8160986D8C68C4608C68986D04306060986D043088609B6D5A6113680133B1
:400D8000136018E034190C4B9B6D5C60A64206D9094B186D996D0431FFF7FCFA0BE0074DA86A054B996D0431FFF7F4FAEB6A9C4201D2024BDC6270BDF40900207409002061
:400DC000F0B587B00490059114001F009000FFF785FA061E0ED05020FFF780FA051E05D05022002101F071F92E6304E03000FFF7B3FA00E00025002D11D000230393029542
:400E00000D9B01930C9B00933B00220005990498FFF7A8FE2800FFF719FF012001E00120404207B0F0BDC04670B504001F4B9B6D98423AD0002838D0FFF71AFB2000FFF7F4
:400E400061FE00282FD0251D2800FFF7BBFAE36A164A526E934201D9144A536614499A00D3189A008A18536BA3609A68E2609A6855609D60E36A0E0030369D00E8188200ED
:400E8000B2186261E81882008A18106B0130EB189A008A181063E26A044B9B6DDB6A9A4201D3FFF7D9FAFFF7EFFA70BDF40900207409002000B583B00D4B7833019300235A
:400EC000009364220B490C48FFF77AFF01280BD172B601225242094BDA62054B0232DA650022DA66FFF72CFB054B1B6803B000BDF409002004210000390D000074090020A4
:400F0000C8000020024A136F013313677047C046F4090020014B586D7047C046F4090020F0B583B0524B1B6F002B00D093E0504BDC6E0134DC66002C09D14E4A916A186DA1
:400F400090621965DA6F0132DA67FFF7EFFD494BDB6A9C4205D2002301936AE00123019301E000230193434B9B6A1B68002B04D1012252423F4BDA625BE03E4B9B6ADB68E4
:400F8000DB685A68944202D23A4BDA6251E05A699968D8688860D968986848601E1D5168B14201D1D9685160002159611168013911609A6A002A11D0D969186A8860196AD3
:400FC000D8694860190018315068884201D1196A516000219962116801391160DA6A2449496E8A4201D922494A66224D91008A18910069184A6B9A609168D96091684E6079
:401000009660DA6A280030309700BE18B10041185961BE18B10069180E6B0136BA18910069180E63DA6A124B9B6DDB6A9A4295D899E70F4B9B6DDB6A9A00D3189A000D4BDB
:401040009A18136B012B01D901230193084B5B6F002B07D108E0084A1368013313600023019301E001230193019803B0F0BDC046F409002074090020740A002070B5FFF744
:40108000F7F9464B1A6F013A1A671B6F002B7DD1424B5B6D002B57D100247AE0404B1B6ADB689A6AD969186A8860196AD8694860190018315068884201D1196A51600021C7
:4010C00099621168013911605A699968D8688860D968986848601C1D5168A14201D1D968516000215961116801391160DA6A2B49496E8A4201D929494A66294891008A1889
:40110000910041184A6B9A609168D96091684C609460DA6A060030369500AC18A10071185961AC18A10041180C6B0134AA18910041180C63194A926DD26AD96A914204D34E
:401140000121164A516700E00023154A5269002AA4D1002B01D0FFF7E9FC124B1C68002C0CD0FFF7DDFE002802D001220B4B5A67013C002CF5D100220A4B1A60074B5B6F78
:40118000002B05D0FFF768F9012402E0002400E00024FFF779F9200070BDC046F409002074090020740A002010B5274B1B6F002B03D00122244B5A6745E0234B00225A670E
:4011C0009B6D1B6B214A1968914209D15968914206D19968914203D1DA681C4B9A4205D0194B986D996D3431FFF774F8164B5B6E00E0013B9900C9188A0015498A18126B5E
:40120000002AF6D00A009900CC18A0001018446B6468446330321000C9188A0008328218944206D160689900C9188A0008498A1850639900C9188A0005498A18526BD16893
:40124000014A9165536610BDF4090020A5A5A5A57409002070B50400FFF70AF9002C01D1214B9C6D251D2800FFF7ACF8A36A002B03D020001830FFF7A5F829001B48FFF738
:401280007DF8002309E0E2184C321278012A03D1E2184C32002111700133002BF3DDFFF7F3F8114BDB6D002B05D0FFF7E1F8FFF73DFCFFF7E9F80C4B9B6D9C4212D10A4B94
:4012C000DB6D002B02D0FFF7C7F80BE0074B1A68054B5B6D9A4203D10022034B9A6501E0FFF762FF70BDC046F40900207409002010B50C00044B996D1831FFF74BF801210F
:401300002000FFF71DFD10BDF409002070B5C368DB689A6AD969186A8860196AD8694860180018305168814201D1196A5160002199621168013911602A4A126F002A36D19C
:401340005A699968D8688860D968986848601C1D5168A14201D1D968516000215961116801391160DA6A1F49496E8A4201D91D494A661D4891008A18910041184A6B9A60B0
:401380009168D96091684C609460DA6A060030369500AC18A10071185961AC18A10041180C6B0134AA18910041180C630DE00E4A9169D9618C681C628C6860608860110058
:4013C00014319962516901315161DA6A054B9B6DDB6A9A4204D90122024B5A67012000E0002070BDF409002074090020024BDA6F0260DB6E43607047F4090020F8B50400D3
:401400000D00FFF735F8124BD96E6268881A2B685E1C17D00E4EF66F2768B74205D0914203D300232B6001240DE0984206D21B1A2B602000FFF7DAFF002404E000232B60DA
:40144000012400E00024FFF71FF82000F8BDC046F40900200122014B5A677047F409002070B5041E51D0C36A2A4A926DD26A934243D28269002A05DB264A926DD16A052246
:40148000521A82619A00D3189A00234B30339A18636993422BD1251D2800FEF793FF1D4A936DDB6AE362526E934201D9194A536619499A00D3189A008A18536BA3609A684B
:4014C000E2609A6855609D60E36A0E0030369D00E8188200B2186261E81882008A18106B0130EB189A008A181063012010E0094B9B6DDB6AE36201200AE0026C054B9B6D3F
:40150000DB6A9A4203D3002002E0002000E0012070BDC046F40900207409002070B5041E36D0436C013B4364C26A016C8A4231D0002B31D1051D2800FEF744FF236CE362DC
:401540000522D21AA261154A526E934201D9134A536613499A00D3189A008A18536BA3609A68E2609A6855609D60E36A0E0030369D00E8188200B2186261E81882008A180A
:40158000106B0130EB189A008A181063012004E0002002E0002000E0002070BDF40900207409002070B5041E41D0036C8B4200D20B00E26A93423AD0616C012937D1E362DF
:4015C000A169002902DB0521CB1AA36193009A189300174A3032D31862699A4227D1251D2800FEF7EFFEE36A124A526E934201D9104A53660E499A00D3189A008A18536B5A
:40160000A3609A68E2609A6855609D60E36A0E0030369D00E8188200B2186261E81882008A18106B0130EB189A008A18106370BD74090020F4090020054B9B6D002B04D082
:40164000034B9A6D536C01335364014B986D7047F4090020F0B50025002711E0BB00C658F3B2FF22964308E06A008A181478A419527822700135013BDBB2002BF4D101372C
:40168000002FEBD0F0BDC04610B50A00002100F01CFD10BD064B1B68002803D080221206134301E05B005B08014A13607047C04680033A4010B50323084A1360084A13605C
:4016C00080221206074B1A608022074B1A600022064B1A600120FFF7DDFF10BD300030403000314000003A4000033A40000E3F4010B500F0B5FC03680C2B00D1FEE7FEE7E1
:4017000070B50F4E0F4D13E029686B68AC68002202E001C901C30432A242FAD1E868002202E0002102C304328242FAD11035013E002EE9D100F09AFCFEF784FDFEE7C04697
:40174000010000007821000010B50E4A136801218B43136000230AE0032B03D89A000A49505800E009489900094A885001332F2BF2D9FEF78FFC034A116801230B431360B0
:4017800010BDC0460000104000000000F11600000000002010B50321102000F0C3F92149102000F0ADF901221F4B1A601F4B1B68002B01DA1E4900E01E491F4A13680B4310
:4017C00013601E4A1E4B1A601E4A1F4B1A6000231E4A13601E4A1F490A601F490A601F4A13601F4A136001221E4B1A601E4A11681E4B0B40802189050B43136000230DE082
:401800009A001B4951188020C000086058000024184944521848194950500133002BEFD010BDC0461119000020003A4080033A40C00E1053C00E005300003A40F8000080AE
:4018400004003A400000FF0718003A401C003A400400040010003A4014003A4028023A4038023A4018023A4030003A40FEFFFFDF80003A40BC0A0020204E0000B80A0020FB
:4018800010B5094B1B68002B0CDB084B1B68002BFBDB054A1368802109060B4313600A2000F038FA10BDC04600003A4008023A4010B5064B1B78002B04D1FFF76BFF01221F
:4018C000024B1A70FFF7DCFF10BDC046780A0020034A1368802149020B4313607047C04604003A4010B5041E02D0002000F006F9002C07D1A400054B9C4664442068000445
:40190000000C00E0002000B210BDC04680013A40014B1A681A60704710023A4010B582B000230193084C01AA00212068FFF7AAF80020FFF7D7FF054B1880206801A9FEF7A7
:40194000DBFF02B010BDC046AC0A0020B00A0020014B58647047C0460000002010B5040000F09FFA044A1168044B0B40A4031C43146000F09AFA10BD00E400E0FF3FFFFFF5
:401980000222014B1A60704700E100E00222014B1A60704780E100E010B5FFF7F7FF0448FFF7D6FF0320FFF7D9FFFFF7E9FF10BD1D19000010B5164B1B68012B15D1154B2E
:4019C0001868FFF747FC144B1868FFF743FC134B1868FFF73FFC012000F06AFA002000F073FA00220A4B1A600EE00A4B1868FFF71BFA094B1868FFF717FA084B1868FFF7B6
:401A000013FA0122024B1A6000F06AFA10BDC046CC000020A40A0020B40A0020A80A0020014B18647047C0460000002010B5040000F037FA044A1368C0218B43A4011C4313
:401A4000146000F032FA10BD00E400E00122014B1A60704700E100E00122014B1A60704780E100E010B5FFF7F7FF0448FFF7D8FF0320FFF7DBFFFFF7E9FF10BDB5190000CD
:401A800000230AE00D4A12683F210A400C49C95C8A4201D1033303E001332D2BF2D9032308490868084A02400A60084A944663441B78DBB2064A13607047C0462CFF0B4048
:401AC0002421000000002240FFFFFFBFCDF1FF0F28FF0B40034B18688023DB05184000D001207047000022401F2318401E3B8340014A13607047C04600E100E001BE70472A
:401B000070B504000D001F2802D90020FFF7F6FF1034A40080239B059C4664442068256070BDC04670B504000E00032902D90020FFF7E4FF1F2C02D90020FFF7DFFF0325D4
:401B40002540ED00063500F0ACF9A408A400074B9C46644421680323AB4099430B003100A9401943216000F0A0F970BD00E400E010B5040006E0084B586800F089F9074B9F
:401B80009C46644480231B029C42F4D8024B9868604300F07DF910BDD00000200080FFFF70B582B000F0CAF800285DD000F079F9050000230AE02D4A12683F210A402C49BE
:401BC000C95C8A4201D1033303E001332D2BF2D903230021274A1160274A1268D20606D1254802681F318A4313390A430260234C2168234A1140234A5A438023DB019C46DF
:401C00006244D20B013A5205520D0B001343A0225203134323601C4B1B680193302000F069F91A4A13688021C9050B4313602668174B1E40002407E00120FFF799FF103464
:401C4000A30533430D4A1360EE2CF5D90120FFF78FFFFF239B051E43084B1E60019A0A4B1A60280000F021F902B070BD2CFF0B402421000028FF0B4034FF0B40080022406B
:401C800000F800C040420F003000104000002240FFFF3FC030B587B0040000F002F90500FFF718FF002803D0FFF7EAFE012100E00021104B1B6800930F4B1B680193033CC2
:401CC0000E4B1B5D02930E4B1B68039304AA0D4B04936B4605930C4B1A600C480C4A10601B68012901D1FFF75BFF280000F0DDF807B030BD08010B4000010B4024210000F6
:401D000030001040B6EA000008001040170000800400104010B5034B1B7B584300F0B8F810BDC046D0000020034B1868C0231B02184000D00120704700010B40034B1B68AE
:401D4000002B01DA012000E0002070470000224010B500F0A6F8044A1368C02109020B43136000F0A2F810BD00010B4010B500F098F808490A68084B1A408024E401224314
:401D80000A600A6813408022120213430B6000F08CF810BD00010B40FF3FFFFF70B5050000F07FF80400FFF7BFFF002803D0FFF7DDFF012100E0002108482840084A1568F4
:401DC000084B2B40184310601368012901D1FFF7BFFF200000F069F870BDC0460404040010020B40FBFBFBFF10B5244B1B685B0715D5234B5B685B070ED5224B596A042065
:401E000001401F4C62688A4362605A6A82435A629B69002B00D098470420FFF7BFFF174B1B685B0518D5164B5B685B0510D5154B596A8022D2001140114842688A434260AD
:401E4000596A114A0A405A62DB69002B00D098478020C000FFF7A2FF084B1B685B030CD5074B5B685B0304D5064B1B6A002B00D098478020C002FFF791FF10BD10020B4006
:401E8000E40000207C0A0020FFFBFFFF000000000230800803D00138FDD1C046C046C0467047EFF3108072B6704780F31088704704490A68D2B240239A4380011840104361
:401EC0000860704700000440044A1368DBB20F218B430840184310607047C04600010440034B1868C0B27F2290431860C00970471000044070B50400FFF7D3FF0500102CE4
:401F000005D8104A136803218B43136016E0202C07D80C490B6803229343023A13430B600CE0302C07D807490B6803229343013A13430B6002E00020FFF7E0FD2800FFF7D5
:401F4000B4FF70BD30001040002243088B4274D303098B425FD3030A8B4244D3030B8B4228D3030C8B420DD3FF22090212BA030C8B4202D31212090265D0030B8B4219D31E
:401F800000E0090AC30B8B4201D3CB03C01A5241830B8B4201D38B03C01A5241430B8B4201D34B03C01A5241030B8B4201D30B03C01A5241C30A8B4201D3CB02C01A5241DE
:401FC000830A8B4201D38B02C01A5241430A8B4201D34B02C01A5241030A8B4201D30B02C01A5241CDD2C3098B4201D3CB01C01A524183098B4201D38B01C01A5241430932
:402000008B4201D34B01C01A524103098B4201D30B01C01A5241C3088B4201D3CB00C01A524183088B4201D38B00C01A524143088B4201D34B00C01A5241411A00D2014640
:40204000524110467047FFE701B5002000F006F802BDC0460029F7D076E770477047C046014B18687047C0464C0100200E4B70B500251E000D4CE41AA410A54204D0AB0068
:40208000F35898470135F8E700F064F8084B00251E00084CE41AA410A54204D0AB00F35898470135F8E770BD60210000602100006021000068210000002310B59A4203D084
:4020C000CC5CC4540133F9E710BD03008218934202D019700133FAE77047000000000000426C696E6B526564000000005570646174654C43440000005370696E4D6F746FAC
:402100007200000049444C450000000000300F40000400400F4000042F206F20CA80DA8004400F40030405060708090A0B0C0E0F101112131415161718191B1C1D1E1F20FE
:4021400021222325262728292A2B2E2F3031323334354300F8B5C046F8BC08BC9E467047B901000049170000F8B5C046F8BC08BC9E4670479101000088210000C000002051
:40218000900000007009000000000000AAAAAAAA0400000001000000010000000000C05D80BB000030000000006CDC02F0000000040404000000000000000000000000009A
:4021C000000000000000000000000000000000000000000052210000000000000000000000000000000000000000000000000000000000000000000000000000000000006C
:402200000000000000000000000000000000000000000000EC0000200000000000000000000000000000000000000000000000000000000000000000000000000000000092
:40224000000000000000000000000000000000000000000000000000000000000000000000000000000000000000000000000000000000000000000000000000000000005E
:40228000000000000000000000000000000000000000000000000000000000000000000000000000000000000000000000000000000000000000000000000000000000001E
:4022C00000000000000000000000000000000000000000000000000000000000000000000000000000000000000000000000000000000000000000000000000000000000DE
:40230000000000000000000000000000000000000000000000000000000000000000000000000000000000000000000000000000000000000000000000000000000000009D
:020000040001F9
:0200000490303A
:02000000EF27E8
:0200000490402A
:4000000000000000000000000000000000000000000000000000000000000000000000000000000000000000000000000000000000000000000000000000000000000000C0
:400040000000000000000000000000000000000000000000000000000000000000000000000000000000000000000000000000000000000000000000000000000000000080
:0200000490501A
:0C0000000002112D11A10001113900C8EF
:0200000490600A
:0100000001FE
:00000001FF