:400000000040002011000000610600006106000010B500F02DFBC04610B51222164B1A60302000F025FF154A154B1A60154A164B1A60164B164A1A6080218900154A1160BE
:40004000154A1A6080221206144B1A608022D202134B1A604122134B1A60013A124B1A601249072000F03AFE072000F021FE00220F4B1A6010BDC0463000104006000080CA
:4000800004010B4000BF1200040301400000014041FF00800003014040FF008008010B4000010B402C01014014010140C50F00000C020B4010B572B600240FE03A4862005E
:4000C000131959000B00411889881A5AC31858880004104300F0BEFA0134E4B2012CEDD9314801000C31683000F08AFACC2292012E4B1A60F02212062D4B1A602D4A2E4BD7
:400100001A602E4A2E4B1A6099231B042D4A1360D42189032C4A11602C4A13602C4A1360B022D2032B4B1A602B490B783C22934314221343DBB20B70284A117816230B4303
:40014000DBB213700C22264B1A60264A264B1A600F22264B1A608023254A13602549264A1160264A13600322254B1A60254A264B1A60C0225202254B1A608022D200244BBC
:400180001A608C221202234B1A600523224A1360C7214900214A1160214A1360FFF73CFF00F048FA10BDC0468C130000000002400002024033EE000000030240FF0F00005A
:4001C0000006024000500F4008500F4020500F4030500F4038500F4001700F4000700F40000004409B0D0000080004400C00044000020440B66DDB00080204401802044015
:4002000000030440B60D000008030440080404400C0404400805044000060440080604401806044010B5064C2378002B07D1054B002B02D0044800E000BF0123237010BD01
:40024000600100200000000034130000084B10B5002B03D00749084800E000BF07480368002B00D110BD064B002BFBD09847F9E7000000006401002034130000C00000202C
:400280000000000070B504000D0020231A43027000F07EFA2900200000F0DCFA044B1B68DB07FBD5024B1B68DB07FBD470BDC0462400274010B598B010AC6123237000F0EC
:4002C00067FA1121200000F0C5FA5A4B1B68DB07FBD5584B1B68DB07FBD4002405E000F03DFAA2000AABD0500134052CF7DD00F04FFA10A8402343704F4BDA790221FFF7FD
:40030000C1FF0B9B472B2AD002D8422B49D08BE0522B02D0592B66D086E00F9B002B15D10D9A0E9B91008A185100CB18434A9446634401930198013800F0A6FE00F0F8FE51
:40034000002000F009FC002302936DE0632000F09BFE00F0EDFE002000F0FEFB64E00F9B002B15D10D9A0E9B91008A185100CB18324A9446634403930398013800F084FEE4
:4003800000F0D6FE012000F0E7FB002304934BE0632000F079FE00F0CBFE012000F0DCFB42E00F9B002B15D10D9A0E9B91008A185100CB18214A9446634405930598013828
:4003C00000F062FE00F0B4FE022000F0C5FB0023069329E0632000F057FE00F0A9FE022000F0BAFB20E00F9B002B15D10D9A0E9B91008A185100CB18104A94466344079367
:400400000798013800F040FE00F092FE032000F0A3FB0023089307E0632000F035FE00F087FE032000F098FB002227236B441A7018B010BD24002740C4000020F0FDFFFF8B
:4004400030B589B0FF236A465370404C227902216846FFF717FF23236A465370A27902216846FFF70FFF10256B465D70627C02216846FFF707FF6B465D70A27C0221684651
:40048000FFF700FF0D3D6B465D70627802216846FFF7F8FE0C236A465370227802216846FFF7F0FE6B465D70A27802216846FFF7E9FE0F236A465370227802216846FFF7AB
:4004C000E1FE48236A465370627902216846FFF7D9FE002307E05A1C1D49CB1823331B7869468B541300042BF5DD184B9A7A06216846FFF7C7FE002303E00133C22269469E
:40050000CA54042BF9DD114BDA7A06216846FFF7B9FE002307E05A1C0D49CB1823331B7869468B541300042BF5DD084C227C06216846FFF7A7FE70236A465370E27902213C
:400540006846FFF79FFE09B030BDC046C40000203813000010B5FFF773FF002010BDC04600B587B062B600F0D3FA00F0E7F800F0DFFD632000F080FD002000F085FD002041
:4005800000F0EAFA00F012FB00F050FB002000F0D7FA642000F0DAFBFFF752FF012000F0CFFA07E000F0C4FA002803D101230193FFF780FE114B1B68002BF3D000220F4BDE
:4005C0001A6001E000F0B4FA0C4B1B68002BF9D000220A4B1A6005E000F0AAFA002801D1FFF768FE054B1B68002BF5D00022034B1A60002102A8FFF7ADFFDBE77C010020FB
:40060000F0B50025002711E0BB00C658F3B2FF22964308E06A008A181478A419527822700135013BDBB2002BF4D10137042FEBD9F0BDC0460323044A1360044A136000222C
:40064000034B1A607047C0463000304030003140000E3F4010B50A00002100F063FE10BD10B500F033FE03680C2B00D1FEE7FEE770B50F4E0F4D13E029686B68AC6800228B
:4006800002E001C901C30432A242FAD1E868002202E0002102C304328242FAD11035013E002EE9D100F018FEFFF75AFFFEE7C046010000005C14000010B50E4A136801210F
:4006C0008B43136000230AE0032B03D89A000A49505800E009489900094A885001332F2BF2D9FFF7E7FC034A116801230B43136010BDC046000010400000000061060000B2
:400700000000002010B50B2000F0D2FA10BDC04610B500F0ABF810BD10B500F0D1F810BD10B5054A1368802109060B431360FFF7E9FFFFF7EDFF10BD0000274010B5064BA0
:400740001B78002B04D1FFF7E7FF0122024B1A70FFF7E6FF10BDC04684010020094B1A68094B1B689A420BD0074B1B680133212B00D10023054AD05CC0B2034A136000E083
:4007800000207047C001002010020020E801002010B50B2000F096FA0B4B1A680B4B1A6000220B4B1A700B4B1A68802149020A431A601968084A0A401A60084A084B1A60EB
:4007C0000B2000F075FA10BD10020020C0010020BC01002004032740FFFFFEFFED0F0000C00F2740144B1A68144B1B689A4208D1134B1B681F221340082B02D0114B186051
:4008000019E00D4B1A680132202A00D100220B4B1B689A42FBD002230B490B60C0B20B49885405490A600A4A1268134203D1084A11680B4313607047C40100200C0200206A
:400840000802274040022740800F2740C8010020880F274070B506000D00002403E0305DFFF7C0FF0134AC42F9D370BD084A1368F02109010B431360064A1368F021090650
:400880000B431360044B1A88044B1A607047C04600060240000202408C010020880F274005490A68054B1A408006C0231B051840104308607047C04620002740FFFFFFF38F
:4008C00010B51D4A1D4B1A601D4A1E4B1A601E4B1E4A136007211E4A11601E4A136000241D4B1C600B2000F0EDF903210B2000F007FA1A490B2000F0F1F9194B1C60194B8B
:400900001C60194B1C60194B1C600422184B1A60184B1C601A68184B1A800020FFF7C0FF164B1C60164B1C60164B1C70164B1C60164B1C6010BDC0460F000001000027409A
:400940000100008020002740070100800003274004032740000227400402274071110000880E2740C80E2740480F2740080F2740C80F2740880F27408C010020C001002077
:4009800010020020BC010020C40100200C02002010B50B4C226860239A4322602268513B9A432260226810230343D8B210432060012000F09DFA236810229343236010BD2D
:4009C00000020440F8B5274A13687F218B43136025490B681B0B1B03244803430B60136820218B431360116840230B431360CA277F00002000F07CFA1A4C236810263343C8
:400A00002360012000F074FA194B1D682368B3432360002000F06CFA08231D40236833432360012000F064FA2368B3432360002D02D10A2000F05CFA013F002D01D0002FF5
:400A4000D7D1084B1A6840218A431A601A683F318A431A60044A13681B0B1B0305490B431360F8BD00020440080204404902000004020440B60D000010B50400FFF7A2FFFB
:400A80002009FFF785FF0F202040FFF781FF10BD10B5282000F05AF90320FFF779FF052000F054F90320FFF773FF0F2000F04EF90320FFF76DFF012000F048F90220FFF79E
:400AC00067FF052000F042F90620FFF7D5FF0E20FFF7D2FF2C20FFF7CFFF0820FFF7CCFF0120FFF7C9FF0C20FFF7C6FF0320FFF7C3FF052000F02AF910BDC04610B50C20C5
:400B0000FFF7BAFF0122014B1A7010BD8E01002010B5064B5B78002B04D1FFF7B9FF0122024B5A70FFF7EAFF10BDC0468E010020024B1868400901231840704704050440C9
:400B400004490A68D2B208239A43C000184010430860704700050440014B18707047C04672000F407047C046014B18647047C0460000002010B5040000F0F3FA044A136834
:400B8000C0218B43A4011C43146000F0EEFA10BD00E400E00122014B1A60704700E100E00122014B1A60704780E100E010B5FFF7F7FF0448FFF7D8FF0320FFF7DBFFFFF7B0
:400BC000E9FF10BD650B000010B5642000F090F900F040FB012802D10122024B1A6000F041FB10BD7C010020014B18657047C0460000002010B5040000F0B3FA044A136892
:400C0000C0218B43A4011C43146000F0AEFA10BD04E400E01022014B1A60704700E100E01022014B1A60704780E100E010B5FFF7F7FF0448FFF7D8FF0320FFF7DBFFFFF74D
:400C4000E9FF10BDC90B000000230AE00D4A12683F210A400C49C95C8A4201D1033303E001332D2BF2D9032308490868084A02400A60084A944663441B78DBB2064A136040
:400C80007047C0462CFF0B400814000000002240FFFFFFBFCDF1FF0F28FF0B40034B18688023DB05184000D001207047000022401F2318401E3B8340014A13607047C046A5
:400CC00000E100E01F2318401E3B8340014A13607047C04680E100E001BE704770B504000D001F2802D90020FFF7F6FF1034A40080239B059C4664442068256070BDC046F3
:400D000070B504000E00032902D90020FFF7E4FF1F2C02D90020FFF7DFFF03252540ED00063500F01EFAA408A400074B9C46644421680323AB4099430B003100A940194382
:400D4000216000F012FA70BD00E400E010B5040006E0084B586800F0FBF9074B9C46644480231B029C42F4D8024B9868604300F0EFF910BDE00000200080FFFF70B582B0AF
:400D800000F0CAF800285DD000F0EBF9050000230AE02D4A12683F210A402C49C95C8A4201D1033303E001332D2BF2D903230021274A1160274A1268D20606D12548026869
:400DC0001F318A4313390A430260234C2168234A1140234A5A438023DB019C466244D20B013A5205520D0B001343A0225203134323601C4B1B680193302000F03DFA1A4A9C
:400E000013688021C9050B4313602668174B1E40002407E00120FFF799FF1034A30533430D4A1360EE2CF5D90120FFF78FFFFF239B051E43084B1E60019A0A4B1A602800C0
:400E400000F093F902B070BD2CFF0B400814000028FF0B4034FF0B400800224000F800C040420F003000104000002240FFFF3FC030B587B0040000F074F90500FFF70EFF7E
:400E8000002803D0FFF7E0FE012100E00021104B1B6800930F4B1B680193033C0E4B1B5D02930E4B1B68039304AA0D4B04936B4605930C4B1A600C480C4A10601B680129C9
:400EC00001D1FFF75BFF280000F04FF907B030BD08010B4000010B400814000030001040B6EA000008001040170000800400104010B5034B1B7B584300F02AF910BDC04683
:400F0000E0000020034B1868C0231B02184000D00120704700010B40034B1B68002B01DA012000E0002070470000224010B500F018F9044A1368C02109020B43136000F05A
:400F400014F910BD00010B4010B500F00AF908490A68084B1A408024E40122430A600A6813408022120213430B6000F0FEF810BD00010B40FF3FFFFF70B5050000F0F1F851
:400F80000400FFF7BFFF002803D0FFF7DDFF012100E0002108482840084A1568084B2B40184310601368012901D1FFF7BFFF200000F0DBF870BDC0460404040010020B40CF
:400FC000FBFBFBFF10B5244B1B685B0715D5234B5B685B070ED5224B596A042001401F4C62688A4362605A6A82435A629B69002B00D098470420FFF7BFFF174B1B685B05EF
:4010000018D5164B5B685B0510D5154B596A8022D2001140114842688A434260596A114A0A405A62DB69002B00D098478020C000FFF7A2FF084B1B685B030CD5074B5B689D
:401040005B0304D5064B1B6A002B00D098478020C002FFF791FF10BD10020B40F400002090010020FFFBFFFF0004000C014B18607047C046080120400004000C014B1860EC
:401080007047C046140120400004000C014B18607047C0460C01204070B504000D0000F060F8AC40024B1C6000F05FF870BDC0460800204010B500F054F8064A11680123FD
:4010C0000B43136000F051F818210120FFF7E4FF10BDC04600002040014B18607047C0463801204010B50E4C8023DB042360236823600020FFF7B8FF236823600C22094BE7
:401100001A600120FFF7E8FF3122074B1A60074C2000FFF7B1FF2000FFF7B6FF10BDC046000120402401204028012040FFFF000010B5064B1B78002B04D1FFF7D3FF012260
:40114000024B1A70FFF7B6FF10BDC046B80100200230800803D00138FDD1C046C046C0467047EFF3108072B6704780F31088704710B5274B1B68002B00D09847254B1B684A
:401180005B071DD5244B1B680133212B00D10023224A1268934205D1214B1B682022214B1A7006E01E4A1268D2B21F49CA541A4A13601E4B1B68DB06E4D104221C4B1A608B
:4011C0001C4B1B689B0721D51B4B1A681B4B1B689A4213D0194B1B680133202B00D10023174AD25CD2B217490A60144A1360164B1B681F221340082BE6D104E0134A1368B7
:4012000002218B4313600222114B1A6010BDC04688010020CC0F2740C00100201002002040032740BC010020E801002008032740C00F27408C0F2740C40100200C02002032
:40124000C80100204002274008022740880F2740800F2740024B1868400901231840704704040440034A10682023184010604009C0B270471004044070B50400FFF771FFB9
:401280000500102C05D8104A136803218B43136016E0202C07D80C490B6803229343023A13430B600CE0302C07D807490B6803229343013A13430B6002E00020FFF70CFD13
:4012C0002800FFF752FF70BD30001040014B18687047C0465C0100200E4B70B500251E000D4CE41AA410A54204D0AB00F35898470135F8E700F0A0F8084B00251E00084CE9
:40130000E41AA410A54204D0AB00F35898470135F8E770BD4414000044140000441400004C14000003008218934202D019700133FAE770470000000011111111112222226D
:4013400022223333333333444444444455555555556666666666777777777788888888889999999999AAAAAAAAAABBBBBBBBBBCCCCCCCCCCDDDDDDDDDD0000001018202881
:4013800030384048505860687000000000300F40000400400F4000041A0F28032A0C2C062E0930023201340436083E5558045B045F010E0815501D021E111F206D5085027F
:4013C0008B208E149601AE01C240C4C0E002E28051205602D420D6208A029E02AD20EA10190852105B2086108D088F20C608D405E202E4080D320F400F330F4004400F40E9
:4014000004410F400A430F40030405060708090A0B0C0E0F101112131415161718191B1C1D1E1F2021222325262728292A2B2E2F3031323334354300F8B5C046F8BC08BC1E
:401440009E4670474D020000B9060000F8B5C046F8BC08BC9E4670472502000070140000C0000020A0000000B80000000000000000000000000102030405060708090A0BD8
:401480000C0D0E0F10111213141516171C1D0000010000000000C05D80BB000030000000006CDC02F000000004040400000000000000000000000000000000000000000052
:4014C00000000000000000000000000036140000000000000000000000000000000000000000000000000000000000000000000000000000000000000000000000000000A2
:40150000000000000000000000000000FC0000200000000000000000000000000000000000000000000000000000000000000000000000000000000000000000000000008F
:40154000000000000000000000000000000000000000000000000000000000000000000000000000000000000000000000000000000000000000000000000000000000006B
:40158000000000000000000000000000000000000000000000000000000000000000000000000000000000000000000000000000000000000000000000000000000000002B
:4015C00000000000000000000000000000000000000000000000000000000000000000000000000000000000000000000000000000000000000000000000000000000000EB
:4016000000000000000000000000000000000000000000000000000000000000000000000000000000000000000000000000000000000000000000000000000000000000AA
:020000040001F9
:0200000490303A
:02000000B40347
:0200000490402A
:4000000000000000000000000000000000000000000000000000000000000000000000000000000000000000000000000000000000000000000000000000000000000000C0
:400040000000000000000000000000000000000000000000000000000000000000000000000000000000000000000000000000000000000000000000000000000000000080
:0200000490501A
:0C0000000002112D11A100011133C5A454
:0200000490600A
:0100000001FE
:00000001FF