:400000000040002011000000290B0000290B000010B500F0A9FDC04610B51222164B1A60302001F029FA154A154B1A60154A164B1A60164B164A1A6080218900154A1160A6
:40004000154A1A6080221206144B1A608022D202134B1A604122134B1A60013A124B1A601249072001F03EF9072001F025F900220F4B1A6010BDC0463000104006000080CA
:4000800004010B4000BF1200040301400000014041FF00800003014040FF008008010B4000010B402C01014014010140CD1500000C020B4010B572B600240FE03A48620050
:4000C000131959000B00411889881A5AC31858880004104300F022FD0134E4B2012CEDD9314801000C31683000F0EEFCCC2292012E4B1A60F02212062D4B1A602D4A2E4B0A
:400100001A602E4A2E4B1A6099231B042D4A1360D42189032C4A11602C4A13602C4A1360B022D2032B4B1A602B490B783C22934314221343DBB20B70284A117816230B4303
:40014000DBB213700C22264B1A60264A264B1A600F22264B1A608023254A13602549264A1160264A13600322254B1A60254A264B1A60C0225202254B1A608022D200244BBC
:400180001A608C221202234B1A600523224A1360C7214900214A1160214A1360FFF73CFF00F0ACFC10BDC04678230000000002400002024033EE000000030240FF0F0000F8
:4001C0000006024000500F4008500F4020500F4030500F4038500F4001700F4000700F40000004409B0D0000080004400C00044000020440B66DDB00080204401802044015
:4002000000030440B60D000008030440080404400C0404400805044000060440080604401806044010B5064C2378002B07D1054B002B02D0044800E000BF0123237010BD01
:400240006801002000000000F0220000084B10B5002B03D00749084800E000BF07480368002B00D110BD064B002BFBD09847F9E7000000006C010020F0220000C000002086
:400280000000000070B504000D0020231A43027000F0FAFC2900200000F058FD044B1B68DB07FBD5024B1B68DB07FBD470BDC0462400274010B59EB016AC6123237000F0E3
:4002C000E3FC1121200000F041FD7C4B1B68DB07FBD57A4B1B68DB07FBD4002405E000F0B9FCA20010ABD0500134052CF7DD00F0CBFC16A840234370714BDA790221FFF792
:40030000C1FF00F0C1FC119B472B3CD002D8422B6CD0D0E0522B03D0592B00D199E0CAE0149B002B0DD1139B303B0093009801F0AFF901F001FA002000F0C6FE002301931F
:40034000B9E0159B002B15D1139A149B91008A185100CB185B4A9446634402930298013801F096F901F0E8F9002000F0ADFE00230393A0E0632001F08BF901F0DDF90020AD
:4003800000F0A2FE97E0149B002B0DD1139B303B0493049801F07CF901F0CEF9012000F093FE0023059386E0159B002B15D1139A149B91008A185100CB18424A94466344C0
:4003C00006930698013801F063F901F0B5F9012000F07AFE002307936DE0632001F058F901F0AAF9012000F06FFE64E0149B002B0DD1139B303B0893089801F049F901F0C3
:400400009BF9022000F060FE0023099353E0159B002B15D1139A149B91008A185100CB18284A944663440A930A98013801F030F901F082F9022000F047FE00230B933AE01F
:40044000632001F025F901F077F9022000F03CFE31E0149B002B0DD1139B303B0C930C9801F016F901F068F9032000F02DFE00230D9320E0159B002B15D1139A149B910017
:400480008A185100CB180F4A944663440E930E98013801F0FDF801F04FF9032000F014FE00230F9307E0632001F0F2F801F044F9032000F009FE1EB010BDC046240027404A
:4004C000C4000020F0FDFFFF70B588B00400FF236A465370494D2A7902216846FFF7D2FE23236A465370AA7902216846FFF7CAFE10266B465E706A7C02216846FFF7C2FEDA
:400500006B465E70AA7C02216846FFF7BBFE0D3E6B465E706A7802216846FFF7B3FE0C236A4653702A7802216846FFF7ABFE6B465E70AA7802216846FFF7A4FE0E236A46D3
:4005400053702A7802216846FFF79CFE0C2C09D82B4B1B5D6A465370284B5A7902216846FFF790FE002309E0591CA200121924488218D3181B7C6A4653540B00042BF3DD69
:400580001E4B9A7A06216846FFF77CFE002307E05A1C1B49CB1833331B7869468B541300042BF5DD154BDA7A06216846FFF76AFE002309E0591CA200121911488218D31804
:4005C0001B7C6A4653540B00042BF3DD0B4C227C06216846FFF756FE70256B465D70E27902216846FFF74EFE6B465D70E27902216846FFF747FE08B070BDC046C4000020BA
:40060000F422000030B589B0FF236A465370404C227902216846FFF735FE23236A465370A27902216846FFF72DFE10256B465D70627C02216846FFF725FE6B465D70A27CF3
:4006400002216846FFF71EFE0D3D6B465D70627802216846FFF716FE0C236A465370227802216846FFF70EFE6B465D70A27802216846FFF707FE0F236A4653702278022145
:400680006846FFF7FFFD48236A465370627902216846FFF7F7FD002307E05A1C1D49CB1833331B7869468B541300042BF5DD184B9A7A06216846FFF7E5FD002303E0013364
:4006C000C2226946CA54042BF9DD114BDA7A06216846FFF7D7FD002307E05A1C0D49CB1833331B7869468B541300042BF5DD084C227C06216846FFF7C5FD70236A4653701C
:40070000E27902216846FFF7BDFD09B030BDC046C4000020F422000070B596B004000800FFF7D2FEA02206AB1A70002303E0013306A9CA54DBB2102B02D8E25C0B2AF6D11A
:4007400000F0A2FA112106A800F000FB234B1B68DB07FBD5214B1B68DB07FBD4642000F0F9FD1F4BDB7906AC237000F08DFA0121200000F0EBFA194B1B68DB07FBD5174BE9
:400780001B68DB07FBD4002405E000F063FAA3006A4698500134002CF7DD00F075FA009B20241C402500009B10241C400EA8702343700B4BDA790221FFF764FD002D01D038
:4007C000002600E00126002C00D102262C4300D10326FFF717FF300016B070BD24002740C4000020F0B59DB062B600F049FC00F021FA00F0A1FF632000F042FF002000F002
:4008000047FF002000F060FC00F0D4FC00F012FD002000F04DFC642000F09CFDFFF7F2FE012000F045FC0023179313A842220270223A427011328270013AC2700271437174
:400840000C21FFF769FF179005AC0023A372964800F0BCFB0023954A0B21200001F014F900242BE000F01CFC002801D1FFF722FD8F4B1B68002B21D08D4B5B68012B04D131
:400880000C2C01D0013400E00024894B5B68022B04D1002C01D0013C00E00C24844B00225A601A602300814A0B2105A801F0ECF8012000F099FB05A800F088FB7C4B9B68C3
:4008C000002BCFD000237A4A9360282208A98B5410E005AAD25C002A03D1202108AAD15407E00B2B03D9202108AAD15401E008A9CA540133272BECD9012000F075FB08A85A
:4009000000F064FB6B4D280000F060FB012000F06BFB08A800F05AFB280000F057FB002548E000F0BDFB002801D1FFF7C3FC604B1B68002B3ED05E4B5B68012B04D1032DBF
:4009400001D0013500E00025594B5B68022B04D1002D01D0013D00E00325554B00225A601A60012000F040FB012D0FD002DC002D05D01FE0022D10D0032D15D01AE008A8C2
:4009800000F024FB4B4800F021FB13E008A800F01DFB494800F01AFB0CE008A800F016FB464800F013FB05E008A800F00FFB444800F00CFB3E4B9B68002BB2D000223C4B2B
:4009C0009A60012D0CD002DC002D05D013E0022D0AD0032D0CD00EE0522218AB1A700AE0472218AB1A7006E0422218AB1A7002E0592218AB1A70012000F0F6FA08A800F0DA
:400A0000E5FA03AD00236B7118AB1B78322200922C4A0621280001F037F8280000F0D6FA32262CE000F03CFB002801D1FFF742FC1F4B1B68002B22D01D4B5B68012B02D132
:400A4000642E00D001361A4B5B68022B02D1002E00D0013E164B00225A601A60012000F0C3FA08A800F0B2FA18AB1B780096154A062103A801F008F803A800F0A7FA0C4B06
:400A80009B68002BCED00027094B9F6018AD2B7800960C4A0621280000F0F6FF6F7121002800FFF739FECFE648230000542300008401002060230000642300006823000041
:400AC0006C23000070230000F0B50025002711E0BB00C658F3B2FF22964308E06A008A181478A419527822700135013BDBB2002BF4D10137042FEBD9F0BDC0460323044A9C
:400B00001360044A13600022034B1A607047C0463000304030003140000E3F4010B50A00002100F0A8FF10BD10B500F06FFF03680C2B00D1FEE7FEE710B50300084A1068C6
:400B4000C318084A9A1A802A02DC054A136005E000F05CFF0C2303600120404210BDC046E00000203002002070B50F4E0F4D13E029686B68AC68002202E001C901C30432AF
:400B8000A242FAD1E868002202E0002102C304328242FAD11035013E002EE9D100F03CFFFFF720FEFEE7C046010000007C24000010B50E4A136801218B43136000230AE048
:400BC000032B03D89A000A49505800E009489900094A885001332F2BF2D9FFF76BFA034A116801230B43136010BDC0460000104000000000290B00000000002010B50B209C
:400C000000F05AFB10BDC04610B500F0ABF810BD10B500F0D1F810BD10B5054A1368802109060B431360FFF7E9FFFFF7EDFF10BD0000274010B5064B1B78002B04D1FFF799
:400C4000E7FF0122024B1A70FFF7E6FF10BDC04690010020094B1A68094B1B689A420BD0074B1B680133212B00D10023054AD05CC0B2034A136000E000207047D40100202F
:400C800024020020FC01002010B50B2000F01EFB0B4B1A680B4B1A6000220B4B1A700B4B1A68802149020A431A601968084A0A401A60084A084B1A600B2000F0FDFA10BD0E
:400CC00024020020D4010020D001002004032740FFFFFEFFED0F0000C00F2740144B1A68144B1B689A4208D1134B1B681F221340082B02D0114B186019E00D4B1A68013261
:400D0000202A00D100220B4B1B689A42FBD002230B490B60C0B20B49885405490A600A4A1268134203D1084A11680B4313607047D801002020020020080227404002274029
:400D4000800F2740DC010020880F274070B506000D00002403E0305DFFF7C0FF0134AC42F9D370BD084A1368F02109010B431360064A1368F02109060B431360044B1A889F
:400D8000044B1A607047C046000602400002024098010020880F274005490A68054B1A408006C0231B051840104308607047C04620002740FFFFFFF310B51D4A1D4B1A6022
:400DC0001D4A1E4B1A601E4B1E4A136007211E4A11601E4A136000241D4B1C600B2000F075FA03210B2000F08FFA1A490B2000F079FA194B1C60194B1C60194B1C60194B3A
:400E00001C600422184B1A60184B1C601A68184B1A800020FFF7C0FF164B1C60164B1C60164B1C70164B1C60164B1C6010BDC0460F0000010000274001000080200027404D
:400E4000070100800003274004032740000227400402274079170000880E2740C80E2740480F2740080F2740C80F2740880F274098010020D401002024020020D001002015
:400E8000D80100202002002010B50B4C226860239A4322602268513B9A432260226810230343D8B210432060012000F025FB236810229343236010BD0002044070B5050016
:400EC0000E4C22682023134323602368402293432360002000F010FB23680F2293432360226810232B43D8B210432060012000F003FB236810229343236070BD000204405C
:400F0000F8B5274A13687F218B43136025490B681B0B1B03244803430B60136820218B431360116840230B431360CA277F00002000F0E2FA1A4C23681026334323600120BE
:400F400000F0DAFA194B1D682368B3432360002000F0D2FA08231D40236833432360012000F0CAFA2368B3432360002D02D10A2000F0C2FA013F002D01D0002FD7D1084BC1
:400F80001A6840218A431A601A683F318A431A60044A13681B0B1B0305490B431360F8BD00020440080204404902000004020440B60D000010B50400FFF7A2FF2009FFF792
:400FC0007DFF0F202040FFF779FF10BD70B505000078012404E0FFF7EDFF285D0134E4B20028F8D170BDC04610B50400FFF788FF2009FFF749FF0F202040FFF745FF10BD67
:4010000010B5282000F0A6F90320FFF73DFF052000F0A0F90320FFF737FF0F2000F09AF90320FFF731FF012000F094F90220FFF72BFF052000F08EF90620FFF7D5FF0E202D
:40104000FFF7D2FF2C20FFF7CFFF0820FFF7CCFF0120FFF7C9FF0C20FFF7C6FF0320FFF7C3FF052000F076F910BDC04610B50C20FFF7BAFF0122014B1A7010BD9A01002097
:4010800010B5064B5B78002B04D1FFF7B9FF0122024B5A70FFF7EAFF10BDC0469A010020024B186840090123184070470405044004490A68D2B208239A43C00018401043A6
:4010C0000860704700050440014B18707047C04672000F4010B584B000F0C0FB0390002400E0013400F0BAFB039B984202D11D4B9C42F6DD00F0B2FB0290002400E0013455
:4011000000F0ACFB029B984202D1164B9C42F6DD00F0A4FB0190002400E0013400F09EFB019B984202D10F4B9C42F6DD039B012B08D1019B022B05D1013B0B4A13600B4AEB
:4011400013600BE0039B022B08D1019B012B05D10122054B1A600132044B1A6000F086FB04B010BD9F8601008401002088010020014B18647047C0460000002010B5040012
:4011800000F0F3FA044A1368C0218B43A4011C43146000F0EEFA10BD00E400E00122014B1A60704700E100E00122014B1A60704780E100E010B5FFF7F7FF0448FFF7D8FFED
:4011C0000320FFF7DBFFFFF7E9FF10BDD510000010B5642000F090F900F050FB012802D10122024B1A6000F051FB10BD8C010020014B18657047C0460000002010B5040064
:4012000000F0B3FA044A1368C0218B43A4011C43146000F0AEFA10BD04E400E01022014B1A60704700E100E01022014B1A60704780E100E010B5FFF7F7FF0448FFF7D8FFCA
:401240000320FFF7DBFFFFF7E9FF10BDD111000000230AE00D4A12683F210A400C49C95C8A4201D1033303E001332D2BF2D9032308490868084A02400A60084A9446634426
:401280001B78DBB2064A13607047C0462CFF0B40F423000000002240FFFFFFBFCDF1FF0F28FF0B40034B18688023DB05184000D001207047000022401F2318401E3B83403C
:4012C000014A13607047C04600E100E01F2318401E3B8340014A13607047C04680E100E001BE704770B504000D001F2802D90020FFF7F6FF1034A40080239B059C466444B2
:401300002068256070BDC04670B504000E00032902D90020FFF7E4FF1F2C02D90020FFF7DFFF03252540ED00063500F01EFAA408A400074B9C46644421680323AB409943BD
:401340000B003100A9401943216000F012FA70BD00E400E010B5040006E0084B586800F0FBF9074B9C46644480231B029C42F4D8024B9868604300F0EFF910BDE4000020F9
:401380000080FFFF70B582B000F0CAF800285DD000F0EBF9050000230AE02D4A12683F210A402C49C95C8A4201D1033303E001332D2BF2D903230021274A1160274A126814
:4013C000D20606D1254802681F318A4313390A430260234C2168234A1140234A5A438023DB019C466244D20B013A5205520D0B001343A0225203134323601C4B1B680193EB
:40140000302000F04DFA1A4A13688021C9050B4313602668174B1E40002407E00120FFF799FF1034A30533430D4A1360EE2CF5D90120FFF78FFFFF239B051E43084B1E6061
:40144000019A0A4B1A60280000F093F902B070BD2CFF0B40F423000028FF0B4034FF0B400800224000F800C040420F003000104000002240FFFF3FC030B587B0040000F060
:4014800074F90500FFF70EFF002803D0FFF7E0FE012100E00021104B1B6800930F4B1B680193033C0E4B1B5D02930E4B1B68039304AA0D4B04936B4605930C4B1A600C48C1
:4014C0000C4A10601B68012901D1FFF75BFF280000F04FF907B030BD08010B4000010B40F423000030001040B6EA000008001040170000800400104010B5034B1B7B5843F5
:4015000000F02AF910BDC046E4000020034B1868C0231B02184000D00120704700010B40034B1B68002B01DA012000E0002070470000224010B500F018F9044A1368C02126
:4015400009020B43136000F014F910BD00010B4010B500F00AF908490A68084B1A408024E40122430A600A6813408022120213430B6000F0FEF810BD00010B40FF3FFFFF92
:4015800070B5050000F0F1F80400FFF7BFFF002803D0FFF7DDFF012100E0002108482840084A1568084B2B40184310601368012901D1FFF7BFFF200000F0DBF870BDC0462F
:4015C0000404040010020B40FBFBFBFF10B5244B1B685B0715D5234B5B685B070ED5224B596A042001401F4C62688A4362605A6A82435A629B69002B00D098470420FFF783
:40160000BFFF174B1B685B0518D5164B5B685B0510D5154B596A8022D2001140114842688A434260596A114A0A405A62DB69002B00D098478020C000FFF7A2FF084B1B68E8
:401640005B030CD5074B5B685B0304D5064B1B6A002B00D098478020C002FFF791FF10BD10020B40F80000209C010020FFFBFFFF0004000C014B18607047C0460801204056
:401680000004000C014B18607047C046140120400004000C014B18607047C0460C01204070B504000D0000F060F8AC40024B1C6000F05FF870BDC0460800204010B500F05C
:4016C00054F8064A116801230B43136000F051F818210120FFF7E4FF10BDC04600002040014B18607047C0463801204010B50E4C8023DB042360236823600020FFF7B8FF38
:40170000236823600C22094B1A600120FFF7E8FF3122074B1A60074C2000FFF7B1FF2000FFF7B6FF10BDC046000120402401204028012040FFFF000010B5064B1B78002B8A
:4017400004D1FFF7D3FF0122024B1A70FFF7B6FF10BDC046C40100200230800803D00138FDD1C046C046C0467047EFF3108072B6704780F31088704710B5274B1B68002B1A
:4017800000D09847254B1B685B071DD5244B1B680133212B00D10023224A1268934205D1214B1B682022214B1A7006E01E4A1268D2B21F49CA541A4A13601E4B1B68DB069F
:4017C000E4D104221C4B1A601C4B1B689B0721D51B4B1A681B4B1B689A4213D0194B1B680133202B00D10023174AD25CD2B217490A60144A1360164B1B681F221340082B68
:40180000E6D104E0134A136802218B4313600222114B1A6010BDC04694010020CC0F2740D40100202402002040032740D0010020FC01002008032740C00F27408C0F274070
:40184000D801002020020020DC0100204002274008022740880F2740800F2740024B1B68032018407047C04604000440024A1068032318401060704710000440024B186848
:40188000400901231840704704040440034A10682023184010604009C0B270471004044070B50400FFF761FF0500102C05D8104A136803218B43136016E0202C07D80C4979
:4018C0000B6803229343023A13430B600CE0302C07D807490B6803229343013A13430B6002E00020FFF7FCFC2800FFF742FF70BD30001040002243088B4274D303098B4246
:401900005FD3030A8B4244D3030B8B4228D3030C8B420DD3FF22090212BA030C8B4202D31212090265D0030B8B4219D300E0090AC30B8B4201D3CB03C01A5241830B8B4226
:4019400001D38B03C01A5241430B8B4201D34B03C01A5241030B8B4201D30B03C01A5241C30A8B4201D3CB02C01A5241830A8B4201D38B02C01A5241430A8B4201D34B02B9
:40198000C01A5241030A8B4201D30B02C01A5241CDD2C3098B4201D3CB01C01A524183098B4201D38B01C01A524143098B4201D34B01C01A524103098B4201D30B01C01AEE
:4019C0005241C3088B4201D3CB00C01A524183088B4201D38B00C01A524143088B4201D34B00C01A5241411A00D20146524110467047FFE701B5002000F006F802BDC04665
:401A00000029F7D076E770477047C046014B18687047C046600100200E4B70B500251E000D4CE41AA410A54204D0AB00F35898470135F8E700F010FD084B00251E00084C83
:401A4000E41AA410A54204D0AB00F35898470135F8E770BD6424000064240000642400006C240000002310B59A4203D0CC5CC4540133F9E710BD03008218934202D0197035
:401A80000133FAE7704700000CB430B5164B9DB00C1E1D6804DA8B2301202B6040421DE0822302A99B008B810023029008619C4200D0631E8B604B6101235B42CB81209AFF
:401AC00021AB2800019300F073F8431C01DA8B232B60002C02D00023029A13701DB030BC08BC02B01847C04660010020F0B58E6885B007000C00039201939E4243D8902381
:401B00008A89DB001A423ED003250969236801985B1A029363695D43EB0F5D19029B6D1001331B18AB4200D91D00530510D52900380000F037FB061E14D0029A2169FFF761
:401B400091FFA289194B134080221343A38112E02A00380000F086FB061E0CD12169380000F0D4FA0C23402201203B60A38940421343A38117E0029B2661F61826606561A7
:401B8000019EED1AA560019BB34200D21E0032000399206800F0A5FA0020A3689B1BA36023689E19266005B0F0BDC0467FFBFFFFF0B59FB0029005938B890F0016001B0610
:401BC00010D50B69002B0DD1402100F0EBFA38603861002804D10C23029A01381360D8E040237B61002306AD6B6120336B761033AB7634002378002B03D1A31B049312D072
:401C000003E0252BF9D00134F4E7A31B320039000298FFF76BFF431C00D1B4E06A69049B944663446B612378002B00D1ABE00122002352426A6002A95432521801342B60D1
:401C4000EB60AB601370AB65534E21780522300000F03CFA002807D00123801B83402A68013413432B60EFE72B68DA0604D55322202102A8121811701A0704D553222B21B3
:401C800002A81218117022782A2A03D0099B00200A210EE0059A111D12680591002A01DB099204E05242EA60022213432B6001340BE02278303A092A04D84B4301349B1843
:401CC0000120F6E7002800D0099323782E2B1ED163782A2B0AD1059B02341A1D1B680592002B01DA01235B42079310E000230A201A0001346B6021783039092904D84243F0
:401D0000013452180123F6E7002B00D00792234E21780322300000F0D9F9002806D04023801B83402A68013413432B60217806221B48661C297600F0C9F9002812D0194B82
:401D4000002B06D10722059B073393430833059314E005AB00933A00134B2900029800E000BF07E005AB00933A000F4B2900029800F08AF80390039B013304D06B69039AE7
:401D80009B186B6135E7BB890B985B0601D5012040421FB0F0BDC046242400002A2400002E24000000000000ED1A0000F7B5170001938A680B6900900C00934200DA13003B
:401DC00022003B6043321278002A01D001333B6023689B0602D53B6802333B60062523681D401ED0230043331B785A1E9341226892061CD53020E1184331087021005A1C8F
:401E000045310978A2184332023311700FE022000123193201990098089EB047431C0ED00135E3683A689B1A9D42F0DBDAE72200019943320098089DA847431C02D1012047
:401E4000404220E006232068E1683A6803400025042B03D18D1AEB43DB171D40A3682269934201DD9B1AED180027BD420AD0220001231A3201990098089EB047431CDED044
:401E80000137F2E70020FEBDF0B58BB006920A0043320793059004920A7E0C00109B6E2A00D1ABE011D8632A22D009D8002A00D1B5E0582A00D0C5E045310A70814A4FE08D
:401EC000642A1DD0692A1BD0BCE0732A00D1AAE009D86F2A29D0702A00D0B3E0202209680A43226037E0752A1FD0782A33D0A9E00E001A684236111D196013683370A4E03F
:401F000021681A68080606D4490604D5111D19600023D55E02E0111D19601568002D3BDA2D23049A6D42137036E021681A68080606D4490604D51568111D1960ADB202E08B
:401F4000111D196015685F4B227E039308276F2A1DD00A271BE022007821453211705A4A19680392081D226818600D68100602D4500600D5ADB2D30702D520231A4322602A
:401F80001027002D03D1202322689A4322602300002243331A7002E00A274A4B03936368A360002B09DB0422216891432160002D05D1049E002B11D07BE0002D79D0049E35
:401FC00028003900FFF71CFD039B013E5B5C280033703900FFF78EFC051EF1D1082F09D12368DB0706D563682269934202DC3023013E3370049B9B1B23612BE009681A6806
:40200000080607D4490605D5111D19601368A28A1A8004E0111D1960136862691A600023049E236116E01A68111D1960166800216268300000F04AF8002801D0801B6060D4
:40204000636803E0260042363270012323610023049A1370079B09AA00932100069B0598FFF7A4FE431C02D10120404227E02369320006990598079DA847431CF4D0236890
:4020800000259B070FD4099BE068984217DA180015E022000123193206990598079EB047431CE1D00135E368099A9B1A9D42F0DBE9E72600039B42361B7833708EE70BB044
:4020C000F0BDC0463524000046240000C9B28218904204D003788B4202D00130F8E70020704710B5884202D98B18984201D3002305E09B1A013A08D3995C8154FAE79342A0
:4021000003D0CC5CC4540133F9E710BD70B50500002944D00C1F2368002B00DAE418280000F0D8F81E4A13681100002B02D16360146031E0A3420DD92268A018834203D1C5
:4021400018685B688218226063600C6024E0A24203D813005A68002AF9D11E689819A0420BD12168711858181960824214D110685268411819605A600EE0A04202D90C2314
:402180002B6009E021686018824203D1106852684118216062605C60280000F09CF870BDCC010020032370B5CD1C9D43083506000C2D01D20C2501E0002D01DBA94202D97E
:4021C0000C23336048E0300000F084F8234B1C681A002100002913D00B685B1B0DD40B2B02D90B60CC181EE08C4202D1636813601AE04B6863600C0016E00C004968E9E71A
:40220000174C2368002B03D1300000F051F820602900300000F04CF8431C18D00323C41C9C43A0420DD12560300000F054F8200007220B30231D9043C31A0ED05A42E2503E
:402240000BE0211A300000F033F8431CEBD10C233000336000F03FF8002070BDCC010020C8010020F8B506000C001500002904D11100FFF797FF040018E0002A03D1FFF737
:4022800045FF2C0012E000F027F885420ED929003000FFF787FF071E07D021002A00FFF7E1FB21003000FFF731FF3C002000F8BD002370B5064C050008002360FEF73CFC32
:4022C000431C03D12368002B00D02B6070BDC04628020020704770470B1F1A68101F002A04DA891804390B68D01804387047000000000000101820283038404850586068D0
:4023000070000000111111111122222222223333333333444444444455555555556666666666777777777788888888889999999999AAAAAAAAAABBBBBBBBBBCCCCCCCCCC47
:40234000DDDDDDDDDD0000005461726765743A20300000005461726765743A202564000052000000470000004200000059000000256320256400000000300F4000040040A9
:402380000F4000041A0F28032A0C2C062E0930023201340436083E5558045B045F010E0815501D021E111F206D5085028B208E149601AE01C240C4C0E002E28051205602DC
:4023C000D420D6208A029E02AD20EA10190852105B2086108D088F20C608D405E202E4080D320F400F330F4004400F4004410F400A430F40030405060708090A0B0C0E0F67
:40240000101112131415161718191B1C1D1E1F2021222325262728292A2B2E2F3031323334354300232D302B2000686C4C0065666745464700303132333435363738394194
:40244000424344454600303132333435363738396162636465660000F8B5C046F8BC08BC9E4670474D020000B10B0000F8B5C046F8BC08BC9E467047250200009024000034
:40248000C0000020A8000000C80000000000000000000000000102030405060708090A0B0C0D0E0F10111213141516171C1D000030020020010000000000C05D80BB0000D4
:4024C00030000000006CDC02F00000000404040000000000000000000000000000000000000000000000000000000000000000002224000000000000000000000000000020
:40250000000000000000000000000000000000000000000000000000000000000000000000000000000000000000000000000000000100200000000000000000000000007A
:40254000000000000000000000000000000000000000000000000000000000000000000000000000000000000000000000000000000000000000000000000000000000005B
:40258000000000000000000000000000000000000000000000000000000000000000000000000000000000000000000000000000000000000000000000000000000000001B
:4025C00000000000000000000000000000000000000000000000000000000000000000000000000000000000000000000000000000000000000000000000000000000000DB
:40260000000000000000000000000000000000000000000000000000000000000000000000000000000000000000000000000000000000000000000000000000000000009A
:020000040001F9
:0200000490303A
:0200000031F9D4
:0200000490402A
:4000000000000000000000000000000000000000000000000000000000000000000000000000000000000000000000000000000000000000000000000000000000000000C0
:400040000000000000000000000000000000000000000000000000000000000000000000000000000000000000000000000000000000000000000000000000000000000080
:0200000490501A
:0C0000000002112D11A100011139439ADA
:0200000490600A
:0100000001FE
:00000001FF