:400000000040002011000000E5060000E506000010B500F06FFBC04610B51222164B1A60302000F0ABFF154A154B1A60154A164B1A60164B164A1A6080218900154A1160EE
:40004000154A1A6080221206144B1A608022D202134B1A604122134B1A60013A124B1A601249072000F0C0FE072000F0A7FE00220F4B1A6010BDC0463000104006000080BE
:4000800004010B4000BF1200040301400000014041FF00800003014040FF008008010B4000010B402C01014014010140D11000000C020B4010B572B600240FE03A48620051
:4000C000131959000B00411889881A5AC31858880004104300F000FB0134E4B2012CEDD9314801000C31683000F0CCFACC2292012E4B1A60F02212062D4B1A602D4A2E4B52
:400100001A602E4A2E4B1A6099231B042D4A1360D42189032C4A11602C4A13602C4A1360B022D2032B4B1A602B490B783C22934314221343DBB20B70284A117816230B4303
:40014000DBB213700C22264B1A60264A264B1A600F22264B1A608023254A13602549264A1160264A13600322254B1A60254A264B1A60C0225202254B1A608022D200244BBC
:400180001A608C221202234B1A600523224A1360C7214900214A1160214A1360FFF73CFF00F08AFA10BDC046D8140000000002400002024033EE000000030240FF0F0000CB
:4001C0000006024000500F4008500F4020500F4030500F4038500F4001700F4000700F40000004409B0D0000080004400C00044000020440B66DDB00080204401802044015
:4002000000030440B60D000008030440080404400C0404400805044000060440080604401806044010B5064C2378002B07D1054B002B02D0044800E000BF0123237010BD01
:40024000600100200000000078140000084B10B5002B03D00749084800E000BF07480368002B00D110BD064B002BFBD09847F9E7000000006401002078140000C0000020A2
:400280000000000070B504000D0020231A43027000F0C0FA2900200000F01EFB044B1B68DB07FBD5024B1B68DB07FBD470BDC0462400274070B588B00400FF236A46537041
:4002C000494D2A7902216846FFF7DCFF26236A465370AA7902216846FFF7D4FF10266B465E706A7C02216846FFF7CCFF6B465E70AA7C02216846FFF7C5FF0D3E6B465E7083
:400300006A7802216846FFF7BDFF0C236A4653702A7802216846FFF7B5FF6B465E70AA7802216846FFF7AEFF0E236A4653702A7802216846FFF7A6FF0C2C09D82B4B1B5DCB
:400340006A465370284B5A7902216846FFF79AFF002309E0591CA200121924488218D3181B7C6A4653540B00042BF3DD1E4B9A7A06216846FFF786FF002307E05A1C1B497C
:40038000CB1833331B7869468B541300042BF5DD154BDA7A06216846FFF774FF002309E0591CA200121911488218D3181B7C6A4653540B00042BF3DD0B4C227C06216846DF
:4003C000FFF760FF70256B465D70E27902216846FFF758FF6B465D70E27902216846FFF751FF08B070BDC046C40000207C14000030B589B0FF236A465370404C22790221D0
:400400006846FFF73FFF26236A465370A27902216846FFF737FF10256B465D70627C02216846FFF72FFF6B465D70A27C02216846FFF728FF0D3D6B465D7062780221684683
:40044000FFF720FF0C236A465370227802216846FFF718FF6B465D70A27802216846FFF711FF0F236A465370227802216846FFF709FF48236A465370627902216846FFF750
:4004800001FF002307E05A1C1D49CB1833331B7869468B541300042BF5DD184B9A7A06216846FFF7EFFE002303E00133C2226946CA54042BF9DD114BDA7A06216846FFF73E
:4004C000E1FE002307E05A1C0D49CB1833331B7869468B541300042BF5DD084C227C06216846FFF7CFFE70236A465370E27902216846FFF7C7FE09B030BDC046C4000020C2
:400500007C14000070B596B004000800FFF7D2FEA02206AB1A70002303E0013306A9CA54DBB2102B02D8E25C0B2AF6D100F072F9112106A800F0D0F9234B1B68DB07FBD577
:40054000214B1B68DB07FBD4062000F085FC1F4BDB7906AC237000F05DF90121200000F0BBF9194B1B68DB07FBD5174B1B68DB07FBD4002405E000F033F9A3006A46985086
:400580000134002CF7DD00F045F9009B20241C402500009B10241C400EA8702343700B4BDA790221FFF76EFE002D01D0002600E00126002C00D102262C4300D10326FFF774
:4005C00017FF300016B070BD24002740C400002030B583B0062217495431684600F03AFF002523E0012D0CD002DC002D05D013E0022D0AD0032D0CD00EE052236A461370A7
:400600000AE047236A46137006E042236A46137002E059236A46137021006846FFF772FF013400E000240C2CDCDD0135032DF9DDD6E7C0467C14000000B583B062B600F045
:40064000A9FA00F0BDF800F0F9FD632000F09AFD002000F09FFD002000F0B8FA00F02CFB00F06AFB002000F0A5FA642000F0F4FBFFF7BEFE012000F09DFA00230193FFF74F
:40068000A7FFC046F0B50025002711E0BB00C658F3B2FF22964308E06A008A181478A419527822700135013BDBB2002BF4D10137042FEBD9F0BDC0460323044A1360044A95
:4006C00013600022034B1A607047C0463000304030003140000E3F4010B50A00002100F0C2FE10BD10B500F089FE03680C2B00D1FEE7FEE770B50F4E0F4D13E029686B68F7
:40070000AC68002202E001C901C30432A242FAD1E868002202E0002102C304328242FAD11035013E002EE9D100F06EFEFFF784FFFEE7C04601000000A815000010B50E4A28
:40074000136801218B43136000230AE0032B03D89A000A49505800E009489900094A885001332F2BF2D9FFF7A5FC034A116801230B43136010BDC04600001040000000003D
:40078000E50600000000002010B50B2000F016FB10BDC04610B500F0ABF810BD10B500F0D1F810BD10B5054A1368802109060B431360FFF7E9FFFFF7EDFF10BD0000274006
:4007C00010B5064B1B78002B04D1FFF7E7FF0122024B1A70FFF7E6FF10BDC04688010020094B1A68094B1B689A420BD0074B1B680133212B00D10023054AD05CC0B2034A3C
:40080000136000E000207047C401002014020020EC01002010B50B2000F0DAFA0B4B1A680B4B1A6000220B4B1A700B4B1A68802149020A431A601968084A0A401A60084A94
:40084000084B1A600B2000F0B9FA10BD14020020C4010020C001002004032740FFFFFEFFED0F0000C00F2740144B1A68144B1B689A4208D1134B1B681F221340082B02D087
:40088000114B186019E00D4B1A680132202A00D100220B4B1B689A42FBD002230B490B60C0B20B49885405490A600A4A1268134203D1084A11680B4313607047C801002040
:4008C000100200200802274040022740800F2740CC010020880F274070B506000D00002403E0305DFFF7C0FF0134AC42F9D370BD084A1368F02109010B431360064A1368BA
:40090000F02109060B431360044B1A88044B1A607047C046000602400002024090010020880F274005490A68054B1A408006C0231B051840104308607047C04620002740DA
:40094000FFFFFFF310B51D4A1D4B1A601D4A1E4B1A601E4B1E4A136007211E4A11601E4A136000241D4B1C600B2000F031FA03210B2000F04BFA1A490B2000F035FA194B2C
:400980001C60194B1C60194B1C60194B1C600422184B1A60184B1C601A68184B1A800020FFF7C0FF164B1C60164B1C60164B1C70164B1C60164B1C6010BDC0460F000001A1
:4009C000000027400100008020002740070100800003274004032740000227400402274081120000880E2740C80E2740480F2740080F2740C80F2740880F2740900100205C
:400A0000C401002014020020C0010020C80100201002002010B50B4C226860239A4322602268513B9A432260226810230343D8B210432060012000F0E1FA236810229343C3
:400A4000236010BD00020440F8B5274A13687F218B43136025490B681B0B1B03244803430B60136820218B431360116840230B431360CA277F00002000F0C0FA1A4C23685F
:400A8000102633432360012000F0B8FA194B1D682368B3432360002000F0B0FA08231D40236833432360012000F0A8FA2368B3432360002D02D10A2000F0A0FA013F002DB9
:400AC00001D0002FD7D1084B1A6840218A431A601A683F318A431A60044A13681B0B1B0305490B431360F8BD00020440080204404902000004020440B60D000010B5040012
:400B0000FFF7A2FF2009FFF785FF0F202040FFF781FF10BD10B5282000F09EF90320FFF779FF052000F098F90320FFF773FF0F2000F092F90320FFF76DFF012000F08CF98E
:400B40000220FFF767FF052000F086F90620FFF7D5FF0E20FFF7D2FF2C20FFF7CFFF0820FFF7CCFF0120FFF7C9FF0C20FFF7C6FF0320FFF7C3FF052000F06EF910BDC04695
:400B800010B50C20FFF7BAFF0122014B1A7010BD9201002010B5064B5B78002B04D1FFF7B9FF0122024B5A70FFF7EAFF10BDC0469201002004490A68D2B208239A43C000DB
:400BC000184010430860704700050440014B18707047C04672000F4010B584B000F0C2FB0390002400E0013400F0BCFB039B984202D11D4B9C42F6DD00F0B4FB02900024BE
:400C000000E0013400F0AEFB029B984202D1164B9C42F6DD00F0A6FB0190002400E0013400F0A0FB019B984202D10F4B9C42F6DD039B012B08D1019B022B05D1013B0B4A9D
:400C400013600B4A13600BE0039B022B08D1019B012B05D10122054B1A600132044B1A6000F088FB04B010BD9F860100840100207C010020014B18647047C0460000002022
:400C800010B5040000F0F5FA044A1368C0218B43A4011C43146000F0F0FA10BD00E400E00122014B1A60704700E100E00122014B1A60704780E100E010B5FFF7F7FF0448F2
:400CC000FFF7D8FF0320FFF7DBFFFFF7E9FF10BDD90B000010B5642000F090F900F052FB012802D10122024B1A6000F053FB10BD80010020014B18657047C046000000206E
:400D000010B5040000F0B5FA044A1368C0218B43A4011C43146000F0B0FA10BD04E400E01022014B1A60704700E100E01022014B1A60704780E100E010B5FFF7F7FF0448CF
:400D4000FFF7D8FF0320FFF7DBFFFFF7E9FF10BDD50C000000230AE00D4A12683F210A400C49C95C8A4201D1033303E001332D2BF2D9032308490868084A02400A60084AE0
:400D8000944663441B78DBB2064A13607047C0462CFF0B405415000000002240FFFFFFBFCDF1FF0F28FF0B40034B18688023DB05184000D001207047000022401F2318408A
:400DC0001E3B8340014A13607047C04600E100E01F2318401E3B8340014A13607047C04680E100E001BE704770B504000D001F2802D90020FFF7F6FF1034A40080239B0525
:400E00009C4664442068256070BDC04670B504000E00032902D90020FFF7E4FF1F2C02D90020FFF7DFFF03252540ED00063500F020FAA408A400074B9C46644421680323FD
:400E4000AB4099430B003100A9401943216000F014FA70BD00E400E010B5040006E0084B586800F0FDF9074B9C46644480231B029C42F4D8024B9868604300F0F1F910BD35
:400E8000E00000200080FFFF70B582B000F0CAF800285DD000F0EDF9050000230AE02D4A12683F210A402C49C95C8A4201D1033303E001332D2BF2D903230021274A116002
:400EC000274A1268D20606D1254802681F318A4313390A430260234C2168234A1140234A5A438023DB019C466244D20B013A5205520D0B001343A0225203134323601C4B1C
:400F00001B680193302000F04FFA1A4A13688021C9050B4313602668174B1E40002407E00120FFF799FF1034A30533430D4A1360EE2CF5D90120FFF78FFFFF239B051E431E
:400F4000084B1E60019A0A4B1A60280000F095F902B070BD2CFF0B405415000028FF0B4034FF0B400800224000F800C040420F003000104000002240FFFF3FC030B587B034
:400F8000040000F076F90500FFF70EFF002803D0FFF7E0FE012100E00021104B1B6800930F4B1B680193033C0E4B1B5D02930E4B1B68039304AA0D4B04936B4605930C4B9E
:400FC0001A600C480C4A10601B68012901D1FFF75BFF280000F051F907B030BD08010B4000010B405415000030001040B6EA000008001040170000800400104010B5034B09
:401000001B7B584300F02CF910BDC046E0000020034B1868C0231B02184000D00120704700010B40034B1B68002B01DA012000E0002070470000224010B500F01AF9044A56
:401040001368C02109020B43136000F016F910BD00010B4010B500F00CF908490A68084B1A408024E40122430A600A6813408022120213430B6000F000F910BD00010B4070
:40108000FF3FFFFF70B5050000F0F3F80400FFF7BFFF002803D0FFF7DDFF012100E0002108482840084A1568084B2B40184310601368012901D1FFF7BFFF200000F0DDF827
:4010C00070BDC0460404040010020B40FBFBFBFF10B5244B1B685B0715D5234B5B685B070ED5224B596A042001401F4C62688A4362605A6A82435A629B69002B00D098476F
:401100000420FFF7BFFF174B1B685B0518D5164B5B685B0510D5154B596A8022D2001140114842688A434260596A114A0A405A62DB69002B00D098478020C000FFF7A2FFA9
:40114000084B1B685B030CD5074B5B685B0304D5064B1B6A002B00D098478020C002FFF791FF10BD10020B40F400002094010020FFFBFFFF0004000C014B18607047C046FA
:40118000080120400004000C014B18607047C046140120400004000C014B18607047C0460C01204070B504000D0000F062F8AC40024B1C6000F061F870BDC04608002040A9
:4011C00010B500F056F8064A116801230B43136000F053F818210120FFF7E4FF10BDC04600002040014B18607047C0463801204010B50E4C8023DB04236023682360002031
:40120000FFF7B8FF236823600C22094B1A600120FFF7E8FF3122074B1A60074C2000FFF7B1FF2000FFF7B6FF10BDC046000120402401204028012040FFFF000010B5064BA0
:401240001B78002B04D1FFF7D3FF0122024B1A70FFF7B6FF10BDC046BC010020000000000230800803D00138FDD1C046C046C0467047EFF3108072B6704780F3108870474E
:4012800010B5274B1B68002B00D09847254B1B685B071DD5244B1B680133212B00D10023224A1268934205D1214B1B682022214B1A7006E01E4A1268D2B21F49CA541A4AFF
:4012C00013601E4B1B68DB06E4D104221C4B1A601C4B1B689B0721D51B4B1A681B4B1B689A4213D0194B1B680133202B00D10023174AD25CD2B217490A60144A1360164B77
:401300001B681F221340082BE6D104E0134A136802218B4313600222114B1A6010BDC0468C010020CC0F2740C40100201402002040032740C0010020EC01002008032740AB
:40134000C00F27408C0F2740C801002010020020CC0100204002274008022740880F2740800F2740024B1B68032018407047C04604000440024A1068032318401060704766
:4013800010000440024B1868400901231840704704040440034A10682023184010604009C0B270471004044070B50400FFF761FF0500102C05D8104A136803218B431360D3
:4013C00016E0202C07D80C490B6803229343023A13430B600CE0302C07D807490B6803229343013A13430B6002E00020FFF7FAFC2800FFF742FF70BD30001040014B186865
:401400007047C0465C0100200E4B70B500251E000D4CE41AA410A54204D0AB00F35898470135F8E700F0AEF8084B00251E00084CE41AA410A54204D0AB00F3589847013509
:40144000F8E770BD90150000901500009015000098150000002310B59A4203D0CC5CC4540133F9E710BD03008218934202D019700133FAE770470000000000001018202803
:40148000303840485058606870000000111111111122222222223333333333444444444455555555556666666666777777777788888888889999999999AAAAAAAAAABBBBA3
:4014C000BBBBBBCCCCCCCCCCDDDDDDDDDD000000202031303000000000300F40000400400F4000041A0F28032A0C2C062E0930023201340436083E5558045B045F010E08F5
:4015000015501D021E111F206D5085028B208E149601AE01C240C4C0E002E28051205602D420D6208A029E02AD20EA10190852105B2086108D088F20C608D405E202E40823
:401540000D320F400F330F4004400F4004410F400A430F40030405060708090A0B0C0E0F101112131415161718191B1C1D1E1F2021222325262728292A2B2E2F3031323302
:4015800034354300F8B5C046F8BC08BC9E4670474D0200003D070000F8B5C046F8BC08BC9E46704725020000B8150000C0000020A0000000B800000000000000000102032E
:4015C0000405060708090A0B0C0D0E0F10111213141516171C1D0000010000000000C05D80BB000030000000006CDC02F000000004040400000000000000000000000000D5
:401600000000000000000000000000000000000000000000821500000000000000000000000000000000000000000000000000000000000000000000000000000000000013
:401640000000000000000000000000000000000000000000FC000020000000000000000000000000000000000000000000000000000000000000000000000000000000004E
:40168000000000000000000000000000000000000000000000000000000000000000000000000000000000000000000000000000000000000000000000000000000000002A
:4016C00000000000000000000000000000000000000000000000000000000000000000000000000000000000000000000000000000000000000000000000000000000000EA
:4017000000000000000000000000000000000000000000000000000000000000000000000000000000000000000000000000000000000000000000000000000000000000A9
:401740000000000000000000000000000000000000000000000000000000000000000000000000000000000000000000000000000000000000000000000000000000000069
:020000040001F9
:0200000490303A
:02000000284195
:0200000490402A
:4000000000000000000000000000000000000000000000000000000000000000000000000000000000000000000000000000000000000000000000000000000000000000C0
:400040000000000000000000000000000000000000000000000000000000000000000000000000000000000000000000000000000000000000000000000000000000000080
:0200000490501A
:0C0000000002112D11A10001113439E2A1
:0200000490600A
:0100000001FE
:00000001FF