:400000000040002011000000B9030000B903000010B500F0F1F9C04610B51222124B1A60302000F0E5FB114A114B1A608822D201104B1A60104A114B1A6080221206104B7A
:400040001A608022D2020F4B1A6040220E4B1A600E49072000F028FB072000F019FB00220B4B1A6010BDC046300010400600008004010B400003014040FF0080000001406C
:4000800008010B4000010B4014010140450900000C020B4010B572B600240FE02B486200131959000B00411889881A5AC31858880004104300F07AF90134E4B2012CEDD92D
:4000C000224801000C313C3000F046F9CC2292011F4B1A601F4A204B1A6099221F4B1A6099231B041E4A1360C52109041D4A11601D4A1360C022D2021C4B1A601C490B7891
:400100003C22934314221343DBB20B70194A117816230B43DBB213700C22174B1A60D8221201164B1A600322154B1A60154A164B1A600223154A13603121154A1160154AD1
:400140001360FFF769FF00F021F910BDE04600000000024033EE0000000302400007024000500F4008500F4030500F4038500F4001700F4000700F400000044008000440C5
:4001800000030440B60D00000803044000070440080704401807044010B5064C2378002B07D1054B002B02D0044800E000BF0123237010BD8001002000000000BC460000D1
:4001C000084B10B5002B03D00749084800E000BF07480368002B00D110BD064B002BFBD09847F9E70000000084010020BC460000C00000200000000010B503071B0F012B75
:4002000004DC0F2398430B3B184304E0013B0F221340904318430007040F022C0FD002D8012C10D012E0032C05D0042C0ED1092000F0F4F90AE0032000F0F0F906E0062053
:4002400000F0ECF902E00C2000F0E8F9034800F00FFB002000F0E2F9200010BDB80B000030B585B00500002414E02B5D732B01D0532B0ED1A31C00226946CA731C0003E093
:40028000EA5C6946CA5401340F2BF9DD684600F05BFD01340F2CE8DD05B030BDF0B587B062B6012400F006F9294800F0ABF9002201AB1A74002700F08FF90500C6B205206F
:4002C00000F004FA2000FFF797FF0F2318409C430443002EEFD07F2E16D1002F03D1072000F006F9E7E7082000F002F9202000F0FFF8082000F0FCF8002FDCD001AB00225D
:40030000DA55013FDA55D6E70D2E12D1114800F079F901A8FFF7A4FF002303E0002101AAD15401330F2BF9DD002201AB1A740027C1E7102F03D1072000F0DAF8BBE7FF2024
:40034000284000F0D5F801ABDE550137B3E7C046C0460000DC460000F0B50025002711E0BB00C658F3B2FF22964308E06A008A181478A419527822700135013BDBB2002B5C
:40038000F4D10137042FEBD9F0BDC0460323044A1360044A13600022034B1A607047C0463000304030003140000E3F4010B50A00002100F004FD10BD10B500F0CBFC0368E4
:4003C0000C2B00D1FEE7FEE710B50300084A1068C318084A9A1A802A02DC054A136005E000F0B8FC0C2303600120404210BDC046C4000020D801002070B50F4E0F4D13E02F
:4004000029686B68AC68002202E001C901C30432A242FAD1E868002202E0002102C304328242FAD11035013E002EE9D100F098FCFFF734FFFEE7C046010000006C49000014
:4004400010B50E4A136801218B43136000230AE0032B03D89A000A49505800E009489900094A885001332F2BF2D9FFF713FE034A116801230B43136010BDC04600001040B3
:4004800000000000B90300000000002010B500F091F810BD10B500F039F810BD10B5044A1368802109060B431360FFF7EFFF10BD0000274010B5064B1B78002B04D1FFF7EC
:4004C000E9FF0122024B1A70FFF7E8FF10BDC0469C010020014B18687047C04640032740024B1B681F2018407047C04608032740044B1B681F221340082BF9D0024B1860BD
:400500007047C0460802274040022740154A164B1A600023154A13601549164A1160164A16490A6007201649086016490B6006381549086015490A60154A13600421154A83
:400540001160154A1360154A1360154A1360154A1360154A1360154A13601268144B1A807047C0460B000002000027404000274001000A0048002740070000800003274028
:40058000040327401003274044002740000227400402274050002740880E2740C80E2740480F2740080F2740C80F2740880F27409E01002005490B68F0229343603A134311
:4005C0000B60034B1A88034B1A607047000702409E010020880F274010B5FFF781FF002802D0FFF777FF00E00020054B1A68D8239B001A4203D01A00014B1A60002010BD16
:40060000C00F274070B50500002402E0FFF770FF0134285D0028F9D170BDC046014B18707047C04672000F4000230AE00D4A12683F210A400C49C95C8A4201D1033303E005
:4006400001332D2BF2D9032308490868084A02400A60084A944663441B78DBB2064A13607047C0462CFF0B403047000000002240FFFFFFBFCDF1FF0F28FF0B40034B1868B4
:400680008023DB05184000D001207047000022401F2318401E3B8340014A13607047C04600E100E001BE704770B504000D001F2802D90020FFF7F6FF1034A40080239B055F
:4006C0009C4664442068256070BDC04610B5040006E0084B586800F087F9074B9C46644480231B029C42F4D8024B9868604300F07BF910BDC80000200080FFFF70B582B0DA
:4007000000F0CAF800285DD000F077F9050000230AE02D4A12683F210A402C49C95C8A4201D1033303E001332D2BF2D903230021274A1160274A1268D20606D12548026863
:400740001F318A4313390A430260234C2168234A1140234A5A438023DB019C466244D20B013A5205520D0B001343A0225203134323601C4B1B680193302000F045F91A4A1B
:4007800013688021C9050B4313602668174B1E40002407E00120FFF799FF1034A30533430D4A1360EE2CF5D90120FFF78FFFFF239B051E43084B1E60019A0A4B1A60280047
:4007C00000F01FF902B070BD2CFF0B403047000028FF0B4034FF0B400800224000F800C040420F003000104000002240FFFF3FC030B587B0040000F000F90500FFF73EFF62
:40080000002803D0FFF710FF012100E00021104B1B6800930F4B1B680193033C0E4B1B5D02930E4B1B68039304AA0D4B04936B4605930C4B1A600C480C4A10601B6801291E
:4008400001D1FFF75BFF280000F0DBF807B030BD08010B4000010B403047000030001040B6EA000008001040170000800400104010B5034B1B7B584300F0B6F810BDC04698
:40088000C8000020034B1868C0231B02184000D00120704700010B40034B1B68002B01DA012000E0002070470000224010B500F0A4F8044A1368C02109020B43136000F06E
:4008C000A0F810BD00010B4010B500F096F808490A68084B1A408024E40122430A600A6813408022120213430B6000F08AF810BD00010B40FF3FFFFF70B5050000F07DF8AA
:400900000400FFF7BFFF002803D0FFF7DDFF012100E0002108482840084A1568084B2B40184310601368012901D1FFF7BFFF200000F067F870BDC0460404040010020B40C9
:40094000FBFBFBFF10B5244B1B685B0715D5234B5B685B070ED5224B596A042001401F4C62688A4362605A6A82435A629B69002B00D098470420FFF7BFFF174B1B685B0575
:4009800018D5164B5B685B0510D5154B596A8022D2001140114842688A434260596A114A0A405A62DB69002B00D098478020C000FFF7A2FF084B1B685B030CD5074B5B6824
:4009C0005B0304D5064B1B6A002B00D098478020C002FFF791FF10BD10020B40DC000020A0010020FFFBFFFF0230800803D00138FDD1C046C046C0467047EFF3108072B652
:400A0000704780F31088704770B50400FFF7F5FF0500102C05D8104A136803218B43136016E0202C07D80C490B6803229343023A13430B600CE0302C07D807490B680322E2
:400A40009343013A13430B6002E00020FFF72AFE2800FFF7D6FF70BD30001040002243088B4274D303098B425FD3030A8B4244D3030B8B4228D3030C8B420DD3FF220902A9
:400A800012BA030C8B4202D31212090265D0030B8B4219D300E0090AC30B8B4201D3CB03C01A5241830B8B4201D38B03C01A5241430B8B4201D34B03C01A5241030B8B4242
:400AC00001D30B03C01A5241C30A8B4201D3CB02C01A5241830A8B4201D38B02C01A5241430A8B4201D34B02C01A5241030A8B4201D30B02C01A5241CDD2C3098B4201D3FB
:400B0000CB01C01A524183098B4201D38B01C01A524143098B4201D34B01C01A524103098B4201D30B01C01A5241C3088B4201D3CB00C01A524183088B4201D38B00C01A55
:400B4000524143088B4201D34B00C01A5241411A00D20146524110467047FFE701B5002000F0F0F802BDC0460029F7D076E7704703460B437FD4002243088B4274D3030956
:400B80008B425FD3030A8B4244D3030B8B4228D3030C8B420DD3FF22090212BA030C8B4202D31212090265D0030B8B4219D300E0090AC30B8B4201D3CB03C01A5241830BB4
:400BC0008B4201D38B03C01A5241430B8B4201D34B03C01A5241030B8B4201D30B03C01A5241C30A8B4201D3CB02C01A5241830A8B4201D38B02C01A5241430A8B4201D3C7
:400C00004B02C01A5241030A8B4201D30B02C01A5241CDD2C3098B4201D3CB01C01A524183098B4201D38B01C01A524143098B4201D34B01C01A524103098B4201D30B0108
:400C4000C01A5241C3088B4201D3CB00C01A524183088B4201D38B00C01A524143088B4201D34B00C01A5241411A00D201465241104670475DE0CA0F00D04942031000D330
:400C80004042534000229C4603098B422DD3030A8B4212D3FC22890112BA030A8B420CD3890192118B4208D3890192118B4204D389013AD0921100E08909C3098B4201D39A
:400CC000CB01C01A524183098B4201D38B01C01A524143098B4201D34B01C01A524103098B4201D30B01C01A5241C3088B4201D3CB00C01A524183088B4201D38B00C01A94
:400D00005241D9D243088B4201D34B00C01A5241411A00D20146634652415B10104601D34042002B00D54942704763465B1000D3404201B5002000F005F802BD0029F8D0EC
:400D400016E770477047C04610B5002100F088FE10BD0000014B18687047C046440100200E4B70B500251E000D4CE41AA410A54204D0AB00F35898470135F8E703F0E4FDA6
:400D8000084B00251E00084CE41AA410A54204D0AB00F35898470135F8E770BD5449000054490000544900005C490000002310B59A4203D0CC5CC4540133F9E710BD03008E
:400DC0008218934202D019700133FAE77047000070B516000D0001F055FC002E0DD06B226B005B0DD31A002B07DD0024034A1B059D182B00220002F0C5FD70BD0000F03FC9
:400E00000023F0B5A3B01E93002600270B000290049118921D931D9B1A780D2A05D8092A14D2002A00D1BDE112E02B2A04D02D2A04D0202A0CD109E0002200E001221092E0
:400E40005A1C1D925B78002B04D1ABE10133E1E70023109300221D9D09922B78302B5DD16B78582B01D0782B4CD1109BC24A01931EAB00931DA91FAB029800F044FE072464
:400E80000390044001D100F0BCFD062C05D1002301351D95109300F0B4FD1E9A002A07D0352120A801F0DAFC1E99029801F04EF9062C1DD8200001F0AFFD040A0715180A32
:400EC000040000273E0013E0209E219F10E0219BAA4AAB491A401F9B209E5B181B051A43170005E0A74F002602E00126A64F7642039B1B0701D400F084FD80231B061F43C8
:400F000000F07FFD1D9B5A1C1D925B78302BF9D0002B01D100F075FD0123099300250A221D9B08950C9306951D9C23780393303BD9B2092910D80699082904DC0899514393
:400F40005B18089302E0290051435D18069B0134013306931D94E7E7029801F0BBF803680298059301F0B6F8006801F02FFD05990200200001F031FD041E06D00020069A97
:400F8000039B8446039205905AE0029801F0A2F8006801F01BFD1D9B069A18181D900378101E3ED1302B05D11D9B01305A1C1D925B78F7E71A00313A082A3CD8844600203D
:400FC0001D9A03900C92303B421C002B23D00A219444039A101882420BD00132541E082C03D8089C4C430894F5E7102AF3DC4D43F1E7511C0391082A06DC0A2208994A437C
:401000009B180893002206E003990022102902DC0A2169435D181D9B1000591C1D915B7803E02000A446069A03921A00303A092AC9D9012203E0002203929446013205929F
:401040002022190091430A000021452A4DD1039B099A034313438B4200D1A3E01D9B049301331D93049B5B782B2B04D00C002D2B07D1012400E00C00049B02331D93049B4C
:401080009B781A00303A092A2CD8302B04D11D9B5A1C1D925B78F8E71A00313A0021082A23D8303B0A931D9B11931D9B591C1D915B781A00303A092A06D80A220A994A43CD
:4010C000D218303A0A92F0E7119A8A1A2F49082A04DC0A992D4A914200DD1100002C04D0494202E00021049A1D92039A002A64D1099A104301D000F084FC059A002A51D17C
:401100004E2B1CD002DC492B05D04BE0692B02D06E2B14D046E01E491DA800F030FF002840D01D9B1B49013B1DA81D9300F027FF002802D11D9B01331D93124F18E016493A
:401140001DA800F01CFF00282CD01D9B1B78282B0DD120AA11491DA800F025FF052806D1219B084A209E1A43170000F04AFC0C4F002600F046FCC04680470000FFFFEFFF1C
:40118000330400000000F07FFFFFFF7F1F4E000074470000774700007D470000604700000000F8FF049B1D9300231093189B002B01D000F029FC00F032FC6346CB1A0593A8
:4011C000069B002B01D1039B0693039C102C00DD1024089803F01CFA06000F00092C15DD2300874A093BDB00D3181A685B6802F0C9FB060028000F0003F00AFA02000B000F
:401200003000390001F06EFC06000F00039B0F2B3ADC059B002B01D100F0F3FB26DD162B07DC7749DB00C9183200086849683B0017E02523039A9B1A059A9A4224DC0F24FC
:40124000039B6F4DE41AE10069183200086849683B0002F097FB059B1C1BE4002D192A686B6802F08FFB06000F00CAE3059B16330ADB059B3000DA00614B39009B1A1A686A
:401280005B6801F05BFFEEE7039B1C1B059BE418002C59DD0F2323400AD05949DB00C9183200086849683B0002F06CFB06000F000F239C4300D1B3E02633FF339C420DDDE7
:4012C000002403940894059422230026029A4D4F1360089BB34200D07FE392E30023300039001D002411012C0DDD0122144207D0454AEB009B181A685B6802F043FB01239E
:4013000001356410EFE7002B01D006000F003F4BED00FF183C4B32005D19286869683B0002F030FB374B0F000B40394906008B42C6D838498B4203D90126374F76426FE0F9
:40134000D4239B04FF186BE0002C69D00F23644223400AD02A4ADB00D31830001A685B68390001F0EBFE06000F00241158D01F2C04DD002403940894059426E100230493EA
:40138000E30601D56A230493300039000023234D002C0ADD0122144204D02A686B6802F0F1FA012364100835F2E7002B01D006000F00049B002B19D06B227B005B0D390091
:4013C000D31A002B12DD1F2B0CDD0026342B02DDDC27BF040AE00122203B52429A4011400F0003E0012252429A401640002200233000390001F02AFB0028BAD112E0C0461A
:40140000C84700000000F07FA04800000000B0FC0000A07C0000907CFFFFEF7F9847000000230493089B069A00930C99039B029800F0E2FE0890002800D141E7059B00246D
:401440005A42DB171A40059B1392DB43059ADB171A4011920394089B0298596800F03EFE0590002800D12FE7089B08991B690C319A1C92000C300693FFF798FC20AB019323
:401480001FAB009332003B0002980C960D9701F069F91E90002800D116E70121029800F033FF0390002800D10EE71F9B002B00DA95E0139AD518119A0992049920985B1A4E
:4014C0003621091A1B188C46C549013B01208B4200DB8FE06246C91A521A94461F2900DD82E08840002312900A932B0063440693099B049A6344D3180993069B2A009D42E4
:4015000000DD1A00099B934200DD1300002B06DD069AED1AD21A0692099AD21A0992139B002B6BD1069B002B00DD80E0119B002B00D086E0099B002B00DD8CE0002D00DD9B
:4015400093E0059A1E99029801F031F8041E00D1BAE60025C3680399C560099301F00CF8A84200DB8FE0099BAB4200D020E2AE4200D01DE23B03AB4200D019E2D622994B91
:40158000D2043B40934200D812E26369AB4276D021000122029800F09DFF0399040000F0EBFF002800DC03E2049A8E4B002A00D199E01A00D6213A40C9048A4200DD92E00F
:4015C000DC239B049A4200DDF5E12223029A00261360089B0027002B00D0FEE111E2119A139DD21A099268E77F49CB1A010099400A9101E000230A93129076E71A00039904
:40160000029800F013FF0390002800D15CE601001E9A029800F081FE1990002800D153E61E99029800F092FD199B1E937AE7069A1E99029800F04EFF1E90002800D075E7DD
:4016400042E6119A0599029800F0F0FE0590002800D06FE738E61A000599029800F03AFF0590002800D069E72EE62A000399029800F030FF0390002800D062E724E623692B
:40168000012B85DC94E1002864D1099A3B03002A24D0564A39001B0B93422DD1049B0138B4460200002B0AD0D4254E4BED043B40AB4204D86C321B0DD31A02009A40624524
:4016C0001AD14B4B994202D1531C00D1FCE5454B0026194080235B03CF1869E1002B0BD1002E09D160E70126424A3B409B183F4A76421A4317005BE10A9B002B03D03B4211
:4017000000D155E103E0129B334200D150E1099B049A30003900002B0AD0FFF759FB02000B000C980D9901F0DDF906000F003FE1FFF74EFB02000B000C980D9902F09CFB2F
:401740000022002306000F0001F080F9002800D03BE72DE10399200001F058F880230022DB050690079101F081F900284AD0099B002B04D00022204B0A920B930EE0002E7A
:4017800002D13B0305D10CE0012E02D1002F00D11BE700220025194B0A920B93164B069349E0002206980799134B01F055F9002808D1069807990022114B02F0E3F80500BE
:4017C000069102E00E4B099D0693802212069446069B1A9563441B931A9A1B9B29E0C04602FCFFFF0000F07FE2FBFFFFFFFF0F00FFFFEF7F0000F0FF0000F03F0000F0BF9A
:401800000000E03F894B06980799002202F0BAF8099B05000691002B05D180231B06CB181490159303E00200069B14921593149A159B0A920B937E4B3B401293129A7D4BB4
:401840009A4229D10C9A0D9B0E920F937A4B3000FF18390000F016FF02000B000A980B9902F090F832003B0001F03CF9704A734B06000A409A420BD9714B0F9A9A4203D1BB
:401880000E9B013300D11FE501266D4F76427EE0D4239B04CF1844E0049B002B2FD0D423129ADB049A422AD8664A674B2800069901F0DCF800281BD02800069901F0F4F80E
:4018C000002800D1013002F0A3FE099B05000691002B05D180231B06CB181690179303E00200069B16921793169A179B0A920B93D6220B9BD2049B18129A9B1A0B930C98B5
:401900000D990A9E0B9F00F0BDFE02000B003000390002F037F80C9A0D9B01F0E3F806000F00049B002B32D1414B129A0A973B409A422CD10699280002F0F2FD02F026FE86
:401940000B0002000699280002F096FA099B06900791002B04D1002E02D10A9B1B030ED006980799394A3A4B01F076F8002834D106980799374A2D4B01F082F805E0334AC7
:40198000354B0698079901F067F8002825D11E99029800F0DBFB0599029800F0D7FB0399029800F0D3FB2100029800F0CFFB52E5049B002B11D0294B30000F9300230E9395
:4019C00039000E9A0F9B01F0DDFF06000F1E04D1002802D12223029A13601E99029800F0B5FB0599029800F0B1FB0399029800F0ADFB0899029800F0A9FB2100029800F02B
:401A0000A5FB189B002B02D0189B1D9A1A60109B002B04D080231B063200FB1801E032003B001000190023B0F0BDC0460000E03F0000F07F0000E07F0000B0FCFFFF9F7C10
:401A4000FFFFEF7F0000C0FFFFFFDF419535A094FFFFDF3F35E5AF35FFFFCF3F0000503910B5034B0A0001001868FFF7C9F910BD44010020F0B50600056914364A113400F6
:401A8000AA4225DA1F23AD00920019407519B2183300002916D0130004CB2027CA40B4467F1A64469D4208D91C68BC402243644604C404CBA446CA40F3E72260002A07D020
:401AC000043405E01C00954202D902CA02C3F9E7A31B9B10036100D14361F0BD0300303B092B01D820380BE00300613B052B01D8473805E00200413A0023052A01D82738CA
:401B0000C3B218007047F0B58DB0099102920A93059000F0DFFA03681800079300F056FF0222079B52421B18013B1B7804900B93099B19688B1C521AD1180193089101997E
:401B4000013308783028F7D0FFF7C8FF061E20D1049A0799019800F040FF00283CD1019B049A9C182078FFF7B9FF002837D00194019B1878302803D1019B01330193F7E7F3
:401B8000FFF7ACFF43424341039301232600089302E000231E000393019C2078FFF79EFF002801D00134F8E7049A0799200000F014FF00280BD1002E0BD1049BE418260042
:401BC0002078FFF78BFF002801D00134F8E7371E08D0361BB70005E0019C370000E00700012303932378502B01D0702B28D163782B2B07D02D2B03D00023661C069304E061
:401C0000012300E000230693A61C3078FFF766FF431EDBB2182B13D81038013605003078FFF75CFF431EDBB2182B03D80A235D432818F1E7069B002B00D06D427F1900E0D2
:401C40002600099B1E60039B002B06D00020089B834200D07FE106307DE1019B0399E31A013B072B02DD01315B10FAE7059800F035FA030000260500143303930893069633
:401C8000019BA3422BD2631E09930B9A1B78934209D0069B202B15D1089B1E6000260433089306960EE00123049A9C1A099B1C19019BA342EDD80799200000F08EFE002833
:401CC000DED0E6E7099B1878FFF708FF0F231840069B099C9840043306430693D0E7089C039B40C4E41AA4102C61300000F0C2FA029B64011B68261A01939E4225DDF61A14
:401D00003100280000F0C0FD0024A04217D01F2101342000731E1940884001005A110398920012580A420AD0A34201DC022406E0B11E280000F0A8FD0028F7D0032431009F
:401D40002800FFF797FEBF190EE0019B00249E420ADA9E1B29003200059800F0BBFB030005001433BF1B0393029B9B6804939F4208DD0598290000F0E9F90023129AA32029
:401D80001360E8E0029B5E68B74259DA019BF61BB34232DC029BDB68022B1ED0032B20D0012B21D1019BB3421ED1012B0DDC029B62205B680193019A0A9B1A600123039AEC
:401DC0002B611360129B1D60C5E001992800013900F05AFD0028EAD106E0139B002BE6D002E0139B002BE2D10598290000F0AEF90023129A50201360ADE0771E002C07D1D7
:401E0000002F06D03900280000F03EFD040000E001241F237A111F401E3BBB400399920052581A4201D002231C43019B31009B1B28000193FFF71EFE029B02265F6800E042
:401E40000126002C00D181E0029BDB68022B0BD0032B0DD0012B77D1A20775D5039A126814431C4207D16FE00123139A9B1A1393139B002B68D02C69A30004932B00A200B7
:401E800014339918002294461A68501C02D001321A6021E0624604C39942F5D8AB689C4212DB6B680598591C00F018F929002B6903909A1C92000C310C30FEF777FF290040
:401EC000059800F043F9039D2B695A1C2A61012204339B00EB185A602B001433022E12D1029A01991268013A91422BD14A111F21019892000140012004008C40D35823426B
:401F000020D006001EE02A6994420BDA01212800FFF7B0FD029B01379B6801269F4200DD27E70FE01F24019A01262240141E09D0049A9B18043B186800F09CF920210C1B49
:401F4000A042E3DB202300E010231E433000129B1D600A9B1F600DB0F0BD082370B520259A1A9200AD1A436806681C00AC40D34034430460436004308842F4D370BD30B5F7
:401F800003680C780133002C0AD01A781500413D192D00D820320131A242F2D0002001E00360012030BDF0B589B000920A68009953119B00CB1802931F231A40079005925D
:401FC00002D0029B04330293029B00251E1F37003400079B35601B68069503930195039B013303931B780493002B3BD00498FFF775FD002822D1049B202B17D8019B069ABF
:402000009342ECDDBC4206D2072D04DC2A0039002000FFF7A2FF009B08259C42DFD90025019B271F3D6006933C00D8E7049B292B4BD1039B079A0133136013E0019B0135AE
:4020400001330193082D06DD009B9C42C7D900230125043C23600F22236810401B0118432060BCE7019B002B2FD0BC4206D2072D04DC2A0039002000FFF76FFF009B9C42A5
:402080000AD9043302CC1A1F1160A642F9D2002204C39E42FCD20DE0059B002B0AD02021059A029B891A01225242CA40043B19680A401A603368002B09D1009B9E4202D15F
:4020C0000123336003E0043EF4E7042000E0052009B0F0BD004870474801002070B5466A04000D00002E07D1102000F089FC6062466086600660C660666AF368002B09D098
:40210000636AAA00DB689B18186800280ED002681A6017E021220421200000F0D6FB636AF060DB68002BEBD100200EE001210E00AE40721D9200200000F0C7FB0028F3D037
:402140004560866000230361C36070BD70B5456A06000C00002D07D1102000F051FC7062456085600560C560002C07D0726A6368D2689B00D3181A6822601C6070BDF7B5FC
:40218000070008000C000D691E00002101921430019A0388013153439B190668360C56431A0C9446B4446246160C120494469BB2634408C08D42EBDC002E1BD0A3689D4286
:4021C00012DB63683800591CFFF788FF2100236901909A1C92000C310C30FEF7E7FD21003800FFF7B3FF019C2B1D9B00E31801355E6025612000FEBDF7B5060018000C007E
:402200000830092101931500FEF7B2FC01230021834202DA5B000131FAE73000FFF75EFF089B436101230361092D12DD230009331F00009364193B780100303B0A2230001C
:402240000137FFF79CFFA742F5D1009B5C19083C01E009250A342F00019B9F4209DA631BDB5D0100303B0A223000FFF788FF0137F2E7FEBD00220300010C914201D1030411
:402280001032190E01D108321B02190F01D104321B01990F01D102329B001000002B03DB20205B0000D5501C70470722036810B501001A400CD001240020234223D10222F9
:4022C000134203D0E34020000B601CE09B0818E098B2002801D110221B0CD8B2002801D108321B0A180701D104321B09980701D102329B08D80704D45B082020002B02D007
:40230000013210000B6010BD10B50C000121FFF7E5FE01234461036110BDF0B50B691400126989B00D00934201DA25000C002F692669AA68BB1969680193934200DD013137
:40234000FFF7CCFE0200BB1914329B00D3189C46002113000290634501D202C3FBE71435BF00EB191434B6000593A31903950793079B9C4251D2208800281ED01500002605
:40238000039F08CF069504936B461B8A434319002B88CB1804999B19090C41432E68360C89191E0C89190E0C9BB209040B4308C5059BBB42E5D8069B5E6023681D0C1FD0CC
:4023C000002110001368039F04913E8801686E43090C7118049E9BB289190E043343036008CF86881B0C6B43090C9B195B18190C0491059906900430B942E6D806994B60E5
:4024000004340432B4E704235B429C4463461B68002B05D1019B013B0193019B002BF2DC029B019A18001A6109B0F0BD0323F7B5134005000E001400002B08D02349013B99
:402440009A00525800233100FFF799FE0600A310019338D06C6A002C07D1102000F0D0FA6862446084600460C4606F6ABC68002C10D117492800FFF747FF0023B860040037
:40248000036007E0019B5B1001931CD02068002810D004000122019B1342F3D0310022002800FFF73AFF070031002800FFF74EFE3E00E7E7220021002800FFF72EFF0023D7
:4024C00020600360E5E73000FEBDC0469048000071020000F0B50C0017002369551185B0EB180193013300934968A3680290009A934202DA01315B00F9E70298FFF7EEFD23
:4025000000230200060019001432AB4203DA980011500133F9E7EB43DB171D402300AD0055192269143392009A1894461F22174014D00132D21B0392002219682800B9409A
:402540000A4304C504CB0399CA409C45F5D84260002A07D0019B0233009303E004CB04C59C45FBD8009B0298013B33612100FFF7EDFD300005B0F0BD03690A6910B59B1AFB
:402580000400181E12D1930014341431E218C918043A043913680868834204D083429B410120184302E09442F2D3002010BDF0B50C0085B00700110020001500FFF7DCFF79
:4025C000061E07D101003800FFF788FD01234661036155E000230193984204DA23002C001D000123019361683800FFF777FD019B26692F00C3601434B300E31802000293BF
:402600002B69002514379B00FB180393143208CC69469C4608CF0432009363468B808B885D19009B9BB2EB1A65460193009B2D0C190C019B691A1D14131F9C466B4649192E
:402640009B880D1409040B4361460B60039BBB42DDD8029913008C420BD202CC8BB25B191D14090C49190D149BB209040B4308C2EFE7043B1A68002A01D1013EF9E706612D
:4026800005B0F0BD0F4B10B519400F4BC918002902DD00220B0012E04942091500220023132904DC802000030841030007E0143901201E2902DC1F24611A884002001000D3
:4026C000190010BD0000F07F0000C0FCF7B50600036914369B00F3181D1F2C680F0020000193FFF7C7FD20231B1A3B601C490A2813DC0B2327001B1ADF4039439C460B00C3
:402700000021AE4202D2019908390968153084406046C1400C4322001EE00027AE4202D2019D083D2F680B388446031E11D09C40202021433C00C01AC44021430B000021AB
:40274000B54201D9043D29686446C140A7400F4301E021430B003A001000190003B0F0BD0000F03FF7B51D000121089F1400FFF7B5FC2B036D0006001B0B6D0D02D080228E
:40278000520313430193002C18D068460094FFF78CFD009C002809D0019B20211A00091A8A40C34022437261019300E07461019CB461631E9C410134346107E001A8FFF7A0
:4027C00074FD0124019B346173612030002D06D00B4BED1835232D183D60181A0BE0094BC018094B3860E3189B00F3185869FFF741FD6401201A099B18603000FEBDC046DF
:40280000CDFBFFFFCEFBFFFFFFFFFF3FF0B585B00E0002A90700FFF759FF04000D00300003A900940195FFF751FF36693F690200BF1B7E01B446039F029E0B00F61B6644E6
:40284000002E03DD36057119019101E036058B1B0098019900F072FC05B0F0BD1300013910B549111269013189001433920041189A189A4202D910CB10C0FAE70023814290
:4028800001D908C0FBE710BD30B50400026914344B119A420CDB0CDD1F22114009D09A00155901202A00CA408A4095420CD100E013009B00E318A34205D9043B1A68002AA6
:4028C000F9D0012000E0002030BD4A4370B51100140000F009F8051E03D022000021FEF76EFA280070BD0000032370B5CD1C9D43083506000C2D01D20C2501E0002D01DBD0
:40290000A94202D90C23336048E0300000F082F8234B1C681A002100002913D00B685B1B0DD40B2B02D90B60CC181EE08C4202D1636813601AE04B6863600C0016E00C008F
:402940004968E9E7174C2368002B03D1300000F02BF820602900300000F026F8431C18D00323C41C9C43A0420DD12560300000F052F8200007220B30231D9043C31A0ED092
:402980005A42E2500BE0211A300000F00DF8431CEBD10C233000336000F03DF8002070BDCC010020C8010020002370B5064C050008002360FDF708FD431C03D12368002B9D
:4029C00000D02B6070BDC046D00100200023C25C0133002AFBD1581E7047002330B59A420BD0013AC45CCD5CAC4205D19A4202D00133002CF6D12500631B180030BD00003C
:402A000010B5034B01001868FFF76EFF10BDC046440100207047704702B4714649084900095C49008E4402BC7047C0468446101C62468C46191C634600E0C0461FB500F0FF
:402A400037FF002801D40021C8421FBD10B500F08BFE4042013010BD10B500F029FF002801DB002010BD012010BDC04610B500F01FFF002801DD002010BD012010BDC046E2
:402A800010B500F0B1FE002801DC002010BD012010BDC04610B500F0A7FE002801DA002010BD012010BDC04670B500220C4B04000D00FFF7EFFF002804D12000290001F0C4
:402AC0002FFD70BD064B00222000290001F0D4F901F026FD80231B069C466044F1E7C0460000E041F8B556465F464D464446F0B40F00FD0FAA4609037C002E005F00450F83
:402B0000490A7F0D2943C5001803BC46400A570F640DDB0F3843D2009A4500D1AAE06646A61B002E00DCFFE06346002B39D10300134300D0D9E06B0709D00F232B40042BA9
:402B400005D02B1DAB42AD416D4249191D000B0200D482E0CA4B01349C4200D1FEE00A005646C84BED081A405007640552020543120B640D002112030B0D1B056405120B2F
:402B80001A436308C04CF60714401C43640064083443280021003CBC90469946A246AB46F8BDB74B9C42C6D080231B041843382E00DDEBE01F2E00DD1EE120239B1B9C4621
:402BC00003006746BB40984613004746F3403B436746BA40571EBA4113430200F240EB1A9D42B6411D008A1A7642911B0B0231D54A02560A002E00D1B4E0300001F040FDAA
:402C00000300083B1F2B00DDB5E020222900D21AD1409E400A009D4032439C4200DDB1E01C1B631C1F2B00DDD5E0202114002800C91A8C40D8408D400443DA40681E854154
:402C400011002543002476E74146314300D134E2310045466B0700D06FE756464807ED08C9080543864B9C4235D00A036405120B640D7FE76346E31A9B46002B00DC8BE014
:402C80006746002F3CD07E4FBC4200D153E780273F0438435B46382B00DCF7E00243501E82410020D2B253194218AB4289411D00494289180B02CDD5714B01349C4200D10B
:402CC0003DE101206F4A6B080A4028401843D507054351082FE72B000B4300D1CBE180231B030B431A03120B44E7013E002E6DD1AE1AB5429B41091A5B42C91A350075E7E5
:402D00000700174300D116E701235B429C46E3445B46002B00D0E0E0AA18AA429B4109185B4259181500C5E7002E75D1661C7605760D012E00DCF3E0AE1AB0464545BF41AA
:402D40000E1A7F42F61B370200D48FE0551BAA42B641411A76428E1B9A464BE756460022002507E7280001F08BFC20300300083B1F2B00DC49E72A002838824000259C4210
:402D800000DC4DE73F49E41A1140D4E60243501E8241D3B2002222E7002B00D0F3E0631C9C465B055B0D012B00DC9FE0344B9C4500D1C3E0AA180918AA428041404241188F
:402DC000CD075208154349086446B4E62C4B9C4200D0ECE6AFE611001F3CE1400C00202B00D17FE04021CB1A9A4015436A1E95410021254300242DE733000700203BDF40CD
:402E00003B00202E70D04027BE1BB0400243501E824113430022E2E6002C4FD0184CA44500D1ABE08024240476422143382E00DDDFE01F2E00DD43E12027BC1BA1460C00A6
:402E40004F46BC40A0462C004746F4403C434F46BD406F1EBD41F1402C43151BAA429241411A5242891A64469A46BFE641464546314300D0BEE6002600240025F2E6C046BB
:402E8000FF070000FFFF7FFFFFFF0F801F2B59DC2027FF1ABC46070063469F405B46B9461700DF40B8464F4643461F4363469A40531E9A415B463A43D840F4E60C002C43E5
:402EC0005CD0F643002E55D1551BAA42A441411A6442091B9A46644688E6964FBC4200D0D8E628E6002280E700208FE70B002B43002C00D0C2E0002B00D101E103001343CF
:402F000000D118E6AB18AB42B6410918764271180A0200D409E1884A1D00114064460AE6002C5BD10E002E4300D08AE00100114300D1C2E0010015009A46FCE5644600219A
:402F400000258FE620235B429C46DC4463460700DF405B46BC46202B00D1ACE040235F46DB1B98400243501E8241634613431A00002098E66F4CA44500D057E701001500F0
:402F800064469A46D7E5002C39D10C002C436ED0DB43002B1AD0674CA44568D0382B00DDA4E01F2B00DDAEE020240F00E41AA740B9462F00DF40B846A3464F464446274367
:402FC0005C46A5406C1EA541D9403D43AD1895429B4109185B42591864466BE60C002C4315D1010011437BD0010015009A46514CA1E50D43691E8D410021ECB22DE74D4C74
:40300000A44534D0802424045B422143C6E7040014434ED0ED084C072C438025C9082D03294208D0C6082E4205D1D208410711430C009A463100620FC900E50011433D4C6D
:4030400079E50600164300D175E5AE1AB0464545BF410E1A7F42F61B370200D4F4E5551BAA42B641411A7642891B9A4663E50100150064465FE5002200257BE5002B3BD02D
:403080000300134315D0ED084B072B438025C9082D03294207D0C4082C4204D141070B002100D2081343C9005A0F1143DD00214C41E5204C3FE5002054E700260025D1E5A0
:4030C00034000F00203CE7403C00202E2BD04027BE1BB1400D43691E8D4100212C43BCE6802100260903134C0025BBE50D43691E8D410021EDB269E7010015000D4C1AE563
:403100000100150017E51C000F00203CE7403C00202B0CD04027FB1A99400D43691E8D410021254352E70021D4E71D0092E50021F3E7C046FF070000FFFF7FFFF0B556467C
:403140004D4644465F46F0B41D000E034C00CB0F87B0070092468146360B640D98466AD06D4B9C4235D08022430F12041343F6001E43C3009946694B00279C460023644472
:4031800002932B0368001B0BED0F51469B46400D009500D178E0604B98426CD05B46DA004B0F802109040B4313439B465346D9005A4B9C46002360444246201A6A40924672
:4031C00001901F430F2F00D9B0E05548BF00C0598746374300D088E0002399460233082700260293CDE74346B34649460093029B009A9246022B00D0BFE10021534601223F
:40320000002689461A40444B002136030C0D2405360B2643434C1B0526401E437600D207760816434846310007B03CBC90469946A246AB46F0BD330003434FD0002E00D18E
:40324000BCE1300001F01CFA03000B3B1C2B00DDADE11D220100D31A08393A008F408E40DA40B9461643304B00279C46002360444442029385E753465A4613432CD1002347
:4032800000219B46023397E70B4320D05B46002B00D19EE1584601F0F3F903000B3B1C2B00DD8FE102005946083A91408B461D21CB1A5146D9400B0059460B4351469B46DF
:4032C0009140194B9C4660444042002374E7002300219B4601336FE703236DE70023994601330427002602934BE703230C27029347E70122D51A382D00DCB0E153461A40A9
:4033000000210023002689467EE700238026994600223603004B77E7FF07000001FCFFFFC8480000FFFF0F80F30300005E4500D972E100D16DE1019B4D46013B019300239F
:40334000340002935B461E020B0E1E430B020393330C994633041B0C494620000093FDF77DFB009B370043430600494620009846FDF7FAFB2C0C09040C43A04509D9E41950
:40338000731EA74200D95CE1A04500D859E1023EE4194346E41A49462000FDF75FFB0300009A80465343494620009B46FDF7DCFB2A040904120C0A4393450DD94346D21999
:4033C000013B974200D93AE1934500D837E102235B429C46D219E0445B46D21A4346360433439B460399180C0B0C1D00059309045B46090C0C001B041B0C44430491594349
:403400006B4368431B190D0CEB189C4203D980246402A44660441C0C09041B04090C20185D18824200D2DEE000D1D7E0161A029B9C465D1BAC459B415B42F61AB74200D134
:4034400006E149463000FDF709FB009B04004343494630009846FDF787FB2E0C09040E43B04509D9F619631EB74200D9F3E0B04500D8F0E0023CF6194346F31A49461800AB
:403480000293FDF7EBFA009B06004343494602989846FDF769FB2D0409042D0C0D43A84509D9ED19731EAF4200D9D6E0A84500D8D3E0023EED192404210043463143049EC5
:4034C000059A3000ED1A0B040C0C1B0C58436643534354439A19030C9B189E4203D980225202944664441A0C00041B04000C14191B18A54250D34DD001231943964A019BB6
:4035000094466344002B00DCF3E64A0709D00F220A40042A05D00A1D8A42894149428B4411005A46D20108D55A468C4B1A4093468022D2009446019B6344894A934200DD4A
:403540005BE65A46C908500708435602514601225B058146360B5B0D0A4055E680231B031E4211D05A461A420ED15E461E433603360B2A0089467B4B46E6032B00D1E1E089
:40358000012BBBD11A40BBE61E433603360B4246744B39E6002BB1D07D194A1EAF4252D91100A542A8D1039A9A42A5D1A6E703003E00283B9E400023994654E601F060F85D
:4035C000203041E603005246283B9A400021934677E6504601F054F820305EE6029B0026AB4200D323E7039E0299B44661448846B045B6415B467642F619B218013B02919B
:40360000974213D290424FD800D18EE0161A9B460DE7894500D28EE674084B46F60735005B081D434B46DB0702938BE69742EDD10399029CA142E5D93E1A9B46F7E698469A
:40364000CAE61E00A5E6AC423ED874D0110053E70121494252E71C000EE71E002BE71F2D3CDC20230A0058465B1B9840EA4099400243481E81415E461143EE404B0709D0D9
:403680000F230B40042B05D00B00191D99429B415B42F61833023CD55346012200211A40002601238946AFE502235B429C46039CE344A446029B63449846A045B6417642B2
:4036C000F6190293B218B1E603988A1E41008142B6417642F619AD19039161E71F225242D31A5A46DA401300202D29D040225846551BA8400143481E814107200B431840B8
:403700000026002809D00F2200261A401900042ABBD10B0070077602360BDB0803439946012253461A4000236EE502998D42BBD89B4600267BE603989842C5D3110032E773
:403740000020D7E780265B4636031E433603360B009A8946034B57E5FF030000FFFFFFFEFE070000FF070000F0B55F4656464D464446F0B41F035C00DB0F9A46194B0E03B1
:403780004D00C90F8046360B6D0D8B4691463F0B640D9D4219D0134B9C421BD00123A54206D018003CBC90469946A246AB46F0BDBE42F6D1C845F4D1D34510D0002DF0D166
:4037C000304303005A1E9341EBE7310001230143E7D1E0E73A430123002AE2D1DEE70023DFE7C046FF070000F0B55F46444656464D46F0B41F033C0B2C4F0E034D00A34613
:403800005C008446360B6D0DC90F9046640DDB0FBD422BD0254FBC422ED0002D0ED130430700814678427841002C17D15F463A4314D14B460020002B0AD006E0002C02D1BE
:403840005846024301D099421AD00123484218433CBC90469946A246AB46F0BD0028F2D058425841012240421043F1E737000743D0D002204042EBE75F461743CDD0F8E794
:40388000A542E2DC05DB5E45DFD808D000205E45DED248424841012340421843D8E7C445D3D80020C445F4D3D2E7C046FF070000F0B55F464D4644465646F0B41C03240BAD
:4038C000A4462F4C0F034D005E00C90F80463F0B6D0D8B469146760DDB0FA54220D0284CA64222D0002D12D1384344424441002E20D0002C0DD05C42634101245B421C43EA
:4039000020003CBC90469946A246AB46F0BD002E17D05B4519D05B465C4201231C43EFE7390002240143EBD1D9E7614602241143E6D1D7E761460A43DBD100240028DFD0AE
:40394000E9E761460A43E4D1E5E7B54203DD01225C421443D4E7B542CDDB6745DBD809D000246745CCD259464C426141012449420C43C5E7C845CED80024C845F3D3BFE749
:40398000FF070000F0B55F4656464D464446F0B40D0399464E002B0B87B00700924680469B46760DCC0F002E69D06D4B9E4235D05B468022DD001204430F13432B439B469B
:4039C000C3009846674B00279C460023664401934A4615035000D20F53462D0B400D914600D176E05E4A90426CD080225B0F120413435C4AED0094461D4353460022DB0084
:403A0000604449463618701C6140029017430F2F00D9AFE05448BF00C759BF465B461F4300D088E000239B469846023308270193CEE74946022A6AD0032A00D109E2012AF3
:403A400000D0BBE111400022002300259046CCB200212D030A0D12052D0B1543434A1B0515401D436D00E4076D0825434046290007B03CBC90469946A246AB46F0BD034346
:403A800052D05B46002B00D18AE1584600F0F8FD03000B3B1C2B00DD7BE11D22D31A3A0001005D46DA4008398D4013008F402B439B46B8462E4B00279C460023604446425E
:403AC000019385E752462A432CD100250023022297E752462A4321D0002D00D154E1280000F0CEFD03000B3B1C2B00DD46E11D21CB1A51460200D9405346083A95409340E2
:403B00000D431B4A944660444042002279E7012400220C40124B0025904699E70025002301226EE703226CE700239B4698460133042701934CE703230C27019348E7002364
:403B40008025984600242D03054B81E75D464346019A6FE75D4643462100019A6AE7C046FF07000001FCFFFF08490000FFFF0F80F30300004246120C91461A0C9446424680
:403B800017044A461B041B0C5A43604690464A4642431000039262461C003F0C7A437C4342440192220C9246019A5244904506D98246802040028046C24450460390100CF7
:403BC000049048462404240C1204121905922A0C2D042D0C68432C00824648467C4350438146200C8046574357444744BA4503D9802040028046C144380C3F04B846484442
:403C00002404240C01900498A044404404905846000C814658460404200C8246070048465F434C464343604660436446834650464443380C8446E4186444A34203D98023BA
:403C40005B029C46E34448463F04230C3F0C2404E419574668436F4384464D46504655434243380C814662444A445B44944503D9802040028446654403983F048346049839
:403C80003F0C8446E344C345804140428246100484460198674484466744A344BC46A345A4419946D44464428742BF41D4458041E144A04699459B417F424042C8440743CA
:403CC000120CBA18A045A4415F423B0064422343D71843467D19DB0D6D021D435B465A02059B1A43531E9A415B46DB0D1A4343465B021343EA0107D501225C0813402343EE
:403D0000EA07029E13436D08574AB218002A4BDD580709D00F201840042805D0181D98429B415B42ED180300E80104D54F4A15408022D200B2184E48824200DDE7E6012403
:403D4000DB08680718436D02530580462D0B5B0D0C407DE6802259461203114208D0154206D115432D0398462D0B4C46414B6FE65D4615432D032D0B3E4B69E60300554621
:403D8000283B9D400023BCE6504600F079FC2030A8E60300283B9F400023BB46984689E600F06EFC203073E60124A61A382E07DD00220C4000230025904649E6029EA3E758
:403DC0001F2E20DC20222C001800921BF040944093400443581E83411C43F540630709D00F232340042B05D023001C1D9C4292415242AD182B021FD5012400220C40012341
:403E00000025904624E61F202C004042821AD440202E1CD04022961BB5402B43581E83410720234318400025002809D00F2200251A401C00042AD8D1230068076D022D0B0F
:403E40000124DB08034398460C40002300E60025E3E780220124120315432D0398462D0B0C40044BF4E5C046FF030000FFFFFFFEFE070000FF070000F0B557464E46454675
:403E8000E0B40E001100F20F9246C500420F180337037400400A4E0F7F0A3043CF4E17435A00640D520DDB0FC900B24200D1E5E001267340A61AB446534500D1AFE0002E5C
:403EC00000DC0DE1002A3AD103000B4300D0E4E06B0709D00F232B40042B05D02B1DAB42AD416D427F191D003B0200D488E0BB4B01349C4200D110E13A00B94B51461A40E8
:403F000001235007ED08520264050543120B640D0B400021280012030D0D120B64052D0515436208AF4CDB072C401443640064081C4321001CBC90469946A246F0BDA74B3D
:403F40009C42C5D080231B0418436346382B00DDFDE01F2B00DD30E1624620239B1A02009A40664690460A009940F24046464B1E99413243114363460200DA40691A8D42F1
:403F80009B410D00BA1A5B42D71A3B0235D57A02530A98464346002B00D1C4E0404600F06FFB0300083B1F2B00DDC5E020222900D21A4746D1409F400A009D403A439C4287
:403FC00000DDC0E01C1B631C1F2B00DDE4E0202114002800C91AD8408C408D400443DA40681E854117002543002471E7424663461A4300D14CE2674645466B0700D069E793
:40400000012351467807ED08FA080B40054373498C4238D012036405120B640D79E7002E00DC9AE0002A47D06C4A944200D14FE78022120410436246382A00DC08E1014348
:40404000481E81410022C9B24919D219A942BF410D007F42BF183A0200D442E15F4A0134944200D14EE101205D4A69083A4028400843D507054357089A4629E706000E4387
:4040800000D017E714E72900114300D1F9E1802109030A431203120B3BE701235B429846C4446346002B72D1691A8D429B413F1A5B42FF1A0D0068E702000A4300D107E75C
:4040C000012252429046C4446246002A00D0E6E06918A942B6413F187642F7190D00BAE7002E00D080E0621C5205520D012A00DCF9E06A1A91464D45B6413A1A7642921B84
:404100009046120200D499E04D1BA9428941C71B49427A1A90469A463CE752460123002513400022F5E6280000F0AAFA20300300083B1F2B00DC39E72A0028388240002517
:404140009C4200DC3EE7264FE41A1740C0E60143481E81410022C9B210E7002E00D0F1E0621C94465205520D012A00DCA0E01B4A944500D1C5E06918A94292413F185242AE
:40418000D2194908D5070D4357086446A0E6134B9C4200D0D9E69BE611001F3CE1400C00202B00D180E04021CB1A9A4015436A1E95410027254300241FE763460200203B12
:4041C000DA406346202B71D0402366469B1B98400143481E814111430022CFE6FF070000FFFF7FFFFFFF0F80002C48D0CA4CA24200D1A2E07442A1468024240427434C4637
:40420000382C00DDDBE01F2C00DD44E14E462024A41B3E00A640A246B0464C462E00E640B4464646644626435446A5406C1EA54134002C434D46EF400D1B28E04A46434680
:404240004D461A4300D0A5E6002300240025DEE61F2A5ADC66462022921B060096409146B04662460E00D640424616434A4691404A1E9141020060463143C240E4E63C0094
:404280002C435AD0F443A146002C52D14D1BA9428941C71B49427F1A14009A4675E69E4A944200D0C7E613E600227FE700208FE7002C00D0C8E03B002B4300D10FE1030023
:4042C0000B4300D104E66918A9429B413F185B42DF193B0200D41AE1904B0D001F406446F6E59A4689E63A002A43002C5CD1002A75D102000A4300D1CAE007000D009A462C
:40430000E6E564460022002581E662460600203AD6406246B046202A00D1B7E040226646921B904001434246481E8141114300228AE6794CA24200D061E707000D0014009E
:404340009A46C5E5002C41D13C002C4378D0F443A146002C20D0704CA24271D04C46382C00DDB2E01F2C00DDBCE02026341BA2463C005646B4404E46A0462C00F440A44631
:40438000444666463443A4465446A54064466E1EB54125434C46E7406D188D4289413F184942CF19140056E6002A2FD102000A4300D184E007000D009A46574C88E53D4330
:4043C0006F1EBD41ECB200270D1B60E7524CA24236D0744280263604A1463743BEE702000A4300D174E56A1A90464545B6413A1A7642921B9446120200D4F7E54D1BA942DC
:404400008941C71B49427F1A9A4661E502000A433AD0ED087C072C438025FA082D032A4208D0C7082F4205D145072C003A009A46C9080C43670FD200E5001743364C47E52E
:4044400007000D00140043E53A002A4343D002000A4319D0ED087C072C438025FA082D032A4207D0C6082E4204D147073C003200C9080C43D700620FE50017439A46264C31
:4044800026E50022002544E5234C21E5002049E700230025BBE54C463E00203CE6404C46B446202C31D040244E46A61BB7403D436C1EA54164462C4300270D1BE7E6802232
:4044C00000231203144C0025A1E53D436F1EBD410027EDB260E707000D000F4CF8E407000D00F5E44E463C00203EF440A0464C46202C0ED040244E46A41BA7403D436F1E7A
:40450000BD4144460027254346E70027CFE70D0073E50027F2E7C046FF070000FFFF7FFF0B0330B5134D1A0B4B005B0DC90F0024AB4211DD104CA34210DC802464032243CE
:404540000E4CE41A1F2C0CDD0D48C31ADA4013005C42002900D11C00200030BD094BCC18FAE7E040084CA44663449A4013000343EEE7C046FE0300001D040000330400000A
:4045800013040000FFFFFF7FEDFBFFFF70B5002830D0C317C4185C40C50F200000F070F8174B184A1B1AD21A1F2A18DD164AD21A9440002224035B05240B5B0D00211000E3
:4045C00024030A0D1205240B1443104A1B0514401C436400ED0764082C43210070BD210091400A000B21081AC4405B052403240B5B0DE3E70025002300240022DEE7C046A3
:404600001E0400003304000013040000FFFF0F8070B5051E28D000F033F8154B154A1B1AD21A1F2A16DD2C00134A0025D21A94405A052403240B520D002124030B0D240BF5
:404640001B0523430D4C1205234013435B002800590870BD0B212C00081AC440954024035A05240B520DE7E700220024E4E7C0461E0400003304000013040000FFFF0F8031
:404680001C2101231B04984201D3000C10391B0A984201D3000A08391B09984201D30009043902A2105C40187047C04604030202010101010000000000000000000000000D
:4046C00054797065206120636F6D6D616E6420706C656173652E0D0A000000000D0A000000300F40000400400F4000045B045F016C246D406E018004814086018C20E405C0
:40470000E61050405702D420D62087028C409480A702E210530157088309D40302320F4009330F4004400F4005410F4004430F40030405060708090A0B0C0E0F101112131C
:404740001415161718191B1C1D1E1F2021222325262728292A2B2E2F303132333435430034000000CEFBFFFFCB03000001000000000000006E6600696E69747900616E001A
:4047800035000000CEFBFFFFCB030000010000000000000000000000BC89D897B2D29C3C33A7A8D523F649393DA7F444FD0FA5329D978CCF08BA5B25436FAC6428066811F3
:4047C000504F534958002E00000000000000F03F000000000000244000000000000059400000000000408F40000000000088C34000000000006AF8400000000080842E411D
:4048000000000000D01263410000000084D797410000000065CDCD41000000205FA00242000000E876483742000000A2941A6D42000040E59C30A2420000901EC4BCD642E3
:4048400000003426F56B0C430080E03779C3414300A0D8855734764300C84E676DC1AB43003D9160E458E143408CB5781DAF154450EFE2D6E41A4B4492D54D06CFF0804491
:40488000F64AE1C7022DB544B49DD9794378EA4405000000190000007D000000000000000080E03779C34143176E05B5B5B89346F5F93FE9034F384D321D30F94877825AE5
:4048C0003CBF737FDD4F15752C330000FA31000000330000F0310000003300000A33000000330000F0310000FA310000FA3100000A330000F0310000E6310000E631000091
:40490000E63100005C350000743B0000343A0000343A0000323A00004C3B00004C3B00003E3B0000323A00004C3B00003E3B00004C3B0000323A0000543B0000543B0000D4
:40494000543B0000543D0000F8B5C046F8BC08BC9E467047C101000041040000F8B5C046F8BC08BC9E4670479901000080490000C0000020C0000000580000000000000029
:4049800000000000D8010020010000000000C05D80BB000030000000006CDC02F000000004040400000000000000000000000000000000000000000000000000000000002F
:4049C000000000005E470000000000000000000000000000000000000000000000000000000000000000000000000000000000000000000000000000000000000000000012
:404A000000000000E4000020C6470000C7470000C7470000C7470000C7470000C7470000C7470000C7470000C7470000C7470000FFFFFFFFFFFFFFFFFFFFFFFFFFFF0000F5
:404A40000000000000000000000000000000000000000000000000000000000000000000000000000000000000000000000000000000000000000000000000000000000036
:404A800000000000000000000000000000000000000000000000000000000000000000000000000000000000000000000000000000000000000000000000000000000000F6
:404AC00000000000000000000000000000000000000000000000000000000000000000000000000000000000000000000000000000000000000000000000000000000000B6
:404B00000000000000000000000000000000000000000000000000000000000000000000000000000000000000000000000000000000000000000000000000000000000075
:020000040001F9
:0200000490303A
:0200000018EBFB
:0200000490402A
:4000000000000000000000000000000000000000000000000000000000000000000000000000000000000000000000000000000000000000000000000000000000000000C0
:400040000000000000000000000000000000000000000000000000000000000000000000000000000000000000000000000000000000000000000000000000000000000080
:0200000490501A
:0C0000000002112D11A1000111452A8CF5
:0200000490600A
:0100000001FE
:00000001FF