:400000000040002011000000251F0000251F000010B501F0A7FFC04610B512221C4B1A60302002F0E1FA1B4A1B4B1A60BC2292011A4B1A601A4B1B4A1A608821C9011A4ABE
:4000400011601A4A1A60E8214901194A1160194A1A6080221206184B1A608022D202174B1A604123164A1360164A13604222164B1A60023A154B1A601549072002F0EAF98B
:40008000072002F0D1F90022124B1A6010BDC046300010400600008004010B40040301400000014041FF00800803014042FF00800003014040FF008008010B4000010B4042
:4000C000340101402C01014014010140080101403D2700000C020B4010B572B60122404B1A7000240FE03F486200131959000B00411889881A5AC31858880004104301F02D
:400100000BFF0134E4B2012CEDD936490C313648203001F0D7FECC229201344B1A60344A344B1A60344A354B1A60EE22344B1A60553A344B1A6099231B04334A1360B02111
:400140000904324A1160324A1360E4218903314A1160314A1360A422D203304B1A6002212F4B19602F4803783C22934314221343DBB203702C4A107816230343DBB2137046
:400180000C222A4B1A602A4A2A4B1A600F232A4A13602A4A13602A4A2A4B1A6013222A4B1A602A4A2A4B1A6003222A4B1A602A4A2A4B1A608023DB00294A13608220000256
:4001C000284A1060284A1360284B19603122284B1A60284B1960FFF71FFF01F08DFE10BD1C700F40DC3F00005C40000000000240333300000002024033EE080000030240D7
:40020000000402400007024000500F4008500F4020500F4028500F4030500F4038500F402000104001700F4000700F4000000440890D0000080004400C0004400002044012
:40024000B60D00000802044000030440B66D0000080304400004044024800100080404400C040440080504400C05044000070440080704401807044010B5064C2378002B9F
:4002800007D1054B002B02D0044800E000BF0123237010BD0002002000000000043C0000084B10B5002B03D00749084800E000BF07480368002B00D110BD064B002BFBD029
:4002C0009847F9E70000000004020020043C0000C00000200000000010B503071B0F012B04DC0F2398430B3B184304E0013B0F221340904318430007040F022C0FD002D873
:40030000012C10D012E0032C05D0042C0ED1092001F08EFF0AE0032001F08AFF06E0062001F086FF02E00C2001F082FF024B188802F09AF9200010BDC4000020020993009A
:40034000D3185A000F2318401018C0B27047C04670B505000A2102F03DFF04010A21280002F0BEFF6118C8B270BDC04610B514000370029B437000230A000100200002F0CB
:400380003FFC02F005FC8307FBD502F019FC10BD70B586B005ACD24E3378A37000230093522202212000FFF7E1FFCE4D2B79A370022300930023522202212000FFF7D6FF85
:4003C0006B79A370042300930023522202212000FFF7CCFF7378A370062300930023522202212000FFF7C2FFAB68049304AEA370082300930023522202212000FFF7B6FFB4
:400400007378A3700A2300930023522202212000FFF7ACFFB378A3700C2300930023522202212000FFF7A2FFF378A3700E2300930023522202212000FFF798FF2C690322AF
:40044000A949200002F0C9FF002806D10322A749200002F0C2FF00282FD0A24B1E7B5D7B0322A149200002F0B8FF002803D0002203AB9A7002E0012203AB9A7005ACA67013
:40048000102300930023522202212000FFF76EFFA570122300930023522202212000FFF765FF03AB9B78A370142300930023522202212000FFF75AFF1AE005ACFF23A37081
:4004C000EF3B00930023522202212000FFF74EFF122300930023522202212000FFF746FF142300930023522202212000FFF73EFF7C4B9C6903227C49200002F06EFF002811
:4005000006D103227949200002F067FF00282FD0744B1E7D5D7D03227349200002F05DFF002803D0002203AB9A7002E0012203AB9A7005ACA67016230093002352220221FC
:400540002000FFF713FFA570182300930023522202212000FFF70AFF03AB9B78A3701A2300930023522202212000FFF7FFFE1AE005ACFF23A370E93B0093002352220221D5
:400580002000FFF7F3FE182300930023522202212000FFF7EBFE1A2300930023522202212000FFF7E3FE4F4B1C6A03224E49200002F013FF002806D103224C49200002F061
:4005C0000CFF00282FD0474B1E7F5D7F03224649200002F002FF002803D0002203AB9A7002E0012203AB9A7005ACA6701C2300930023522202212000FFF7B8FEA5701E23F0
:4006000000930023522202212000FFF7AFFE03AB9B78A370202300930023522202212000FFF7A4FE1AE005ACFF23A370E33B00930023522202212000FFF798FE1E230093C3
:400640000023522202212000FFF790FE202300930023522202212000FFF788FE214B9C6A03222149200002F0B8FE002806D103221E49200002F0B1FE002839D0194B242200
:400680009E5C01329D5C223A1749200002F0A5FE002803D0002203AB9A7002E0012203AB9A7005ACA670222300930023522202212000FFF75BFEA5702423009300235222C3
:4006C00002212000FFF752FE03AB9B78A370262300930023522202212000FFF747FE22E01C020020C4000020EC3C0000F03C000005ACFF23A370DD3B0093002352220221E9
:400700002000FFF733FE242300930023522202212000FFF72BFE262300930023522202212000FFF723FEDB4B1C6B0322DA49200002F053FE002806D10322D849200002F023
:400740004CFE002831D0D34B2C229E5C01329D5C2A3AD149200002F040FE002803D0002203AB9A7002E0012203AB9A7005ACA670282300930023522202212000FFF7F6FDAC
:40078000A5702A2300930023522202212000FFF7EDFD03AB9B78A3702C2300930023522202212000FFF7E2FD1AE005ACFF23A370D73B00930023522202212000FFF7D6FDFD
:4007C0002A2300930023522202212000FFF7CEFD2C2300930023522202212000FFF7C6FDAC4B9C6B0322AC49200002F0F6FD002806D10322A949200002F0EFFD002831D0AF
:40080000A44B34229E5C01329D5C323AA249200002F0E3FD002803D0002203AB9A7002E0012203AB9A7005ACA6702E2300930023522202212000FFF799FDA5703023009366
:400840000023522202212000FFF790FD03AB9B78A370322300930023522202212000FFF785FD1AE005ACFF23A370D13B00930023522202212000FFF779FD3023009300233F
:40088000522202212000FFF771FD322300930023522202212000FFF769FD7E4B1C6C03227D49200002F099FD002806D103227B49200002F092FD002831D0764B3C229E5C50
:4008C00001329D5C3A3A7449200002F086FD002803D0002203AB9A7002E0012203AB9A7005ACA670342300930023522202212000FFF73CFDA57036230093002352220221FF
:400900002000FFF733FD03AB9B78A370382300930023522202212000FFF728FD1AE005ACFF23A370CB3B00930023522202212000FFF71CFD36230093002352220221200092
:40094000FFF714FD382300930023522202212000FFF70CFD4F4B9C6C03224F49200002F03CFD002806D103224C49200002F035FD002831D0474B44229E5C01329D5C423A3F
:400980004549200002F029FD002803D0002203AB9A7002E0012203AB9A7005ACA6703A2300930023522202212000FFF7DFFCA5703C2300930023522202212000FFF7D6FCD4
:4009C00003AB9B78A3703E2300930023522202212000FFF7CBFC1AE005ACFF23A370C53B00930023522202212000FFF7BFFC3C2300930023522202212000FFF7B7FC3E23C4
:400A000000930023522202212000FFF7AFFC214B1C6D03222049200002F0DFFC002806D103221E49200002F0D8FC002838D0194B4C229E5C01329D5C4A3A1749200002F0A9
:400A4000CCFC002803D0002203AB9A7002E0012203AB9A7005ACA670402300930023522202212000FFF782FCA570422300930023522202212000FFF779FC03AB9B78A370EB
:400A8000442300930023522202212000FFF76EFC21E0C046C4000020EC3C0000F03C000005ACFF23A370BF3B00930023522202212000FFF75BFC4223009300235222022177
:400AC0002000FFF753FC442300930023522202212000FFF74BFC2F4B9C6D03222E49200002F07BFC002806D103222C49200002F074FC002831D0274B54229E5C01329D5C86
:400B0000523A2549200002F068FC002803D0002203AB9A7002E0012203AB9A7005ACA670462300930023522202212000FFF71EFCA570482300930023522202212000FFF723
:400B400015FC03AB9B78A3704A2300930023522202212000FFF70AFC1AE005ACFF23A370B93B00930023522202212000FFF7FEFB482300930023522202212000FFF7F6FBCB
:400B80004A2300930023522202212000FFF7EEFB06B070BDC4000020EC3C0000F03C000070B582B005000E00140001A90B7002230122200002F024F801F0EAFF8307FBD514
:400BC00001F0FEFF012332002900200002F094F801F0DEFFC307FBD501F0F2FF02B070BD10B51400037000230A000100200002F007F801F0CDFF8307FBD501F0E1FF10BD81
:400C0000F0B5474680B490B008AE0890099106AD069207930021002001F0B2F83378727816A9097816A8007A1F4F0AAC04900391179902917168019100923A00152120003C
:400C400002F092FB00262675200001F0CFF80121002001F095F8154801F0C8F80221002001F08EF8124801F0C1F80321002001F087F82B786A78904619AA1078117A049156
:400C800003901A9A02926A680192424600923A001521200002F068FB2675200001F0A6F810B004BC9046F0BDF43C00000C3D0000243D000082B030B58FB006AC0690079198
:400CC000129213930221002001F05AF8114801F08DF80321002001F053F82378627812A9097812A8007A08AD0490039113990291616801910092084A1521280002F034FB16
:400D000000232B75280001F071F80FB030BC08BC02B01847243D0000F43C000082B030B58FB006AC06900791129213930021002001F026F82378627812A9097812A8007AA8
:400D400008AD0490039113990291616801910092094A1521280002F007FB00232B75280001F044F80121002001F00AF80FB030BC08BC02B01847C046F43C0000F0B54F4688
:400D80004646C0B493B0304B1B780AAC2F4DDB00EB180C33220003CB03C22E005C36737909AA9146512201214846FFF7F9FEF37908AA9046512201214046FFF7F1FE337AF7
:400DC00007AF512201213800FFF7EAFE4B461878FFF7B4FA060043461878FFF7AFFA013880002818C36E98463878FFF7A7FA07000121002000F0C4FF154800F0F7FF02215E
:400E0000002000F0BDFF134800F0F0FF0321002000F0B6FF237862780CAD04970396414602916168019100920B4A1521280002F09BFA00232B75280000F0D8FF13B00CBCE3
:400E400090469946F0BDC0461C020020C40000200C3D0000383D0000F43C000070B500250BE0274CE069FFF737FA0F231840237F0F229343034323770135224B9B689D424A
:400E8000EFD3002001F0D4F9FA24A400200001F0DBF8200001F0E0F801F0B4F91A4801F055F9322001F05AF901F03AF9002624E0144B1B79012B01D101F0A4F9114B5B7931
:400EC000012B01D101F01CF900250BE0E0B201F0A9F9012001F0F6FA013400E00024032CF4DD0135632DF9DD01F098F801F018F99620400001F0E6FA0136072ED8DD70BD4A
:400F000044010020C4000020EE020000F0B54F464646C0B49FB000F023FF0021002000F02FFFCD4800F062FFCC4E34005C34637913AF512201213800FFF732FEE37912AA91
:400F40009046512201214046FFF72AFE237A11AD512201212800FFF723FE3878FFF7EEF9070043461878FFF7E9F9441EA300F318DB6E99462878FFF7E1F9050002210020BE
:400F800000F0FEFE3E00019500974B46B44A152114A802F0E9F914A800F028FF23E0B14B9B78012B1FD1AF4B00229A70DB78012B03D10C2C09D001340AE0AA4BDB78022B66
:400FC00006D1012C03D0013C02E0012400E00C240221002000F0D4FE631E9B009F4AD318D86E00F003FF9F4B1B79002BD7D0E4B200229C4B1A710021002000F0C1FE9A484D
:4010000000F0F4FE25E0974B9B78012B21D1954B00229A70DB78012B03D11F2E09D001360AE0904BDB78022B06D1012E03D0013E02E0012600E01F260221042000F0A0FE9A
:4010400033008A4A032105A802F08EF905A800F0CDFE844B1B79002BD5D0824B00221A710EA90E701A710021002000F089FE804800F0BCFE25E07B4B9B78012B21D1794B60
:4010800000229A70DB78012B03D1632D09D001350AE0744BDB78022B06D1002D03D0013D02E0002500E063250221082000F068FE2B00704A052105A802F056F905A800F02E
:4010C00095FE684B1B79002BD5D00022654B1A710EAB1D72614D5C35EB78513201210DA8FFF75EFD2B790CAD512201212800FFF757FD2878122813D9FFF720F91AAD0C3810
:4011000028700DAB1878FFF719F968705A4B6B6003AB1A0003CD03C20AAA03CB03C211E0FFF70CF91CAD28700DAB1878FFF706F96870524B6B6005AB1A0003CD03C20AAAFE
:4011400003CB03C20021002000F01AFE4C4800F04DFE0221002000F013FE0AAB1D785E780B9B019300962B00464A152114A802F0FBF814A800F03AFE25E03A4B9B78012B51
:4011800021D1384B00229A70DB78012B03D10C2D09D001350AE0334BDB78022B06D1012D03D0013D02E0012500E00C250221002000F0E6FD2B002D4A032102A802F0D4F898
:4011C00002A800F013FE274B1B79002BD5D0EDB208AB1D700022234B1A710021002000F0CFFD294800F002FE25E01E4B9B78012B21D11C4B00229A70DB78012B03D13B2E28
:4012000009D001360AE0174BDB78022B06D1002E03D0013E02E0002600E03B260221032000F0AEFD3300114A052102A802F09CF802A800F0DBFD0B4B1B79002BD5D0F6B2D9
:401240000022084B1A710021002000F099FD0F4800F0CCFD002734E0503D0000C40000205C3D00001C020020683D0000743D00007C3D0000883D0000F03C0000EC3C0000EC
:40128000903D00009C3D0000B03D0000BC3D0000394B9B78012B14D10022374B9A70002F01D1013700E000270221052000F068FD002F03D1314800F099FD02E0304800F023
:4012C00095FD2D4B1B79002BE2D000222A4B1A71002F02D00C3508AB1D7007AD00236B70284F5C37BB78512202212800FFF778FC3000FFF72DF86870FB7851220221280064
:40130000FFF76EFC08AB1878FFF722F868703B79512202212800FFF763FC0EAE3078FFF717F868707B79512202212800FFF758FC06236B70BB79512202212800FFF750FCE6
:401340002000FFF705F86870FB79512202212800FFF746FC307AFEF7FBFF68703B7A512202212800FFF73CFCFFF708FD1FB00CBC90469946F0BDC0461C020020EC3C0000A6
:40138000F03C0000C4000020F0B54F4680B49EB000F0E6FCCD4C002565700021002000F0EFFCCB4800F022FD0121002000F0E8FCC84800F01BFD0221002000F0E1FC637825
:4013C00014ACC54A1521200001F0CEFF2575200000F00CFD6AE0BD4B9B78012B66D1BB4B00229A70DB78012B44D1B84B5B780A2B3CD100F0B5FC0021002000F0C1FCB74823
:4014000000F0F4FC0121002000F0BAFCB44800F0EDFC0221002000F0B3FCB24800F0E6FCFA20C00001F04EF800F09AFC0021002000F0A6FCA64800F0D9FC0121002000F012
:401440009FFCA44800F0D2FC0221002000F098FC9E4B5B7814ACA04A1521200001F084FF00232375200000F0C1FC0EE00133974A53700AE0954BDB78022B06D1934B5B7810
:40148000002B02D0013B914A53700221002000F077FC8E4B5B7814AC934A1521200001F063FF00232375200000F0A0FC874B1B79002B90D00022854B1A7100F051FC002586
:4014C00030E10021002000F05BFC6B1C0393874A152114A801F048FF14A800F087FC844E5C36F3785122012104A8FFF759FB337905AE512201213000FFF752FB3078122869
:4015000016D9FEF71BFF1AAE0C38307004AB1878FEF714FF7070774B7360082231000AA801F010FF08220AA906A801F00BFF14E0FEF704FF1CAE307004AB1878FEF7FEFE2C
:4015400070706D4B7360082231000CA801F0FAFE08220CA906A801F0F5FE0121002000F00FFC664800F042FC0221002000F008FC06AB1E785F78B946079C01940097330028
:401580005F4A152114A801F0EFFE14A800F02EFC2AE04E4B9B78012B26D14C4B00229A70DB78012B04D10C2E0BD00136F6B20BE0464BDB78022B07D1012E04D0013EF6B23A
:4015C00002E0012600E00C260221002000F0D8FB01944B4600933300494A15210EA801F0C3FE0EA800F002FC384B1B79002BD0D008AB1E700022354B1A710121002000F087
:40160000BFFB404800F0F2FB29E0304B9B78012B25D12E4B00229A70DB78012B04D13B2F0BD00137FFB20BE0284BDB78022B07D1002F04D0013FFFB202E0002700E03B27B6
:401640000221002000F09CFB0194009733002C4A15210EA801F088FE0EA800F0C7FB1B4B1B79002BD1D008AB5F700022174B1A710121002000F084FB234800F0B7FB0026C5
:4016800018E0124B9B78012B14D100220F4B9A70002E01D1013600E000260221052000F06FFB002E03D1144800F0A0FB02E0114800F09CFB054B1B79002BE2D00022034B70
:4016C0001A71002E22D10B4B099323E01C020020CC3D0000E03D0000E83D0000FC3D0000103E0000243E0000343E00004C3E0000C4000020F03C0000EC3C0000583E00000D
:40170000643E0000B03D0000BC3D0000012E01D10A4B0993ED000A4B5D190C3508AB06CB06C5039D074B5B789D4200DAC9E6FFF725FB1EB004BC9146F0BDC046EC3C000064
:40174000C40000201C02002010B500F009FB0021002000F015FB1F4800F048FB0121002000F00EFB1C4800F041FB0221002000F007FB1A4800F03AFB0321002000F000FBFD
:40178000174800F033FB174B1B79002BFBD00023154A9360134A13710EE0134A936801339360124CE069FEF797FD0F231840237F0F2293431843207700F01EFC0128ECD0B9
:4017C000002000F035FD0022064B1A71FFF7D6FA10BDC046783E0000883E00009C3E0000B03E00001C020020C40000204401002010B500F0B5FA0021002000F0C1FA284885
:4018000000F0F4FA0221002000F0BAFA254B5B79002B03D1244800F0E9FA37E0234800F0E5FA33E0224B9B78012B20D1204B00229A70DB78012B0BD11A4B5B79002B03D136
:401840000132184B5A7112E00022164B5A710EE0174BDB78022B0AD1124B5B79002B03D10122104B5A7102E000220E4B5A710221002000F085FA0B4B5B79002B03D10A484E
:4018800000F0B4FA02E00B4800F0B0FA084B1B79002BC7D00022064B1A71FFF76FFA10BDBC3E0000C4000020D03E0000D43E00001C020020D83E000010B500F051FA002175
:4018C000002000F05DFA284800F090FA0221002000F056FA254B1B79002B03D1244800F085FA37E0234800F081FA33E0224B9B78012B20D1204B00229A70DB78012B0BD1A7
:401900001A4B1B79002B03D10132184B1A7112E00022164B1A710EE0174BDB78022B0AD1124B1B79002B03D10122104B1A7102E000220E4B1A710221002000F021FA0B4B5E
:401940001B79002B03D10A4800F050FA02E00B4800F04CFA084B1B79002BC7D00022064B1A71FFF70BFA10BDBC3E0000C4000020D03E0000D43E00001C020020D83E00001C
:4019800010B500F0EDF90021002000F0F9F9314800F02CFA0121002000F0F2F92E4800F025FA0221002000F0EBF92C4800F01EFA0321002000F0E4F9294800F017FAFA2008
:4019C000800000F07FFD002424E0264B9B78012B16D1244B00229A70DB78012B04D1052C0BD00134E4B20BE01E4BDB78022B07D1002C04D0013CE4B202E0002400E00524E8
:401A00000321002000F0BCF9A300174AD318186A00F0ECF9134B1B79002BD6D00022114B1A71052C14D8A400104B1B599F46FFF76DFA0DE0FFF7A8FC0AE0FFF785FE07E008
:401A4000FFF7D6FE04E0FFF737FF01E0FFF796F910BDC046DC3E0000EC3E00000C3D0000FC3E00001C02002044010020083C0000F0B5A7B000F018FC00F094FC62B600F01D
:401A8000C5FE002304221421272000F001F900F0BDF9FEF77DFC20AB78490A0011CA11C31DAB9C46180070CA70C01BAC0A001432200060CA60C018AA08001C301500C8C8F3
:401AC000C8C503A868CA68C06A46634661CB61C21B9A1C9B20984968FFF792F817AC00266670674D5C23EB5C512202212000FFF777F866705C356B78512202212000FFF70D
:401B00006FF85F4C5C34A3785122012108A8FFF747F8E3785122012109A8FFF741F823790AAD512201212800FFF73AF86379512201210BA8FFF734F8E379512201210CA87B
:401B4000FFF72EF8237A512201210DA8FFF728F82878122816D9FEF7F1FB22AC0C38207009AB1878FEF7EAFB6070464B63600822210010A801F0E6FB082210A90EA801F05F
:401B8000E1FB14E0FEF7DAFB24AC207009AB1878FEF7D4FB60703C4B63600822210012A801F0D0FB082212A90EA801F0CBFB0BAB1878FEF7C3FB14AC20700CAB1878FEF771
:401BC000BDFB01382E4D80002818C76E67600DAB1878FEF7B3FB20720EAEA3680093149A3B000E980F99FFF799F83278274B1C78E300EB181B7B9A422DD10EAB5A78E300B4
:401C00001F49CB185B7B9A4225D1E300CB181B690F9A9A421FD1022C0AD0631CDB00CB1818690222184901F0D8FB002800D117D00134E1B2154B1970C900114B5918169B0B
:401C400007930093149A159BC8680969FFF732F8FFF704F904E0022C02D100220B4B1A700A4B1B79012B04D10022084B1A71FFF787FEFA20800000F025FC42E7203C0000A8
:401C8000C4000020F03C0000EC3C00001C02002010B5064C20700648017006490A70064A13700822054B1A7010BDC0465D02002062020020630200205F0200205C0200204E
:401CC00010B50C000022002100F0B0FE0021200000F03AFF002000F00BFF10BD10B5044B1B7801001943034B1878FFF7E9FF10BD5C0200205D02002010B504000420030067
:401D00002343D8B2FFF7EAFF012000F0ADFC042320009843FFF7E2FF322000F0A5FC10BD10B50400FFF7DAFF2000FFF7E5FF10BD70B50D000F2302009A4313000001C4B245
:401D40000B431800FFF7ECFF20002843FFF7E8FF70BDC04610B50021FFF7EAFF10BDC04610B50120FFF7F6FF022000F0ABFB10BD10B50220FFF7EEFF022000F0A3FB10BD4C
:401D800070B584B06B460C4A70CA70C31C00136823600A4B1B788B4201D2013BD9B289006B46CB58C01880235B421843C0B2FFF7D1FF04B070BDC046CC3F0000630200206E
:401DC00010B5064A107804231843C0B2107008231843C0B2FFF7BEFF10BDC0465E02002010B50121FFF7A4FF10BDC04670B5060001F0ECFA0500002403E0305DFFF7F0FF01
:401E00000134FF232B409C42F7D370BD10B50022254B1A70254B1B78012B02D90821224A1170234A1278002A06D0012B04D11E4A117804230B431370322000F043FB1D4B41
:401E40001878FFF74BFFFA20800000F03BFB3020FFF766FF184C200000F006FC3020FFF75FFF200000F000FC3020FFF759FF962000F0FAFB2020FFF753FF0B4B1878202317
:401E80001843C0B2FFF766FF04220C4B1A70FFF797FFFFF765FF0222094B1A700620FFF759FFFFF765FF10BD61020020630200205F0200205C020020941100005E02002044
:401EC00060020020F0B50025002711E0BB00C658F3B2FF22964308E06A008A181478A419527822700135013BDBB2002BF4D10137062FEBD9F0BDC0460323044A1360044A65
:401F000013600022034B1A607047C0463000304030003140000E3F4010B50A00002101F01AFA10BD10B501F0E1F903680C2B00D1FEE7FEE710B50300084A1068C318084A6B
:401F40009A1A802A02DC054A136005E001F0CEF90C2303600120404210BDC0467C0100209002002070B50F4E0F4D13E029686B68AC68002202E001C901C30432A242FAD1AF
:401F8000E868002202E0002102C304328242FAD11035013E002EE9D101F0AEF9FFF768FDFEE7C046010000002041000010B50E4A136801218B43136000230AE0032B03D865
:401FC0009A000A49505800E009489900094A885001332F2BF2D9FEF77FF8034A116801230B43136010BDC0460000104000000000251F000000000020024B18684009012326
:402000001840704704040440034A10682023184010604009C0B270471004044010B500F0F8FE044A136801218B43136000F0F5FE10BDC046000020400004000C014B1860EA
:402040007047C046080120400004000C014B18607047C046140120400004000C014B18607047C0460C01204070B504000D0000F0D0FEAC40024B1C6000F0CFFE70BDC0469D
:402080000800204010B500F0C4FE064A116801230B43136000F0C1FE18210120FFF7E4FF10BDC04600002040014B18607047C0463801204010B50E4C8023DB0423602368B5
:4020C00023600020FFF7B8FF236823600C22094B1A600120FFF7E8FF3122074B1A60074C2000FFF7B1FF2000FFF7B6FF10BDC046000120402401204028012040FFFF000045
:4021000010B5064B1B78002B04D1FFF7D3FF0122024B1A70FFF7B6FF10BDC0462102002010B500F076FE044A136804218B43136000F073FE10BDC046000020400004000C77
:40214000014B18607047C046880120400004000C014B18607047C046940120400004000C014B18607047C0468C01204070B504000D0000F04EFEAC40024B1C6000F04DFE8F
:4021800070BDC0460800204010B500F042FE064A116804230B43136000F03FFE18210420FFF7E4FF10BDC04600002040014B18607047C046B801204010B50E4C8023DB040D
:4021C0002360236823600020FFF7B8FF236823600C22094B1A600120FFF7E8FF3122074B1A60074C2000FFF7B1FF2000FFF7B6FF10BDC04680012040A4012040A8012040B4
:40220000FFFF000010B5064B1B78002B04D1FFF7D3FF0122024B1A70FFF7B6FF10BDC04622020020014B18707047C04673000F40014B18707047C04672000F4010B51420D5
:4022400000F040F9FFF7E0FEFFF7D6FE012803D10122034B1A7002E00022014B1A7010BD20020020014B18657047C0460000002010B5040000F0CDFD044A1368C0218B4315
:40228000A4011C43146000F0C8FD10BD04E400E01022014B1A60704700E100E01022014B1A60704780E100E010B5FFF7F7FF0448FFF7D8FF0320FFF7DBFFFFF7E9FF10BD94
:4022C0003D22000010B584B000F0AAFD0390002400E0013400F0A4FD039B984202D11D4B9C42F6DD00F09CFD0290002400E0013400F096FD029B984202D1164B9C42F6DDFB
:4023000000F08EFD0190002400E0013400F088FD019B984202D10F4B9C42F6DD039B012B09D1019B022B06D101220B4B1A7001320A4B1A7009E0039B022B06D1019B012BE3
:4023400003D1054A1370054A137000F071FD04B010BDC0469F8601001E0200201F020020014B18647047C0460000002010B5040000F04FFD044A1368C0218B43A4011C4333
:40238000146000F04AFD10BD00E400E00122014B1A60704700E100E00122014B1A60704780E100E010B5FFF7F7FF0448FFF7D8FF0320FFF7DBFFFFF7E9FF10BDC522000050
:4023C00000230AE00D4A12683F210A400C49C95C8A4201D1033303E001332D2BF2D9032308490868084A02400A60084A944663441B78DBB2064A13607047C0462CFF0B40FF
:402400009840000000002240FFFFFFBFCDF1FF0F28FF0B40034B18688023DB05184000D001207047000022401F2318401E3B8340014A13607047C04600E100E01F23184029
:402440001E3B8340014A13607047C04680E100E001BE704770B504000D001F2802D90020FFF7F6FF1034A40080239B059C4664442068256070BDC04670B504000E00032953
:4024800002D90020FFF7E4FF1F2C02D90020FFF7DFFF03252540ED00063500F0BAFCA408A400074B9C46644421680323AB4099430B003100A9401943216000F0AEFC70BD68
:4024C00000E400E010B5040006E0084B586800F097FC074B9C46644480231B029C42F4D8024B9868604300F08BFC10BD800100200080FFFF70B582B000F0CAF800285DD0DC
:4025000000F087FC050000230AE02D4A12683F210A402C49C95C8A4201D1033303E001332D2BF2D903230021274A1160274A1268D20606D1254802681F318A4313390A4383
:402540000260234C2168234A1140234A5A438023DB019C466244D20B013A5205520D0B001343A0225203134323601C4B1B680193302000F065FC1A4A13688021C9050B4358
:4025800013602668174B1E40002407E00120FFF799FF1034A30533430D4A1360EE2CF5D90120FFF78FFFFF239B051E43084B1E60019A0A4B1A60280000F02FFC02B070BD67
:4025C0002CFF0B409840000028FF0B4034FF0B400800224000F800C040420F003000104000002240FFFF3FC030B587B0040000F010FC0500FFF70EFF002803D0FFF7E0FE18
:40260000012100E00021104B1B6800930F4B1B680193033C0E4B1B5D02930E4B1B68039304AA0D4B04936B4605930C4B1A600C480C4A10601B68012901D1FFF75BFF2800B6
:4026400000F0EBFB07B030BD08010B4000010B409840000030001040B6EA000008001040170000800400104010B5034B1B7B584300F0C6FB10BDC04680010020034B1868CE
:40268000C0231B02184000D00120704700010B40034B1B68002B01DA012000E0002070470000224010B500F0B4FB044A1368C02109020B43136000F0B0FB10BD00010B402F
:4026C00010B500F0A6FB08490A68084B1A408024E40122430A600A6813408022120213430B6000F09AFB10BD00010B40FF3FFFFF70B5050000F08DFB0400FFF7BFFF002824
:4027000003D0FFF7DDFF012100E0002108482840084A1568084B2B40184310601368012901D1FFF7BFFF200000F077FB70BDC0460404040010020B40FBFBFBFF10B5244B54
:402740001B685B0715D5234B5B685B070ED5224B596A042001401F4C62688A4362605A6A82435A629B69002B00D098470420FFF7BFFF174B1B685B0518D5164B5B685B050A
:4027800010D5154B596A8022D2001140114842688A434260596A114A0A405A62DB69002B00D098478020C000FFF7A2FF084B1B685B030CD5074B5B685B0304D5064B1B6A6A
:4027C000002B00D098478020C002FFF791FF10BD10020B409401002024020020FFFBFFFF10B50820FFF720FE10BDC04610B500F01DF810BD10B5044A1368802109060B4303
:402800001360FFF7EDFF10BD0000244010B5064B1B78002B04D1FFF7E9FF0122024B1A70FFF7E8FF10BDC0464C02002010B50024184B1C60184A194B1A60194B194A136031
:40284000194A1460194A1460194A1360194B1C600820FFF7F3FD03210820FFF70DFE16490820FFF7F7FD154B1C60154B1C60154B1C60154B1C60154B1C60154B1C601022CE
:40288000144B1A70144B1C80144B1C60144B1C6010BDC046000024407708008060002440070100800003244004032440100324400002244004022440952E0000C80E2440E6
:4028C000880E2440480F2440080F2440C80F2440880F24406402002074020020840200206C02002010B50E4A13685B005B08136000230C490B600C490B600C4804680C49A1
:40290000214001600B490B600B490B6010210B4B19701368802109060B43136010BDC04600002440680024406C00244060002440FF5CFFFF880F2440C80F244064020020AF
:4029400010B504000368002B09D00120FFF78CFE2368013B2360002B03D0002003E0002001E08020000610BD10B5002839DBC023034208D00022284B1A601032274B1A7071
:40298000002310243DE0C3070FD5244B1B781B072BD5234B1B685B0001D5002300E0012310211E4A117001242BE0C30520D4830722D4C30605D51022184B1A7000230024F9
:4029C0001FE0164B1B781B0719D5144B1B78DB0701D5252200E02422104B1A70002300240FE00123802424060BE00123012408E001238024640004E00023022401E0002337
:402A00000024012B02D1FFF76DFF02E0054A064B1A60200010BDC04668002440640200206000244017030000000F244070B582B004000D001600244B1B78102B40D108208B
:402A4000FFF7FCFC214B1B68DB0734D4FA239B005E43019600221E4B1A601E4A1E4B1A601E4A1F4B1A606400FF231C40002D03D12422154B1A7004E02522134B1A700123B9
:402A80001C43184B1C600222174B1A60124B1C680823FF3320001840144B1B68C02423401843040001A8FFF74BFF2043EED0FFF75BFF040000E008240820FFF7B5FC00E081
:402AC0000424200002B070BD6402002064002440080F244017030000000F2440ED0F0000C00F24404002244068002440400F244010B582B0104B1B789B061AD5FA239B00D8
:402B0000584301900D4B1B689B0601D5182200E010220B4B1A600B4B18681223FF331840040001A8FFF70CFF2043F4D0FFF71CFF00E0042002B010BD6402002064002440AF
:402B400068002440000F244010B582B00D4B1B789B0613D5FA239B00594301910A4B18600A4B18680823FF331840040001A8FFF7E7FE2043F4D0FFF7F7FE00E0042002B01E
:402B800010BDC0466402002040022440000F244010B50820FFF752FC074B1C88A2B21400064B1B789B0602D504231A4394B20820FFF73AFC200010BD740200206402002091
:402BC00010B50820FFF73AFC044B1C88A4B200221A800820FFF728FC200010BD74020020054B1B682022134000D0082301221343024A13607047C046640024406800244006
:402C0000F0B583B001900C0017001D00002917D02A4B1B78102B08D10820FFF70FFC284B1B68DB070ED508260FE0244B1B78602B0AD1244A138808218B431380002604E0B9
:402C4000042602E0002600E00426002E2FD128221A4B1A7000231C4A13601C4A13601C4B1F601C4B1C60EAB21B4B1A70019B5C00FF231C40134A138802218B431380402332
:402C8000164A13601649174A11601421FF31164A1160164A1360EB0704D5FFF7A1FF144B1C6004E0124B1C600222124B1A600820FFF7BAFB300003B0F0BDC0466402002024
:402CC0006400244074020020680200206C02002070020020880200207C020020800F244017030000000F2440080F2440880F24404002244068002440F0B583B001900C00A7
:402D000017001D00002917D02F4B1B78102B08D10820FFF793FB2D4B1B68DB070ED508260FE0294B1B78602B0AD1294A138808218B431380002604E0042602E0002600E084
:402D40000426002E39D129221F4B1A700022214B1A60214A1760214B1C60EBB220490B70019B5C00FF231C400120044318490B8883430B801B491C4B19601421FF311B4B2D
:402D800019601368072B03D80422194B1A6008E0184A1368802149000B4313600822144B1A60EB0704D5FFF71BFF134B1C6004E0114B1C600222114B1A600820FFF734FBE3
:402DC000300003B0F0BDC0466402002064002440740200208402002080020020780200207C02002017030000000F2440080F2440C80F244060002440400224406800244060
:402E00000230800803D00138FDD1C046C046C0467047EFF3108072B6704780F310887047024B1B68032018407047C04604000440024A106803231840106070471000044015
:402E400070B50400FFF7E5FF0500102C05D8104A136803218B43136016E0202C07D80C490B6803229343023A13430B600CE0302C07D807490B6803229343013A13430B6035
:402E800002E00020FFF7E4FA2800FFF7C6FF70BD3000104010B5AF4B1B68002B00D09847AD4B1B68DB0702D50022AC4B1A60AC4B1B789B0628D5AB4B1B68DB0507D5AA4A78
:402EC0001188C0239B000B431380012300E00023A44A1268D20706D5A34A118890239B000B4313800123002B0FD09D4A1278D20701D5012200E002229B49088802430A802A
:402F00000021974A117000E00023954A1278920600D417E1934A1268D20611D51022934B1A608F4B1B78DB0701D5012300E002238D4A11880B4313801022894B1A7007E188
:402F4000874A1278120720D5864A126892070AD50222864B1A60844A118888239B000B431380012311E07E4A1278D20703D525217B4A117009E02421794A11707C4A1268D3
:402F8000002A02D014397B4A1160754A1278520700D4AEE0724A1278D20749D5764A1268120727D5754A1268754909681F240C40744909686418141B082C09D8002C16D10A
:402FC000714A1168714B0B401360012308340EE008240CE06B4A11686D48006841186D480068C0B20870116801311160013C002CF0D119E0604A1268520715D5614A116848
:4030000063480068411863480068C0B208701168013111601168594A1268914203D204215D4A116000E001235C495D4A116060E04C4A1268920726D502224C4B1A60594914
:403040000B681D321A40096880231B020B4000D001239B18544A1168CB1A13601268534B1A60414A118884239B000B431380504B1A68802149020A431A6019684D4A0A4097
:403080001A60012335E04C4A1268D2061ED427E0454A1168364A126891421DD2344A1268013A414909688A4204D1402243490A6030490A603C4A11684148006841180978E4
:4030C000C9B240480160116801311160354A12681F210A40082ADBD11021384A116008E0354A1268520604D52F4B1A682F4B1A600123002B2CD0244A1168244B0B4013606A
:403100000023314A13601B4A1360304B1B789B070ED5134B1B78DB0701D5092300E00A23114A11880B43138060220D4B1A700FE0274B1B689B0601D5182200E01022164BF0
:403140001A6005E0064B1B78DB0601D4FFF7CAFB10BDC046500200208C0E2440880E2440640200200C0F244074020020000F244070020020880F2440CC0F244080020020E2
:40318000080324408402002060002440FFFEFFFF780200204003244068002440ED0F0000C00F244008022440680200206C02002004022440FFFFFEFF8C0F2440800F244022
:4031C0008802002040022440C80F24407C02002064002440002243088B4274D303098B425FD3030A8B4244D3030B8B4228D3030C8B420DD3FF22090212BA030C8B4202D326
:403200001212090265D0030B8B4219D300E0090AC30B8B4201D3CB03C01A5241830B8B4201D38B03C01A5241430B8B4201D34B03C01A5241030B8B4201D30B03C01A5241C8
:40324000C30A8B4201D3CB02C01A5241830A8B4201D38B02C01A5241430A8B4201D34B02C01A5241030A8B4201D30B02C01A5241CDD2C3098B4201D3CB01C01A52418309DD
:403280008B4201D38B01C01A524143098B4201D34B01C01A524103098B4201D30B01C01A5241C3088B4201D3CB00C01A524183088B4201D38B00C01A524143088B4201D3F4
:4032C0004B00C01A5241411A00D20146524110467047FFE701B5002000F006F802BDC0460029F7D076E770477047C046014B18687047C046FC0100200E4B70B500251E006B
:403300000D4CE41AA410A54204D0AB00F35898470135F8E700F0F2FE084B00251E00084CE41AA410A54204D0AB00F35898470135F8E770BD084100000841000008410000B4
:4033400010410000002310B59A4203D0CC5CC4540133F9E710BD03008218934202D019700133FAE7704700000CB430B5164B9DB00C1E1D6804DA8B2301202B6040421DE0F2
:40338000822302A99B008B810023029008619C4200D0631E8B604B6101235B42CB81209A21AB2800019300F08DF8431C01DA8B232B60002C02D00023029A13701DB030BC02
:4033C00008BC02B01847C046FC0100200023C25C0133002AFBD1581E7047002330B59A420BD0013AC45CCD5CAC4205D19A4202D00133002CF6D12500631B180030BD0000B9
:40340000F0B58E6885B007000C00039201939E4243D890238A89DB001A423ED003250969236801985B1A029363695D43EB0F5D19029B6D1001331B18AB4200D91D0053051A
:4034400010D52900380000F037FB061E14D0029A2169FFF777FFA289194B134080221343A38112E02A00380000F086FB061E0CD12169380000F0D4FA0C23402201203B60B9
:40348000A38940421343A38117E0029B2661F61826606561019EED1AA560019BB34200D21E0032000399206800F0A5FA0020A3689B1BA36023689E19266005B0F0BDC0464A
:4034C0007FFBFFFFF0B59FB0029005938B890F0016001B0610D50B69002B0DD1402100F0EBFA38603861002804D10C23029A01381360D8E040237B61002306AD6B612033B3
:403500006B761033AB7634002378002B03D1A31B049312D003E0252BF9D00134F4E7A31B320039000298FFF76BFF431C00D1B4E06A69049B944663446B612378002B00D1F8
:40354000ABE00122002352426A6002A95432521801342B60EB60AB601370AB65534E21780522300000F03CFA002807D00123801B83402A68013413432B60EFE72B68DA06AF
:4035800004D55322202102A8121811701A0704D553222B2102A81218117022782A2A03D0099B00200A210EE0059A111D12680591002A01DB099204E05242EA6002221343BF
:4035C0002B6001340BE02278303A092A04D84B4301349B180120F6E7002800D0099323782E2B1ED163782A2B0AD1059B02341A1D1B680592002B01DA01235B42079310E09F
:4036000000230A201A0001346B6021783039092904D84243013452180123F6E7002B00D00792234E21780322300000F0D9F9002806D04023801B83402A68013413432B60D2
:40364000217806221B48661C297600F0C9F9002812D0194B002B06D10722059B073393430833059314E005AB00933A00134B2900029800E000BF07E005AB00933A000F4B48
:403680002900029800F08AF80390039B013304D06B69039A9B186B6135E7BB890B985B0601D5012040421FB0F0BDC046C8400000CE400000D24000000000000001340000F0
:4036C000F7B5170001938A680B6900900C00934200DA130022003B6043321278002A01D001333B6023689B0602D53B6802333B60062523681D401ED0230043331B785A1E0E
:403700009341226892061CD53020E1184331087021005A1C45310978A2184332023311700FE022000123193201990098089EB047431C0ED00135E3683A689B1A9D42F0DBEC
:40374000DAE72200019943320098089DA847431C02D10120404220E006232068E1683A6803400025042B03D18D1AEB43DB171D40A3682269934201DD9B1AED180027BD4202
:403780000AD0220001231A3201990098089EB047431CDED00137F2E70020FEBDF0B58BB006920A0043320793059004920A7E0C00109B6E2A00D1ABE011D8632A22D009D89D
:4037C000002A00D1B5E0582A00D0C5E045310A70814A4FE0642A1DD0692A1BD0BCE0732A00D1AAE009D86F2A29D0702A00D0B3E0202209680A43226037E0752A1FD0782A92
:4038000033D0A9E00E001A684236111D196013683370A4E021681A68080606D4490604D5111D19600023D55E02E0111D19601568002D3BDA2D23049A6D42137036E021688C
:403840001A68080606D4490604D51568111D1960ADB202E0111D196015685F4B227E039308276F2A1DD00A271BE022007821453211705A4A19680392081D226818600D6863
:40388000100602D4500600D5ADB2D30702D520231A4322601027002D03D1202322689A4322602300002243331A7002E00A274A4B03936368A360002B09DB04222168914378
:4038C0002160002D05D1049E002B11D07BE0002D79D0049E28003900FFF702FD039B013E5B5C280033703900FFF774FC051EF1D1082F09D12368DB0706D563682269934266
:4039000002DC3023013E3370049B9B1B23612BE009681A68080607D4490605D5111D19601368A28A1A8004E0111D1960136862691A600023049E236116E01A68111D1960F0
:40394000166800216268300000F04AF8002801D0801B6060636803E0260042363270012323610023049A1370079B09AA00932100069B0598FFF7A4FE431C02D1012040429A
:4039800027E02369320006990598079DA847431CF4D0236800259B070FD4099BE068984217DA180015E022000123193206990598079EB047431CE1D00135E368099A9B1A05
:4039C0009D42F0DBE9E72600039B42361B7833708EE70BB0F0BDC046D9400000EA400000C9B28218904204D003788B4202D00130F8E70020704710B5884202D98B18984212
:403A000001D3002305E09B1A013A08D3995C8154FAE7934203D0CC5CC4540133F9E710BD70B50500002944D00C1F2368002B00DAE418280000F0D8F81E4A13681100002B46
:403A400002D16360146031E0A3420DD92268A018834203D118685B688218226063600C6024E0A24203D813005A68002AF9D11E689819A0420BD121687118581819608242B7
:403A800014D110685268411819605A600EE0A04202D90C232B6009E021686018824203D1106852684118216062605C60280000F09CF870BD58020020032370B5CD1C9D438B
:403AC000083506000C2D01D20C2501E0002D01DBA94202D90C23336048E0300000F084F8234B1C681A002100002913D00B685B1B0DD40B2B02D90B60CC181EE08C4202D10E
:403B0000636813601AE04B6863600C0016E00C004968E9E7174C2368002B03D1300000F051F820602900300000F04CF8431C18D00323C41C9C43A0420DD12560300000F054
:403B400054F8200007220B30231D9043C31A0ED05A42E2500BE0211A300000F033F8431CEBD10C233000336000F03FF8002070BD5802002054020020F8B506000C00150023
:403B8000002904D11100FFF797FF040018E0002A03D1FFF745FF2C0012E000F027F885420ED929003000FFF787FF071E07D021002A00FFF7C7FB21003000FFF731FF3C00D4
:403BC0002000F8BD002370B5064C050008002360FEF7B0F9431C03D12368002B00D02B6070BDC0468C020020704770470B1F1A68101F002A04DA891804390B68D01804383D
:403C000070470000000000002E1A0000341A00003A1A0000401A0000461A00004C1A00000C2D0000EC3C00001F000000103F00001700000006000000F03C000001000000AA
:403C40000C3F00001700000052000000510000002700000000000000020000000400000006000000080000000A0000000C0000000E000000100000001200000014000000AA
:403C800016000000180000001A0000001C0000001E00000020000000220000002400000026000000280000002A0000002C0000002E000000300000003200000034000000B4
:403CC00036000000380000003A0000003C0000003E00000040000000420000004400000046000000480000004A000000414D0000504D000025643A252E32642573202573DD
:403D00002025642C20323025642000002D2D2D2D2D2D2D2D2D2D2D2D2D2D2D2D2D2D2D2D0000000054696D65206F66204E65787420466565643A000054696D65206F66204A
:403D40004E65787420466565643A202000000000536574204D6F6E746800000025732025642C203230256400536574204461792020000000253032640000000053657420EB
:403D80005965617200000000323025303264000053657420486F75720000000025643A252E326425732020202020202020000000536574204D696E757465000053657420ED
:403DC000414D2F504D2020202000000053657420616D6F756E74206F662074696D657300746F2066656564004E756D626572206F662066656564733A20256400596F757224
:403E00002063617420646F65736E2774000000006E65656420746F20626520666564206D6F7265007468616E2031302074696D65732E00004E756D626572206F66206665C9
:403E40006564733A202564200000000046656564202325640000000053657420486F757220202000253032643A253032642573202020202020202000486F6C6420627574DF
:403E8000746F6E20746F000061646A75737420616D6F756E74206F6600000000666F6F642E2052656C65617365207768656E00007361746973666965642E00005475726E5E
:403EC000206B6E6F6220746F20746F67676C65004F6666004F6E00004F6E2000427574746F6E203D2053656C656374004B6E6F62203D2043686F69636500000053657420A7
:403F0000476C6F62616C2054696D6500417072004D61720053657420476C6F62616C2054696D652020202020000000004368616E676520466565642054696D6573202020F6
:403F4000000000004368616E6765204665656420416D6F756E742020000000005475726E206F6E2F6F6666204C45442773202020000000005475726E206F6E2F6F66662064
:403F8000537065616B657273000000004578697420202020202020202020202020202020000000004A616E00466562004D6179004A756E004A756C0041756700536570003F
:403FC0004F6374004E6F7600446563000000000040000000140000005400000000300F40000400400F40000483408C015B045F01960FA803AA0CAC06AE09B001B204B40203
:40400000B608BE55D804DB04DF010808100A18221A88680A6E806F68824086408B208C088F08942296089F40A810B204C204C403E280E403E8041E0456025A806E0482408E
:40404000C680D480D620DA80E6808A029E02528054805B405E208E80D407D604E002190850045810834084108C048D089F40A880B210C608D405E008E202E80102310F4060
:404080000F320F4016330F400A400F4002410F4008420F400F430F40030405060708090A0B0C0E0F101112131415161718191B1C1D1E1F2021222325262728292A2B2E2FB2
:4040C0003031323334354300232D302B2000686C4C00656667454647003031323334353637383941424344454600303132333435363738396162636465660000F8B5C046A8
:40410000F8BC08BC9E467047A1020000AD1F0000F8B5C046F8BC08BC9E4670477902000030410000C00000204001000090000000000000008813000001010000F401000008
:4041400004190000F03C0000041A0000F03C000005050000F03C00000000000000000000000000000000000000000000000000000000000000000000000000000000000076
:4041800000000000000000000000000000000000000102030405060708090A0B0C0D0E0FA43F0000A83F0000103F00000C3F0000AC3F0000B03F0000B43F0000B83F00005F
:4041C000BC3F0000C03F0000C43F0000C83F000001000000143F00002C3F0000443F00005C3F0000743F00008C3F000090020020010000000000C05D80BB00003000000025
:40420000006CDC02F0000000040404000000000000000000000000000000000000000000000000000000000000000000C64000000000000000000000000000000000000032
:4042400000000000000000000000000000000000000000000000000000000000000000000000000000000000000000009C0100200000000000000000000000000000000081
:4042800000000000000000000000000000000000000000000000000000000000000000000000000000000000000000000000000000000000000000000000000000000000FE
:4042C00000000000000000000000000000000000000000000000000000000000000000000000000000000000000000000000000000000000000000000000000000000000BE
:40430000000000000000000000000000000000000000000000000000000000000000000000000000000000000000000000000000000000000000000000000000000000007D
:40434000000000000000000000000000000000000000000000000000000000000000000000000000000000000000000000000000000000000000000000000000000000003D
:020000040001F9
:0200000490303A
:0200000081F687
:0200000490402A
:4000000000000000000000000000000000000000000000000000000000000000000000000000000000000000000000000000000000000000000000000000000000000000C0
:400040000000000000000000000000000000000000000000000000000000000000000000000000000000000000000000000000000000000000000000000000000000000080
:0200000490501A
:0C0000000002112D11A100011142939784
:0200000490600A
:0100000001FE
:00000001FF