:400000000040002011000000850600008506000010B500F057FBC04610B512221C4B1A60302000F0C5FC1B4A1B4B1A60BC2292011A4B1A601A4B1B4A1A608821C9011A4AA1
:4000400011601A4A1A60E8214901194A1160194A1A6080221206184B1A608022D202174B1A604123164A1360164A13604222164B1A60023A154B1A601549072000F0CEFBA7
:40008000072000F0B5FB0022124B1A6010BDC046300010400600008004010B40040301400000014041FF00800803014042FF00800003014040FF008008010B4000010B405E
:4000C000340101402C0101401401014008010140AD0B00000C020B4010B572B60122404B1A7000240FE03F486200131959000B00411889881A5AC31858880004104300F0DA
:40010000BBFA0134E4B2012CEDD936490C313648203000F087FACC229201344B1A60344A344B1A60344A354B1A60EE22344B1A60553A344B1A6099231B04334A1360B021BB
:400140000904324A1160324A1360E4218903314A1160314A1360A422D203304B1A6002212F4B19602F4803783C22934314221343DBB203702C4A107816230343DBB2137046
:400180000C222A4B1A602A4A2A4B1A600F232A4A13602A4A13602A4A2A4B1A6013222A4B1A602A4A2A4B1A6003222A4B1A602A4A2A4B1A608023DB00294A13608220000256
:4001C000284A1060284A1360284B19603122284B1A60284B1960FFF71FFF00F03DFA10BD1C700F40541E0000D41E000000000240333300000002024033EE0800000302407F
:40020000000402400007024000500F4008500F4020500F4028500F4030500F4038500F402000104001700F4000700F4000000440890D0000080004400C0004400002044012
:40024000B60D00000802044000030440B66D0000080304400004044024800100080404400C040440080504400C05044000070440080704401807044010B5064C2378002B9F
:4002800007D1054B002B02D0044800E000BF0123237010BD4801002000000000C01D0000084B10B5002B03D00749084800E000BF07480368002B00D110BD064B002BFBD045
:4002C0009847F9E7000000004C010020C01D0000C000002000000000F0B591B008AE0890099106AD069207930021002000F0F8F83378727816A909781F4F0AAC1898049004
:400300000391179902917168019100923A001521200001F019F900262675200000F016F90121002000F0DCF8144800F00FF90221002000F0D5F8124800F008F9032100208D
:4003400000F0CEF82B786A78944619AA10781B99049103901A9A02926A680192624600923A001521200001F0EFF82675200000F0EDF811B0F0BDC046F01D0000081E0000BB
:40038000201E0000F0B591B062B600F077FC002304221421272000F02BF800F0E7F80EAB12490A0011CA11C30BAB9C46180070CA70C009AC0A001432200060CA60C006AAF1
:4003C00008001C301500C8C8C8C503A868CA68C06A46634661CB61C2099A0A9B0E984968FFF77AFF00F02EFBFCE7C046C41D000010B5064C20700648017006490A70064A5A
:4004000013700822054B1A7010BDC0469D010020A2010020A30100209F0100209C01002010B50C000022002100F038FD0021200000F0C2FD002000F093FD10BD10B5044BF6
:400440001B7801001943034B1878FFF7E9FF10BD9C0100209D01002010B50400042003002343D8B2FFF7EAFF012000F0E1FA042320009843FFF7E2FF322000F0D9FA10BD02
:4004800010B50400FFF7DAFF2000FFF7E5FF10BD70B50D000F2302009A4313000001C4B20B431800FFF7ECFF20002843FFF7E8FF70BDC04610B50021FFF7EAFF10BDC04696
:4004C00010B50120FFF7F6FF022000F0DFF910BD10B50220FFF7EEFF022000F0D7F910BD70B584B06B460C4A70CA70C31C00136823600A4B1B788B4201D2013BD9B289003C
:400500006B46CB58C01880235B421843C0B2FFF7D1FF04B070BDC046441E0000A301002010B5064A107804231843C0B2107008231843C0B2FFF7BEFF10BDC0469E010020E1
:4005400010B50121FFF7A4FF10BDC04670B5060001F02CF80500002403E0305DFFF7F0FF0134FF232B409C42F7D370BD10B50022254B1A70254B1B78012B02D90821224A53
:400580001170234A1278002A06D0012B04D11E4A117804230B431370322000F077F91D4B1878FFF74BFFFA20800000F06FF93020FFF766FF184C200000F03AFA3020FFF764
:4005C0005FFF200000F034FA3020FFF759FF962000F02EFA2020FFF753FF0B4B187820231843C0B2FFF766FF04220C4B1A70FFF797FFFFF765FF0222094B1A700620FFF70F
:4006000059FFFFF765FF10BDA1010020A30100209F0100209C010020941100009E010020A0010020F0B50025002711E0BB00C658F3B2FF22964308E06A008A181478A4197C
:40064000527822700135013BDBB2002BF4D10137062FEBD9F0BDC0460323044A1360044A13600022034B1A607047C0463000304030003140000E3F4010B50A00002100F04E
:400680005AFF10BD10B500F021FF03680C2B00D1FEE7FEE710B50300084A1068C318084A9A1A802A02DC054A136005E000F00EFF0C2303600120404210BDC046C400002077
:4006C000D001002070B50F4E0F4D13E029686B68AC68002202E001C901C30432A242FAD1E868002202E0002102C304328242FAD11035013E002EE9D100F0EEFEFFF742FECC
:40070000FEE7C04601000000981F000010B50E4A136801218B43136000230AE0032B03D89A000A49505800E009489900094A885001332F2BF2D9FFF7CFFC034A1168012377
:400740000B43136010BDC0460000104000000000850600000000002000230AE00D4A12683F210A400C49C95C8A4201D1033303E001332D2BF2D9032308490868084A02405F
:400780000A60084A944663441B78DBB2064A13607047C0462CFF0B40101F000000002240FFFFFFBFCDF1FF0F28FF0B40034B18688023DB05184000D00120704700002240A8
:4007C00010B5040000F025FCE304E022920313401900054C2368054A1A400B001343236000F01BFC10BDC04600010B40FFFFC7FF1F2318401E3B8340014A13607047C046B1
:4008000000E100E01F2318401E3B8340014A13607047C04680E100E001BE704770B504000D001F2802D90020FFF7F6FF1034A40080239B059C4664442068256070BDC046B7
:4008400070B504000E00032902D90020FFF7E4FF1F2C02D90020FFF7DFFF03252540ED00063500F0D6FBA408A400074B9C46644421680323AB4099430B003100A94019438E
:40088000216000F0CAFB70BD00E400E010B5040006E0084B586800F0B3FB074B9C46644480231B029C42F4D8024B9868604300F0A7FB10BDC80000200080FFFF70B582B05F
:4008C00000F01EF900285DD000F0A3FB050000230AE02D4A12683F210A402C49C95C8A4201D1033303E001332D2BF2D903230021274A1160274A1268D20606D1254802681F
:400900001F318A4313390A430260234C2168234A1140234A5A438023DB019C466244D20B013A5205520D0B001343A0225203134323601C4B1B680193302000F071FB1A4A2B
:4009400013688021C9050B4313602668174B1E40002407E00120FFF799FF1034A30533430D4A1360EE2CF5D90120FFF78FFFFF239B051E43084B1E60019A0A4B1A60280085
:4009800000F04BFB02B070BD2CFF0B40101F000028FF0B4034FF0B400800224000F800C040420F003000104000002240FFFF3FC030B587B0040000F02CFB0500FFF7F6FED5
:4009C000002803D0FFF7C8FE012100E00021104B1B6800930F4B1B680193033C0E4B1B5D02930E4B1B68039304AA0D4B04936B4605930C4B1A600C480C4A10601B680129A6
:400A000001D1FFF75BFF280000F007FB07B030BD08010B4000010B40101F000030001040B6EA000008001040170000800400104010B5034B1B7B584300F0E2FA10BDC046C1
:400A4000C800002030B583B000F0E3FA04001E4A13685B005B0813601C4B1B685B000CD51B4801681B4B19401B4B1A68131D9B05FF22920513400B430360184B1B889BB219
:400A8000174A1360174A116804230B431360164D2B6801930220FFF793FE30BF019B2B600A4B1B685B000AD52320FFF7C1FF084A1168084B0B40FF2189050B431360200054
:400AC00000F0ABFA03B030BD00000B400000224008002240FFFF3FC028FF0B4052F1FF0F0C000B4010ED00E000010B40034B1868C0231B02184000D00120704700010B4050
:400B0000034B1B68002B01DA012000E0002070470000224010B500F07CFA044A1368C02109020B43136000F078FA10BD00010B4010B500F06EFA08490A68084B1A40802457
:400B4000E40122430A600A6813408022120213430B6000F062FA10BD00010B40FF3FFFFF70B5050000F055FA0400FFF7BFFF002803D0FFF7DDFF012100E00021084828401B
:400B8000084A1568084B2B40184310601368012901D1FFF7BFFF200000F03FFA70BDC0460404040010020B40FBFBFBFF10B5244B1B685B0715D5234B5B685B070ED5224BF7
:400BC000596A042001401F4C62688A4362605A6A82435A629B69002B00D098470420FFF7BFFF174B1B685B0518D5164B5B685B0510D5154B596A8022D20011401148426888
:400C00008A434260596A114A0A405A62DB69002B00D098478020C000FFF7A2FF084B1B685B030CD5074B5B685B0304D5064B1B6A002B00D098478020C002FFF791FF10BD46
:400C400010020B40DC00002064010020FFFBFFFF10B50820FFF7CCFD10BDC04610B500F01DF810BD10B5044A1368802109060B431360FFF7EDFF10BD0000244010B5064B60
:400C80001B78002B04D1FFF7E9FF0122024B1A70FFF7E8FF10BDC0468C01002010B50024184B1C60184A194B1A60194B194A1360194A1460194A1460194A1360194B1C60C6
:400CC0000820FFF79FFD03210820FFF7B9FD16490820FFF7A3FD154B1C60154B1C60154B1C60154B1C60154B1C60154B1C601022144B1A70144B1C80144B1C60144B1C6031
:400D000010BDC04600002440770800806000244007010080000324400403244010032440000224400402244075100000C80E2440880E2440480F2440080F2440C80F2440EE
:400D4000880F2440A4010020B4010020C4010020AC01002010B50E4A13685B005B08136000230C490B600C490B600C4804680C49214001600B490B600B490B6010210B4BE4
:400D800019701368802109060B43136010BDC04600002440680024406C00244060002440FF5CFFFF880F2440C80F2440A401002010B504000368002B09D00120FFF738FE4E
:400DC0002368013B2360002B03D0002003E0002001E08020000610BD10B5002839DBC023034208D00022284B1A601032274B1A70002310243DE0C3070FD5244B1B781B07A0
:400E00002BD5234B1B685B0001D5002300E0012310211E4A117001242BE0C30520D4830722D4C30605D51022184B1A70002300241FE0164B1B781B0719D5144B1B78DB0703
:400E400001D5252200E02422104B1A70002300240FE00123802424060BE00123012408E001238024640004E00023022401E000230024012B02D1FFF76DFF02E0054A064BA2
:400E80001A60200010BDC04668002440A40100206000244017030000000F244070B582B004000D001600244B1B78102B40D10820FFF7A8FC214B1B68DB0734D4FA239B00C4
:400EC0005E43019600221E4B1A601E4A1E4B1A601E4A1F4B1A606400FF231C40002D03D12422154B1A7004E02522134B1A7001231C43184B1C600222174B1A60124B1C68B5
:400F00000823FF3320001840144B1B68C02423401843040001A8FFF74BFF2043EED0FFF75BFF040000E008240820FFF761FC00E00424200002B070BDA401002064002440DB
:400F4000080F244017030000000F2440ED0F0000C00F24404002244068002440400F244010B582B0104B1B789B061AD5FA239B00584301900D4B1B689B0601D5182200E050
:400F800010220B4B1A600B4B18681223FF331840040001A8FFF70CFF2043F4D0FFF71CFF00E0042002B010BDA40100206400244068002440000F244010B582B00D4B1B7883
:400FC0009B0613D5FA239B00594301910A4B18600A4B18680823FF331840040001A8FFF7E7FE2043F4D0FFF7F7FE00E0042002B010BDC046A401002040022440000F24402A
:401000000230800803D00138FDD1C046C046C0467047EFF3108072B6704780F31088704770B50400FFF7F5FF0500102C05D8104A136803218B43136016E0202C07D80C495F
:401040000B6803229343023A13430B600CE0302C07D807490B6803229343013A13430B6002E00020FFF7D8FB2800FFF7D6FF70BD3000104010B5AF4B1B68002B00D098479D
:40108000AD4B1B68DB0702D50022AC4B1A60AC4B1B789B0628D5AB4B1B68DB0507D5AA4A1188C0239B000B431380012300E00023A44A1268D20706D5A34A118890239B0009
:4010C0000B4313800123002B0FD09D4A1278D20701D5012200E002229B49088802430A800021974A117000E00023954A1278920600D417E1934A1268D20611D51022934BDF
:401100001A608F4B1B78DB0701D5012300E002238D4A11880B4313801022894B1A7007E1874A1278120720D5864A126892070AD50222864B1A60844A118888239B000B4389
:401140001380012311E07E4A1278D20703D525217B4A117009E02421794A11707C4A1268002A02D014397B4A1160754A1278520700D4AEE0724A1278D20749D5764A12688C
:40118000120727D5754A1268754909681F240C40744909686418141B082C09D8002C16D1714A1168714B0B401360012308340EE008240CE06B4A11686D48006841186D48B5
:4011C0000068C0B20870116801311160013C002CF0D119E0604A1268520715D5614A116863480068411863480068C0B208701168013111601168594A1268914203D20421EB
:401200005D4A116000E001235C495D4A116060E04C4A1268920726D502224C4B1A6059490B681D321A40096880231B020B4000D001239B18544A1168CB1A13601268534B54
:401240001A60414A118884239B000B431380504B1A68802149020A431A6019684D4A0A401A60012335E04C4A1268D2061ED427E0454A1168364A126891421DD2344A12682B
:40128000013A414909688A4204D1402243490A6030490A603C4A11684148006841180978C9B240480160116801311160354A12681F210A40082ADBD11021384A116008E065
:4012C000354A1268520604D52F4B1A682F4B1A600123002B2CD0244A1168244B0B4013600023314A13601B4A1360304B1B789B070ED5134B1B78DB0701D5092300E00A2317
:40130000114A11880B43138060220D4B1A700FE0274B1B689B0601D5182200E01022164B1A6005E0064B1B78DB0601D4FFF712FD10BDC046900100208C0E2440880E2440F2
:40134000A40100200C0F2440B4010020000F2440B0010020880F2440CC0F2440C001002008032440C401002060002440FFFEFFFFB80100204003244068002440ED0F00009A
:40138000C00F244008022440A8010020AC01002004022440FFFFFEFF8C0F2440800F2440C801002040022440C80F2440BC01002064002440002243088B4274D303098B42D6
:4013C0005FD3030A8B4244D3030B8B4228D3030C8B420DD3FF22090212BA030C8B4202D31212090265D0030B8B4219D300E0090AC30B8B4201D3CB03C01A5241830B8B426C
:4014000001D38B03C01A5241430B8B4201D34B03C01A5241030B8B4201D30B03C01A5241C30A8B4201D3CB02C01A5241830A8B4201D38B02C01A5241430A8B4201D34B02FE
:40144000C01A5241030A8B4201D30B02C01A5241CDD2C3098B4201D3CB01C01A524183098B4201D38B01C01A524143098B4201D34B01C01A524103098B4201D30B01C01A33
:401480005241C3088B4201D3CB00C01A524183088B4201D38B00C01A524143088B4201D34B00C01A5241411A00D20146524110467047FFE701B5002000F006F802BDC046AA
:4014C0000029F7D076E770477047C046014B18687047C046440100200E4B70B500251E000D4CE41AA410A54204D0AB00F35898470135F8E700F03EFD084B00251E00084CB7
:40150000E41AA410A54204D0AB00F35898470135F8E770BD801F0000801F0000801F0000881F0000002310B59A4203D0CC5CC4540133F9E710BD03008218934202D019701E
:401540000133FAE7704700000CB430B5164B9DB00C1E1D6804DA8B2301202B6040421DE0822302A99B008B810023029008619C4200D0631E8B604B6101235B42CB81209A44
:4015800021AB2800019300F07BF8431C01DA8B232B60002C02D00023029A13701DB030BC08BC02B01847C046440100200023C25C0133002AFBD1581E70470000F0B58E6861
:4015C00085B007000C00039201939E4243D890238A89DB001A423ED003250969236801985B1A029363695D43EB0F5D19029B6D1001331B18AB4200D91D00530510D5290006
:40160000380000F037FB061E14D0029A2169FFF789FFA289194B134080221343A38112E02A00380000F086FB061E0CD12169380000F0D4FA0C23402201203B60A389404265
:401640001343A38117E0029B2661F61826606561019EED1AA560019BB34200D21E0032000399206800F0A5FA0020A3689B1BA36023689E19266005B0F0BDC0467FFBFFFFDE
:40168000F0B59FB0029005938B890F0016001B0610D50B69002B0DD1402100F0EBFA38603861002804D10C23029A01381360D8E040237B61002306AD6B6120336B76103365
:4016C000AB7634002378002B03D1A31B049312D003E0252BF9D00134F4E7A31B320039000298FFF76BFF431C00D1B4E06A69049B944663446B612378002B00D1ABE00122CD
:40170000002352426A6002A95432521801342B60EB60AB601370AB65534E21780522300000F03CFA002807D00123801B83402A68013413432B60EFE72B68DA0604D553226D
:40174000202102A8121811701A0704D553222B2102A81218117022782A2A03D0099B00200A210EE0059A111D12680591002A01DB099204E05242EA60022213432B600134AB
:401780000BE02278303A092A04D84B4301349B180120F6E7002800D0099323782E2B1ED163782A2B0AD1059B02341A1D1B680592002B01DA01235B42079310E000230A2070
:4017C0001A0001346B6021783039092904D84243013452180123F6E7002B00D00792234E21780322300000F0D9F9002806D04023801B83402A68013413432B6021780622BD
:401800001B48661C297600F0C9F9002812D0194B002B06D10722059B073393430833059314E005AB00933A00134B2900029800E000BF07E005AB00933A000F4B29000298A4
:4018400000F08AF80390039B013304D06B69039A9B186B6135E7BB890B985B0601D5012040421FB0F0BDC046401F0000461F00004A1F000000000000BD150000F7B51700AC
:4018800001938A680B6900900C00934200DA130022003B6043321278002A01D001333B6023689B0602D53B6802333B60062523681D401ED0230043331B785A1E93412268D1
:4018C00092061CD53020E1184331087021005A1C45310978A2184332023311700FE022000123193201990098089EB047431C0ED00135E3683A689B1A9D42F0DBDAE72200C6
:40190000019943320098089DA847431C02D10120404220E006232068E1683A6803400025042B03D18D1AEB43DB171D40A3682269934201DD9B1AED180027BD420AD0220047
:4019400001231A3201990098089EB047431CDED00137F2E70020FEBDF0B58BB006920A0043320793059004920A7E0C00109B6E2A00D1ABE011D8632A22D009D8002A00D1FC
:40198000B5E0582A00D0C5E045310A70814A4FE0642A1DD0692A1BD0BCE0732A00D1AAE009D86F2A29D0702A00D0B3E0202209680A43226037E0752A1FD0782A33D0A9E05F
:4019C0000E001A684236111D196013683370A4E021681A68080606D4490604D5111D19600023D55E02E0111D19601568002D3BDA2D23049A6D42137036E021681A680806E7
:401A000006D4490604D51568111D1960ADB202E0111D196015685F4B227E039308276F2A1DD00A271BE022007821453211705A4A19680392081D226818600D68100602D465
:401A4000500600D5ADB2D30702D520231A4322601027002D03D1202322689A4322602300002243331A7002E00A274A4B03936368A360002B09DB0422216891432160002D14
:401A800005D1049E002B11D07BE0002D79D0049E28003900FFF714FD039B013E5B5C280033703900FFF786FC051EF1D1082F09D12368DB0706D563682269934202DC30231D
:401AC000013E3370049B9B1B23612BE009681A68080607D4490605D5111D19601368A28A1A8004E0111D1960136862691A600023049E236116E01A68111D196016680021E1
:401B00006268300000F04AF8002801D0801B6060636803E0260042363270012323610023049A1370079B09AA00932100069B0598FFF7A4FE431C02D10120404227E0236904
:401B4000320006990598079DA847431CF4D0236800259B070FD4099BE068984217DA180015E022000123193206990598079EB047431CE1D00135E368099A9B1A9D42F0DB4C
:401B8000E9E72600039B42361B7833708EE70BB0F0BDC046511F0000621F0000C9B28218904204D003788B4202D00130F8E70020704710B5884202D98B18984201D3002375
:401BC00005E09B1A013A08D3995C8154FAE7934203D0CC5CC4540133F9E710BD70B50500002944D00C1F2368002B00DAE418280000F0D8F81E4A13681100002B02D1636006
:401C0000146031E0A3420DD92268A018834203D118685B688218226063600C6024E0A24203D813005A68002AF9D11E689819A0420BD12168711858181960824214D110684E
:401C40005268411819605A600EE0A04202D90C232B6009E021686018824203D1106852684118216062605C60280000F09CF870BD98010020032370B5CD1C9D4308350600C4
:401C80000C2D01D20C2501E0002D01DBA94202D90C23336048E0300000F084F8234B1C681A002100002913D00B685B1B0DD40B2B02D90B60CC181EE08C4202D16368136071
:401CC0001AE04B6863600C0016E00C004968E9E7174C2368002B03D1300000F051F820602900300000F04CF8431C18D00323C41C9C43A0420DD12560300000F054F8200085
:401D000007220B30231D9043C31A0ED05A42E2500BE0211A300000F033F8431CEBD10C233000336000F03FF8002070BD9801002094010020F8B506000C001500002904D171
:401D40001100FFF797FF040018E0002A03D1FFF745FF2C0012E000F027F885420ED929003000FFF787FF071E07D021002A00FFF7D9FB21003000FFF731FF3C002000F8BD49
:401D8000002370B5064C050008002360FEF782FC431C03D12368002B00D02B6070BDC046CC010020704770470B1F1A68101F002A04DA891804390B68D018043870470000A5
:401DC000000000000C2D0000401E00001F0000003C1E0000E707000006000000381E000001000000341E0000E70700002700000025643A252E326425732025732025642C50
:401E000020256C75000000002D2D2D2D2D2D2D2D2D2D2D2D2D2D2D2D2D2D2D2D0000000054696D65206F66204E65787420466565643A000041707200504D00004D61720007
:401E4000414D00000000000040000000140000005400000000300F40000400400F40000483408C015B045F01960FA803AA0CAC06AE09B001B204B402B608BE55D804DB04EF
:401E8000DF010808100A18221A88680A6E806F68824086408B208C088F08942296089F40A810B204C204C403E280E403E8041E0456025A806E048240C680D480D620DA80D2
:401EC000E6808A029E02528054805B405E208E80D407D604E002190850045810834084108C048D089F40A880B210C608D405E008E202E80102310F400F320F4016330F40C4
:401F00000A400F4002410F4008420F400F430F40030405060708090A0B0C0E0F101112131415161718191B1C1D1E1F2021222325262728292A2B2E2F303132333435430009
:401F4000232D302B2000686C4C00656667454647003031323334353637383941424344454600303132333435363738396162636465660000F8B5C046F8BC08BC9E467047A8
:401F8000A10200000D070000F8B5C046F8BC08BC9E46704779020000A81F0000C0000020880000008800000000000000D0010020010000000000C05D80BB000030000000F8
:401FC000006CDC02F00000000404040000000000000000000000000000000000000000000000000000000000000000003E1F0000000000000000000000000000000000003E
:402000000000000000000000000000000000000000000000000000000000000000000000000000000000000000000000E4000020000000000000000000000000000000009C
:402040000000000000000000000000000000000000000000000000000000000000000000000000000000000000000000000000000000000000000000000000000000000060
:402080000000000000000000000000000000000000000000000000000000000000000000000000000000000000000000000000000000000000000000000000000000000020
:4020C00000000000000000000000000000000000000000000000000000000000000000000000000000000000000000000000000000000000000000000000000000000000E0
:40210000000000000000000000000000000000000000000000000000000000000000000000000000000000000000000000000000000000000000000000000000000000009F
:020000040001F9
:0200000490303A
:02000000E1B16C
:0200000490402A
:4000000000000000000000000000000000000000000000000000000000000000000000000000000000000000000000000000000000000000000000000000000000000000C0
:400040000000000000000000000000000000000000000000000000000000000000000000000000000000000000000000000000000000000000000000000000000000000080
:0200000490501A
:0C0000000002112D11A100011136F35275
:0200000490600A
:0100000001FE
:00000001FF