:400000000040002011000000C1160000C116000010B501F075FBC04610B512221C4B1A60302001F0AFFE1B4A1B4B1A60BC2292011A4B1A601A4B1B4A1A608821C9011A4AFD
:4000400011601A4A1A60E8214901194A1160194A1A6080221206184B1A608022D202174B1A604123164A1360164A13604222164B1A60023A154B1A601549072001F0B8FDBA
:40008000072001F09FFD0022124B1A6010BDC046300010400600008004010B40040301400000014041FF00800803014042FF00800003014040FF008008010B4000010B4071
:4000C000340101402C0101401401014008010140D91E00000C020B4010B572B60122404B1A7000240FE03F486200131959000B00411889881A5AC31858880004104301F09A
:40010000D9FA0134E4B2012CEDD936490C313648203001F0A5FACC229201344B1A60344A344B1A60344A354B1A60EE22344B1A60553A344B1A6099231B04334A1360B0217E
:400140000904324A1160324A1360E4218903314A1160314A1360A422D203304B1A6002212F4B19602F4803783C22934314221343DBB203702C4A107816230343DBB2137046
:400180000C222A4B1A602A4A2A4B1A600F232A4A13602A4A13602A4A2A4B1A6013222A4B1A602A4A2A4B1A6003222A4B1A602A4A2A4B1A608023DB00294A13608220000256
:4001C000284A1060284A1360284B19603122284B1A60284B1960FFF71FFF01F05BFA10BD1C700F402C370000AC37000000000240333300000002024033EE0800000302407E
:40020000000402400007024000500F4008500F4020500F4028500F4030500F4038500F402000104001700F4000700F4000000440890D0000080004400C0004400002044012
:40024000B60D00000802044000030440B66D0000080304400004044024800100080404400C040440080504400C05044000070440080704401807044010B5064C2378002B9F
:4002800007D1054B002B02D0044800E000BF0123237010BD0002002000000000A4330000084B10B5002B03D00749084800E000BF07480368002B00D110BD064B002BFBD092
:4002C0009847F9E70000000004020020A4330000C00000200000000010B503071B0F012B04DC0F2398430B3B184304E0013B0F221340904318430007040F022C0FD002D8DC
:40030000012C10D012E0032C05D0042C0ED1092001F05CFB0AE0032001F058FB06E0062001F054FB02E00C2001F050FB024B188801F068FD200010BDC400002002099300A1
:40034000D3185A000F2318401018C0B27047C04670B505000A2102F00DFB04010A21280002F08EFB6118C8B270BDC04670B582B005000E00140001A90B7002230122200004
:4003800002F00CF801F0D2FF8307FBD501F0E6FF012332002900200002F07CF801F0C6FFC307FBD501F0DAFF02B070BD10B51400037000230A000100200001F0EFFF01F0ED
:4003C000B5FF8307FBD501F0C9FF10BDF0B5474680B490B008AE0890099106AD069207930021002001F09AF83378727816A9097816A8007A1F4F0AAC049003911799029196
:400400007168019100923A001521200002F07CFB00262675200001F0B7F80121002001F07DF8154801F0B0F80221002001F076F8124801F0A9F80321002001F06FF82B78DA
:400440006A78904619AA1078117A049103901A9A02926A680192424600923A001521200002F052FB2675200001F08EF810B004BC9046F0BD3C340000543400006C34000063
:4004800082B030B58FB006AC06900791129213930221002001F042F8114801F075F80321002001F03BF82378627812A9097812A8007A08AD049003911399029161680191D3
:4004C0000092084A1521280002F01EFB00232B75280001F059F80FB030BC08BC02B018476C3400003C34000082B030B58FB006AC06900791129213930021002001F00EF83A
:400500002378627812A9097812A8007A08AD0490039113990291616801910092094A1521280002F0F1FA00232B75280001F02CF80121002000F0F2FF0FB030BC08BC02B0FB
:400540001847C0463C340000F0B5474680B492B02D4B1B780AAC2D4DDB00EB181433220003CB03C26B7A09AE512201213000FFF7FDFEEB7A08AA9046512201214046FFF799
:40058000F5FE2B7B07AF512201213800FFF7EEFE3078FFF7D3FE060043461878FFF7CEFE013880002818436E98463878FFF7C6FE07000121002000F0B1FF154800F0E4FFE2
:4005C0000221002000F0AAFF124800F0DDFF0321002000F0A3FF237862780CAD04970396414602916168019100920B4A1521280002F08AFA00232B75280000F0C5FF12B030
:4006000004BC9046F0BDC0461C020020C400002054340000803400003C34000070B500250BE0274C6069FFF757FE0F231840237D0F229343034323750135214B9B699D4253
:40064000EFD3002001F0C2F9FA24A400200001F0C9F8200001F0CEF801F0A2F9194801F043F9322001F048F901F028F9002624E0134B1B7F012B01D101F092F9104B5B7F00
:40068000012B01D101F00AF900250BE0E0B201F097F9012001F0E4FA013400E00024032CF4DD0135632DF9DD01F086F801F006F99620400001F0D4FA0136072ED8DD70BDFE
:4006C00044010020EE020000F0B54F4680B49EB000F014FF0021002000F020FFD04800F053FFD04D6B7A13AF512201213800FFF73DFEEB7A12AC512201212000FFF736FE78
:400700002B7B11AE512201213000FFF72FFE3878FFF714FE07002078FFF710FE441EA300ED186B6E99463078FFF708FE05000221002000F0F3FE3E00019500974B46BA4A82
:40074000152114A802F0E0F914A800F01DFF23E0B64B5B78012B1FD1B44B00225A709B78012B03D10C2C09D001340AE0AF4B9B78022B06D1012C03D0013C02E0012400E09E
:400780000C240221002000F0C9FE631E9B00A54AD318586E00F0F8FEA44BDB78002BD7D0E4B20022A14BDA700021002000F0B6FE9F4800F0E9FE25E09C4B5B78012B21D1EB
:4007C0009A4B00225A709B78012B03D11F2E09D001360AE0954B9B78022B06D1012E03D0013E02E0012600E01F260221042000F095FE33008F4A032105A802F085F905A8A4
:4008000000F0C2FE894BDB78002BD5D0874B0022DA700EA90E70DA700021002000F07EFE854800F0B1FE25E0804B5B78012B21D17E4B00225A709B78012B03D1632D09D049
:4008400001350AE0794B9B78022B06D1002D03D0013D02E0002500E063250221082000F05DFE2B00754A052105A802F04DF905A800F08AFE6D4BDB78002BD5D000226B4B6D
:40088000DA700EAB1D72674DEB79513201210DA8FFF76CFD2B7A0CAD512201212800FFF765FD2878122813D9FFF748FD1AAD0C3828700DAB1878FFF741FD6870604B6B60F4
:4008C00003AB1A0003CD03C20AAA03CB03C211E0FFF734FD1CAD28700DAB1878FFF72EFD6870584B6B6005AB1A0003CD03C20AAA03CB03C20021002000F010FE524800F0BD
:4009000043FE0221002000F009FE0AAB1D785E780B9B019300962B004C4A152114A802F0F3F814A800F030FE25E0404B5B78012B21D13E4B00225A709B78012B03D10C2DA0
:4009400009D001350AE0394B9B78022B06D1012D03D0013D02E0012500E00C250221002000F0DCFD2B00334A032102A802F0CCF802A800F009FE2D4BDB78002BD5D0EDB278
:4009800008AB1D700022294BDA700021002000F0C5FD2F4800F0F8FD25E0244B5B78012B21D1224B00225A709B78012B03D13B2E09D001360AE01D4B9B78022B06D1002EE7
:4009C00003D0013E02E0002600E03B260221032000F0A4FD3300174A052102A802F094F802A800F0D1FD114BDB78002BD5D0F6B200220E4BDA700021002000F08FFD154875
:400A000000F0C2FD002735E0084B5B78012B31D10022064B5A70002F1ED101371DE0C04698340000C4000020A43400001C020020B0340000BC340000C4340000D03400004B
:400A4000D8340000DC340000E0340000EC340000003500000C35000000270221052000F05DFD002F03D12F4800F08EFD02E02E4800F08AFD2D4BDB78002BC5D000222B4B10
:400A8000DA70002F02D00C3508AB1D7007AD00236B70274FBB79512202212800FFF786FC3000FFF755FC6870FB79512202212800FFF77CFC08AB1878FFF74AFC68703B7ADD
:400AC000512202212800FFF771FC0EAE3078FFF73FFC68707B7A512202212800FFF766FC06236B70BB7A512202212800FFF75EFC2000FFF72DFC6870FB7A512202212800CC
:400B0000FFF754FC307AFFF723FC68703B7B512202212800FFF74AFCFFF716FD1EB004BC9146F0BDDC340000D83400001C020020C4000020F0B54F4680B49EB000F0DEFC49
:400B4000CD4C002525710021002000F0E7FCCB4800F01AFD0121002000F0E0FCC84800F013FD0221002000F0D9FC237914ACC54A1521200001F0C8FF2575200000F004FD29
:400B80006AE0BD4B5B78012B66D1BB4B00225A709B78012B44D1B84B1B790A2B3CD100F0ADFC0021002000F0B9FCB74800F0ECFC0121002000F0B2FCB44800F0E5FC022168
:400BC000002000F0ABFCB24800F0DEFCFA20C00001F046F800F092FC0021002000F09EFCA64800F0D1FC0121002000F097FCA44800F0CAFC0221002000F090FC9E4B1B79DA
:400C000014ACA04A1521200001F07EFF00232375200000F0B9FC0EE00133974A13710AE0954B9B78022B06D1934B1B79002B02D0013B914A13710221002000F06FFC8E4BDD
:400C40001B7914AC934A1521200001F05DFF00232375200000F098FC874BDB78002B90D00022854BDA7000F049FC002530E10021002000F053FC6B1C0393874A152114A88A
:400C800001F042FF14A800F07FFC844EF3795122012104A8FFF76AFB337A05AE512201213000FFF763FB3078122816D9FFF746FB1AAE0C38307004AB1878FFF73FFB707085
:400CC000774B7360082231000AA801F00BFF08220AA906A801F006FF14E0FFF72FFB1CAE307004AB1878FFF729FB70706D4B7360082231000CA801F0F5FE08220CA906A814
:400D000001F0F0FE0121002000F008FC664800F03BFC0221002000F001FC06AB1E785F78B946079C019400973300604A152114A801F0EAFE14A800F027FC2AE04E4B5B78C0
:400D4000012B26D14C4B00225A709B78012B04D10C2E0BD00136F6B20BE0474B9B78022B07D1012E04D0013EF6B202E0012600E00C260221002000F0D1FB01944B46009373
:400D800033004A4A15210EA801F0BEFE0EA800F0FBFB394BDB78002BD0D008AB1E700022354BDA700121002000F0B8FB404800F0EBFB29E0304B5B78012B25D12E4B002211
:400DC0005A709B78012B04D13B2F0BD00137FFB20BE0294B9B78022B07D1002F04D0013FFFB202E0002700E03B270221002000F095FB0194009733002C4A15210EA801F0BC
:400E000083FE0EA800F0C0FB1B4BDB78002BD1D008AB5F700022184BDA700121002000F07DFB244800F0B0FB002618E0124B5B78012B14D10022104B5A70002E01D101366C
:400E400000E000260221052000F068FB002E03D1144800F099FB02E0114800F095FB064BDB78002BE2D00022034BDA70002E23D10B4B099324E0C0461C0200201C3500004C
:400E800030350000383500004C3500006035000074350000843500009C350000C4000020D8340000DC340000A8350000B4350000003500000C350000012E01D10A4B0993E9
:400EC000ED000A4B5D19143508AB06CB06C5039D074B1B799D4200DAC9E6FFF735FB1EB004BC9146F0BDC046DC340000C40000201C02002010B500F001FB0021002000F062
:400F00000DFB1E4800F040FB0121002000F006FB1B4800F039FB0221002000F0FFFA194800F032FB0321002000F0F8FA164800F02BFB164BDB78002BFBD00023144A9361FB
:400F4000124AD3700DE0124CA3690133A3616069FFF7C2F90F231840237D0F2293431843207500F017FC0128EDD0002000F02EFD0022064BDA70FFF7E7FA10BDC835000026
:400F8000D8350000EC350000003600001C0200204401002010B500F0B1FA0021002000F0BDFA284800F0F0FA0221002000F0B6FA254B5B7F002B03D1244800F0E5FA37E01A
:400FC000234800F0E1FA33E0224B5B78012B20D1204B00225A709B78012B0BD11A4B5B7F002B03D10132184B5A7712E00022164B5A770EE0174B9B78022B0AD1124B5B7F4C
:40100000002B03D10122104B5A7702E000220E4B5A770221002000F081FA0B4B5B7F002B03D10A4800F0B0FA02E00B4800F0ACFA084BDB78002BC7D00022064BDA70FFF785
:4010400083FA10BD0C3600004401002020360000243600001C0200202836000010B500F04DFA0021002000F059FA284800F08CFA0221002000F052FA254B1B7F002B03D145
:40108000244800F081FA37E0234800F07DFA33E0224B5B78012B20D1204B00225A709B78012B0BD11A4B1B7F002B03D10132184B1A7712E00022164B1A770EE0174B9B7800
:4010C000022B0AD1124B1B7F002B03D10122104B1A7702E000220E4B1A770221002000F01DFA0B4B1B7F002B03D10A4800F04CFA02E00B4800F048FA084BDB78002BC7D065
:401100000022064BDA70FFF71FFA10BD0C3600004401002020360000243600001C0200202836000010B500F0E9F90021002000F0F5F9314800F028FA0121002000F0EEF9C9
:401140002E4800F021FA0221002000F0E7F92C4800F01AFA0321002000F0E0F9294800F013FAFA20800000F07BFD002424E0264B5B78012B16D1244B00225A709B78012BCD
:4011800004D1052C0BD00134E4B20BE01E4B9B78022B07D1002C04D0013CE4B202E0002400E005240321002000F0B8F9A300174AD318186A00F0E8F9134BDB78002BD6D08C
:4011C0000022114BDA70052C14D8A400104B1B599F46FFF779FA0DE0FFF7ACFC0AE0FFF789FE07E0FFF7D6FE04E0FFF737FF01E0FFF7AAF910BDC0462C3600003C36000075
:40120000543400004C3600001C02002044010020A8330000F0B5A7B000F014FC00F090FC62B600F0C1FE002304221421272000F0FDF800F0B9F920AB77490A0011CA11C357
:401240001DAB9C46180070CA70C01BAC0A001432200060CA60C018AA08001C301500C8C8C8C503A868CA68C06A46634661CB61C21B9A1C9B20984968FFF7A8F817AC002678
:401280006670664D2B79512202212000FFF78EF866706B79512202212000FFF787F85F4CA3795122012108A8FFF760F8E3795122012109A8FFF75AF8237A0AAD51220121BD
:4012C0002800FFF753F8637A512201210BA8FFF74DF8E37A512201210CA8FFF747F8237B512201210DA8FFF741F82878122816D9FFF724F822AC0C38207009AB1878FFF77C
:401300001DF86070464B63600822210010A801F0E9FB082210A90EA801F0E4FB14E0FFF70DF824AC207009AB1878FFF707F860703C4B63600822210012A801F0D3FB0822A3
:4013400012A90EA801F0CEFB0BAB1878FEF7F6FF14AC20700CAB1878FEF7F0FF01382F4D80002818476E67600DAB1878FEF7E6FF20720EAEA3680093149A3B000E980F9961
:40138000FFF7B2F83278284B1C78E300EB181B7D9A422DD10EAB5A78E3002049CB185B7D9A4225D1E300CB189B690F9A9A421FD1022C0AD0631CDB00CB1898690222194915
:4013C00001F0DBFB002800D117D00134E1B2164B1970C900114B5918169B07930093149A159B48698969FFF74BF8FFF717F904E0022C02D100220C4B1A700B4BDB78012B23
:4014000004D10022084BDA70FFF78CFEFA20800000F026FC43E7C046C0330000C4000020D8340000DC3400001C02002010B5064C20700648017006490A70064A137008225F
:40144000054B1A7010BDC0465D02002062020020630200205F0200205C02002010B50C000022002100F0B0FE0021200000F03AFF002000F00BFF10BD10B5044B1B7801008D
:401480001943034B1878FFF7E9FF10BD5C0200205D02002010B50400042003002343D8B2FFF7EAFF012000F0ADFC042320009843FFF7E2FF322000F0A5FC10BD10B504005F
:4014C000FFF7DAFF2000FFF7E5FF10BD70B50D000F2302009A4313000001C4B20B431800FFF7ECFF20002843FFF7E8FF70BDC04610B50021FFF7EAFF10BDC04610B5012029
:40150000FFF7F6FF022000F0ABFB10BD10B50220FFF7EEFF022000F0A3FB10BD70B584B06B460C4A70CA70C31C00136823600A4B1B788B4201D2013BD9B289006B46CB5861
:40154000C01880235B421843C0B2FFF7D1FF04B070BDC0461C3700006302002010B5064A107804231843C0B2107008231843C0B2FFF7BEFF10BDC0465E02002010B501210B
:40158000FFF7A4FF10BDC04670B5060001F0EEFA0500002403E0305DFFF7F0FF0134FF232B409C42F7D370BD10B50022254B1A70254B1B78012B02D90821224A1170234A38
:4015C0001278002A06D0012B04D11E4A117804230B431370322000F043FB1D4B1878FFF74BFFFA20800000F03BFB3020FFF766FF184C200000F006FC3020FFF75FFF20001A
:4016000000F000FC3020FFF759FF962000F0FAFB2020FFF753FF0B4B187820231843C0B2FFF766FF04220C4B1A70FFF797FFFFF765FF0222094B1A700620FFF759FFFFF753
:4016400065FF10BD61020020630200205F0200205C020020941100005E02002060020020F0B50025002711E0BB00C658F3B2FF22964308E06A008A181478A4195278227098
:401680000135013BDBB2002BF4D10137062FEBD9F0BDC0460323044A1360044A13600022034B1A607047C0463000304030003140000E3F4010B50A00002101F01CFA10BD76
:4016C00010B501F0E3F903680C2B00D1FEE7FEE710B50300084A1068C318084A9A1A802A02DC054A136005E001F0D0F90C2303600120404210BDC0467C0100209002002068
:4017000070B50F4E0F4D13E029686B68AC68002202E001C901C30432A242FAD1E868002202E0002102C304328242FAD11035013E002EE9D101F0B0F9FFF76CFDFEE7C0469A
:40174000010000007038000010B50E4A136801218B43136000230AE0032B03D89A000A49505800E009489900094A885001332F2BF2D9FEF7B1FC034A116801230B4313607F
:4017800010BDC0460000104000000000C116000000000020024B1868400901231840704704040440034A10682023184010604009C0B270471004044010B500F0FAFE044AE5
:4017C000136801218B43136000F0F7FE10BDC046000020400004000C014B18607047C046080120400004000C014B18607047C046140120400004000C014B18607047C04662
:401800000C01204070B504000D0000F0D2FEAC40024B1C6000F0D1FE70BDC0460800204010B500F0C6FE064A116801230B43136000F0C3FE18210120FFF7E4FF10BDC04658
:4018400000002040014B18607047C0463801204010B50E4C8023DB042360236823600020FFF7B8FF236823600C22094B1A600120FFF7E8FF3122074B1A60074C2000FFF75F
:40188000B1FF2000FFF7B6FF10BDC046000120402401204028012040FFFF000010B5064B1B78002B04D1FFF7D3FF0122024B1A70FFF7B6FF10BDC0462102002010B500F08C
:4018C00078FE044A136804218B43136000F075FE10BDC046000020400004000C014B18607047C046880120400004000C014B18607047C046940120400004000C014B1860D9
:401900007047C0468C01204070B504000D0000F050FEAC40024B1C6000F04FFE70BDC0460800204010B500F044FE064A116804230B43136000F041FE18210420FFF7E4FFEF
:4019400010BDC04600002040014B18607047C046B801204010B50E4C8023DB042360236823600020FFF7B8FF236823600C22094B1A600120FFF7E8FF3122074B1A60074C21
:401980002000FFF7B1FF2000FFF7B6FF10BDC04680012040A4012040A8012040FFFF000010B5064B1B78002B04D1FFF7D3FF0122024B1A70FFF7B6FF10BDC04622020020A9
:4019C000014B18707047C04673000F40014B18707047C04672000F4010B5142000F040F9FFF7E0FEFFF7D6FE012803D10122034B1A7002E00022014B1A7010BD1F020020A2
:401A0000014B18657047C0460000002010B5040000F0CFFD044A1368C0218B43A4011C43146000F0CAFD10BD04E400E01022014B1A60704700E100E01022014B1A60704720
:401A400080E100E010B5FFF7F7FF0448FFF7D8FF0320FFF7DBFFFFF7E9FF10BDD919000010B584B000F0ACFD0390002400E0013400F0A6FD039B984202D11D4B9C42F6DD76
:401A800000F09EFD0290002400E0013400F098FD029B984202D1164B9C42F6DD00F090FD0190002400E0013400F08AFD019B984202D10F4B9C42F6DD039B012B09D1019B9D
:401AC000022B06D101220B4B1A7001320A4B1A7009E0039B022B06D1019B012B03D1054A1370054A137000F073FD04B010BDC0469F8601001D0200201E020020014B1864AE
:401B00007047C0460000002010B5040000F051FD044A1368C0218B43A4011C43146000F04CFD10BD00E400E00122014B1A60704700E100E00122014B1A60704780E100E0C5
:401B400010B5FFF7F7FF0448FFF7D8FF0320FFF7DBFFFFF7E9FF10BD611A000000230AE00D4A12683F210A400C49C95C8A4201D1033303E001332D2BF2D90323084908688B
:401B8000084A02400A60084A944663441B78DBB2064A13607047C0462CFF0B40E837000000002240FFFFFFBFCDF1FF0F28FF0B40034B18688023DB05184000D00120704772
:401BC000000022401F2318401E3B8340014A13607047C04600E100E01F2318401E3B8340014A13607047C04680E100E001BE704770B504000D001F2802D90020FFF7F6FF46
:401C00001034A40080239B059C4664442068256070BDC04670B504000E00032902D90020FFF7E4FF1F2C02D90020FFF7DFFF03252540ED00063500F0BCFCA408A400074B5F
:401C40009C46644421680323AB4099430B003100A9401943216000F0B0FC70BD00E400E010B5040006E0084B586800F099FC074B9C46644480231B029C42F4D8024B9868FB
:401C8000604300F08DFC10BD800100200080FFFF70B582B000F0CAF800285DD000F089FC050000230AE02D4A12683F210A402C49C95C8A4201D1033303E001332D2BF2D9F4
:401CC00003230021274A1160274A1268D20606D1254802681F318A4313390A430260234C2168234A1140234A5A438023DB019C466244D20B013A5205520D0B001343A0227A
:401D00005203134323601C4B1B680193302000F067FC1A4A13688021C9050B4313602668174B1E40002407E00120FFF799FF1034A30533430D4A1360EE2CF5D90120FFF712
:401D40008FFFFF239B051E43084B1E60019A0A4B1A60280000F031FC02B070BD2CFF0B40E837000028FF0B4034FF0B400800224000F800C040420F00300010400000224039
:401D8000FFFF3FC030B587B0040000F012FC0500FFF70EFF002803D0FFF7E0FE012100E00021104B1B6800930F4B1B680193033C0E4B1B5D02930E4B1B68039304AA0D4B0F
:401DC00004936B4605930C4B1A600C480C4A10601B68012901D1FFF75BFF280000F0EDFB07B030BD08010B4000010B40E837000030001040B6EA00000800104017000080D7
:401E00000400104010B5034B1B7B584300F0C8FB10BDC04680010020034B1868C0231B02184000D00120704700010B40034B1B68002B01DA012000E00020704700002240B8
:401E400010B500F0B6FB044A1368C02109020B43136000F0B2FB10BD00010B4010B500F0A8FB08490A68084B1A408024E40122430A600A6813408022120213430B6000F084
:401E80009CFB10BD00010B40FF3FFFFF70B5050000F08FFB0400FFF7BFFF002803D0FFF7DDFF012100E0002108482840084A1568084B2B40184310601368012901D1FFF76D
:401EC000BFFF200000F079FB70BDC0460404040010020B40FBFBFBFF10B5244B1B685B0715D5234B5B685B070ED5224B596A042001401F4C62688A4362605A6A82435A62FD
:401F00009B69002B00D098470420FFF7BFFF174B1B685B0518D5164B5B685B0510D5154B596A8022D2001140114842688A434260596A114A0A405A62DB69002B00D09847B4
:401F40008020C000FFF7A2FF084B1B685B030CD5074B5B685B0304D5064B1B6A002B00D098478020C002FFF791FF10BD10020B409401002024020020FFFBFFFF10B5082067
:401F8000FFF720FE10BDC04610B500F01DF810BD10B5044A1368802109060B431360FFF7EDFF10BD0000244010B5064B1B78002B04D1FFF7E9FF0122024B1A70FFF7E8FF33
:401FC00010BDC0464C02002010B50024184B1C60184A194B1A60194B194A1360194A1460194A1460194A1360194B1C600820FFF7F3FD03210820FFF70DFE16490820FFF722
:40200000F7FD154B1C60154B1C60154B1C60154B1C60154B1C60154B1C601022144B1A70144B1C80144B1C60144B1C6010BDC0460000244077080080600024400701008036
:40204000000324400403244010032440000224400402244035260000C80E2440880E2440480F2440080F2440C80F2440880F24406402002074020020840200206C020020FC
:4020800010B50E4A13685B005B08136000230C490B600C490B600C4804680C49214001600B490B600B490B6010210B4B19701368802109060B43136010BDC046000024402C
:4020C000680024406C00244060002440FF5CFFFF880F2440C80F24406402002010B504000368002B09D00120FFF78CFE2368013B2360002B03D0002003E0002001E08020A6
:40210000000610BD10B5002839DBC023034208D00022284B1A601032274B1A70002310243DE0C3070FD5244B1B781B072BD5234B1B685B0001D5002300E0012310211E4A56
:40214000117001242BE0C30520D4830722D4C30605D51022184B1A70002300241FE0164B1B781B0719D5144B1B78DB0701D5252200E02422104B1A70002300240FE0012310
:40218000802424060BE00123012408E001238024640004E00023022401E000230024012B02D1FFF76DFF02E0054A064B1A60200010BDC0466800244064020020600024404E
:4021C00017030000000F244070B582B004000D001600244B1B78102B40D10820FFF7FCFC214B1B68DB0734D4FA239B005E43019600221E4B1A601E4A1E4B1A601E4A1F4B85
:402200001A606400FF231C40002D03D12422154B1A7004E02522134B1A7001231C43184B1C600222174B1A60124B1C680823FF3320001840144B1B68C0242340184304005E
:4022400001A8FFF74BFF2043EED0FFF75BFF040000E008240820FFF7B5FC00E00424200002B070BD6402002064002440080F244017030000000F2440ED0F0000C00F244099
:402280004002244068002440400F244010B582B0104B1B789B061AD5FA239B00584301900D4B1B689B0601D5182200E010220B4B1A600B4B18681223FF331840040001A8F0
:4022C000FFF70CFF2043F4D0FFF71CFF00E0042002B010BD640200206400244068002440000F244010B582B00D4B1B789B0613D5FA239B00594301910A4B18600A4B1868A2
:402300000823FF331840040001A8FFF7E7FE2043F4D0FFF7F7FE00E0042002B010BDC0466402002040022440000F244010B50820FFF752FC074B1C88A2B21400064B1B78B3
:402340009B0602D504231A4394B20820FFF73AFC200010BD740200206402002010B50820FFF73AFC044B1C88A4B200221A800820FFF728FC200010BD74020020054B1B6808
:402380002022134000D0082301221343024A13607047C0466400244068002440F0B583B001900C0017001D00002917D02A4B1B78102B08D10820FFF70FFC284B1B68DB072E
:4023C0000ED508260FE0244B1B78602B0AD1244A138808218B431380002604E0042602E0002600E00426002E2FD128221A4B1A7000231C4A13601C4A13601C4B1F601C4B13
:402400001C60EAB21B4B1A70019B5C00FF231C40134A138802218B4313804023164A13601649174A11601421FF31164A1160164A1360EB0704D5FFF7A1FF144B1C6004E012
:40244000124B1C600222124B1A600820FFF7BAFB300003B0F0BDC046640200206400244074020020680200206C02002070020020880200207C020020800F2440170300003C
:40248000000F2440080F2440880F24404002244068002440F0B583B001900C0017001D00002917D02F4B1B78102B08D10820FFF793FB2D4B1B68DB070ED508260FE0294BEA
:4024C0001B78602B0AD1294A138808218B431380002604E0042602E0002600E00426002E39D129221F4B1A700022214B1A60214A1760214B1C60EBB220490B70019B5C0043
:40250000FF231C400120044318490B8883430B801B491C4B19601421FF311B4B19601368072B03D80422194B1A6008E0184A1368802149000B4313600822144B1A60EB07F7
:4025400004D5FFF71BFF134B1C6004E0114B1C600222114B1A600820FFF734FB300003B0F0BDC0466402002064002440740200208402002080020020780200207C0200209B
:4025800017030000000F2440080F2440C80F2440600024404002244068002440000000000230800803D00138FDD1C046C046C0467047EFF3108072B6704780F31088704732
:4025C000024B1B68032018407047C04604000440024A106803231840106070471000044070B50400FFF7E5FF0500102C05D8104A136803218B43136016E0202C07D80C49FD
:402600000B6803229343023A13430B600CE0302C07D807490B6803229343013A13430B6002E00020FFF7E2FA2800FFF7C6FF70BD3000104010B5AF4B1B68002B00D09847CE
:40264000AD4B1B68DB0702D50022AC4B1A60AC4B1B789B0628D5AB4B1B68DB0507D5AA4A1188C0239B000B431380012300E00023A44A1268D20706D5A34A118890239B0033
:402680000B4313800123002B0FD09D4A1278D20701D5012200E002229B49088802430A800021974A117000E00023954A1278920600D417E1934A1268D20611D51022934B09
:4026C0001A608F4B1B78DB0701D5012300E002238D4A11880B4313801022894B1A7007E1874A1278120720D5864A126892070AD50222864B1A60844A118888239B000B43B4
:402700001380012311E07E4A1278D20703D525217B4A117009E02421794A11707C4A1268002A02D014397B4A1160754A1278520700D4AEE0724A1278D20749D5764A1268B6
:40274000120727D5754A1268754909681F240C40744909686418141B082C09D8002C16D1714A1168714B0B401360012308340EE008240CE06B4A11686D48006841186D48DF
:402780000068C0B20870116801311160013C002CF0D119E0604A1268520715D5614A116863480068411863480068C0B208701168013111601168594A1268914203D2042115
:4027C0005D4A116000E001235C495D4A116060E04C4A1268920726D502224C4B1A6059490B681D321A40096880231B020B4000D001239B18544A1168CB1A13601268534B7F
:402800001A60414A118884239B000B431380504B1A68802149020A431A6019684D4A0A401A60012335E04C4A1268D2061ED427E0454A1168364A126891421DD2344A126855
:40284000013A414909688A4204D1402243490A6030490A603C4A11684148006841180978C9B240480160116801311160354A12681F210A40082ADBD11021384A116008E08F
:40288000354A1268520604D52F4B1A682F4B1A600123002B2CD0244A1168244B0B4013600023314A13601B4A1360304B1B789B070ED5134B1B78DB0701D5092300E00A2341
:4028C000114A11880B43138060220D4B1A700FE0274B1B689B0601D5182200E01022164B1A6005E0064B1B78DB0601D4FFF7C8FB10BDC046500200208C0E2440880E2440A8
:40290000640200200C0F244074020020000F244070020020880F2440CC0F244080020020080324408402002060002440FFFEFFFF780200204003244068002440ED0F00003E
:40294000C00F244008022440680200206C02002004022440FFFFFEFF8C0F2440800F24408802002040022440C80F24407C02002064002440002243088B4274D303098B42FC
:402980005FD3030A8B4244D3030B8B4228D3030C8B420DD3FF22090212BA030C8B4202D31212090265D0030B8B4219D300E0090AC30B8B4201D3CB03C01A5241830B8B4296
:4029C00001D38B03C01A5241430B8B4201D34B03C01A5241030B8B4201D30B03C01A5241C30A8B4201D3CB02C01A5241830A8B4201D38B02C01A5241430A8B4201D34B0229
:402A0000C01A5241030A8B4201D30B02C01A5241CDD2C3098B4201D3CB01C01A524183098B4201D38B01C01A524143098B4201D34B01C01A524103098B4201D30B01C01A5D
:402A40005241C3088B4201D3CB00C01A524183088B4201D38B00C01A524143088B4201D34B00C01A5241411A00D20146524110467047FFE701B5002000F006F802BDC046D4
:402A80000029F7D076E770477047C046014B18687047C046FC0100200E4B70B500251E000D4CE41AA410A54204D0AB00F35898470135F8E700F0CAFE084B00251E00084C9C
:402AC000E41AA410A54204D0AB00F35898470135F8E770BD58380000583800005838000060380000002310B59A4203D0CC5CC4540133F9E710BD03008218934202D0197085
:402B00000133FAE7704700000CB430B5164B9DB00C1E1D6804DA8B2301202B6040421DE0822302A99B008B810023029008619C4200D0631E8B604B6101235B42CB81209A6E
:402B400021AB2800019300F08DF8431C01DA8B232B60002C02D00023029A13701DB030BC08BC02B01847C046FC0100200023C25C0133002AFBD1581E7047002330B59A4278
:402B80000BD0013AC45CCD5CAC4205D19A4202D00133002CF6D12500631B180030BD0000F0B58E6885B007000C00039201939E4243D890238A89DB001A423ED003250969C9
:402BC000236801985B1A029363695D43EB0F5D19029B6D1001331B18AB4200D91D00530510D52900380000F037FB061E14D0029A2169FFF777FFA289194B13408022134333
:402C0000A38112E02A00380000F086FB061E0CD12169380000F0D4FA0C23402201203B60A38940421343A38117E0029B2661F61826606561019EED1AA560019BB34200D232
:402C40001E0032000399206800F0A5FA0020A3689B1BA36023689E19266005B0F0BDC0467FFBFFFFF0B59FB0029005938B890F0016001B0610D50B69002B0DD1402100F09A
:402C8000EBFA38603861002804D10C23029A01381360D8E040237B61002306AD6B6120336B761033AB7634002378002B03D1A31B049312D003E0252BF9D00134F4E7A31B8A
:402CC000320039000298FFF76BFF431C00D1B4E06A69049B944663446B612378002B00D1ABE00122002352426A6002A95432521801342B60EB60AB601370AB65534E2178A8
:402D00000522300000F03CFA002807D00123801B83402A68013413432B60EFE72B68DA0604D55322202102A8121811701A0704D553222B2102A81218117022782A2A03D0EF
:402D4000099B00200A210EE0059A111D12680591002A01DB099204E05242EA60022213432B6001340BE02278303A092A04D84B4301349B180120F6E7002800D0099323785B
:402D80002E2B1ED163782A2B0AD1059B02341A1D1B680592002B01DA01235B42079310E000230A201A0001346B6021783039092904D84243013452180123F6E7002B00D0B1
:402DC0000792234E21780322300000F0D9F9002806D04023801B83402A68013413432B60217806221B48661C297600F0C9F9002812D0194B002B06D10722059B0733934372
:402E00000833059314E005AB00933A00134B2900029800E000BF07E005AB00933A000F4B2900029800F08AF80390039B013304D06B69039A9B186B6135E7BB890B985B060E
:402E400001D5012040421FB0F0BDC046183800001E3800002238000000000000A12B0000F7B5170001938A680B6900900C00934200DA130022003B6043321278002A01D0B9
:402E800001333B6023689B0602D53B6802333B60062523681D401ED0230043331B785A1E9341226892061CD53020E1184331087021005A1C45310978A21843320233117099
:402EC0000FE022000123193201990098089EB047431C0ED00135E3683A689B1A9D42F0DBDAE72200019943320098089DA847431C02D10120404220E006232068E1683A6835
:402F000003400025042B03D18D1AEB43DB171D40A3682269934201DD9B1AED180027BD420AD0220001231A3201990098089EB047431CDED00137F2E70020FEBDF0B58BB0C5
:402F400006920A0043320793059004920A7E0C00109B6E2A00D1ABE011D8632A22D009D8002A00D1B5E0582A00D0C5E045310A70814A4FE0642A1DD0692A1BD0BCE0732A56
:402F800000D1AAE009D86F2A29D0702A00D0B3E0202209680A43226037E0752A1FD0782A33D0A9E00E001A684236111D196013683370A4E021681A68080606D4490604D585
:402FC000111D19600023D55E02E0111D19601568002D3BDA2D23049A6D42137036E021681A68080606D4490604D51568111D1960ADB202E0111D196015685F4B227E0393D2
:4030000008276F2A1DD00A271BE022007821453211705A4A19680392081D226818600D68100602D4500600D5ADB2D30702D520231A4322601027002D03D1202322689A437B
:4030400022602300002243331A7002E00A274A4B03936368A360002B09DB0422216891432160002D05D1049E002B11D07BE0002D79D0049E28003900FFF702FD039B013E13
:403080005B5C280033703900FFF774FC051EF1D1082F09D12368DB0706D563682269934202DC3023013E3370049B9B1B23612BE009681A68080607D4490605D5111D1960E3
:4030C0001368A28A1A8004E0111D1960136862691A600023049E236116E01A68111D1960166800216268300000F04AF8002801D0801B6060636803E02600423632700123AB
:4031000023610023049A1370079B09AA00932100069B0598FFF7A4FE431C02D10120404227E02369320006990598079DA847431CF4D0236800259B070FD4099BE068984261
:4031400017DA180015E022000123193206990598079EB047431CE1D00135E368099A9B1A9D42F0DBE9E72600039B42361B7833708EE70BB0F0BDC046293800003A3800005D
:40318000C9B28218904204D003788B4202D00130F8E70020704710B5884202D98B18984201D3002305E09B1A013A08D3995C8154FAE7934203D0CC5CC4540133F9E710BD51
:4031C00070B50500002944D00C1F2368002B00DAE418280000F0D8F81E4A13681100002B02D16360146031E0A3420DD92268A018834203D118685B688218226063600C605B
:4032000024E0A24203D813005A68002AF9D11E689819A0420BD12168711858181960824214D110685268411819605A600EE0A04202D90C232B6009E021686018824203D1C4
:40324000106852684118216062605C60280000F09CF870BD58020020032370B5CD1C9D43083506000C2D01D20C2501E0002D01DBA94202D90C23336048E0300000F084F8A7
:40328000234B1C681A002100002913D00B685B1B0DD40B2B02D90B60CC181EE08C4202D1636813601AE04B6863600C0016E00C004968E9E7174C2368002B03D1300000F0C2
:4032C00051F820602900300000F04CF8431C18D00323C41C9C43A0420DD12560300000F054F8200007220B30231D9043C31A0ED05A42E2500BE0211A300000F033F8431CAB
:40330000EBD10C233000336000F03FF8002070BD5802002054020020F8B506000C001500002904D11100FFF797FF040018E0002A03D1FFF745FF2C0012E000F027F88542E4
:403340000ED929003000FFF787FF071E07D021002A00FFF7C7FB21003000FFF731FF3C002000F8BD002370B5064C050008002360FEF7AEF9431C03D12368002B00D02B6000
:4033800070BDC0468C020020704770470B1F1A68101F002A04DA891804390B68D01804387047000000000000D2110000D8110000DE110000E4110000EA110000F011000003
:4033C0000C2D0000DC3400001F000000603600001700000006000000D8340000010000005C360000170000005200000051000000270000000000000002000000040000002C
:4034000006000000080000000A0000000C0000000E0000000000000000000000000000000000000000000000000000000000000000000000000000000000000025643A2572
:403440002E326425732025732025642C20323025642000002D2D2D2D2D2D2D2D2D2D2D2D2D2D2D2D2D2D2D2D0000000054696D65206F66204E65787420466565643A0000A3
:4034800054696D65206F66204E65787420466565643A202000000000536574204D6F6E746800000025732025642C203230256400536574204461792020000000253032645C
:4034C000000000005365742059656172000000003230253032640000504D0000414D000053657420486F75720000000025643A252E32642573202020202020202000000049
:40350000536574204D696E757465000053657420414D2F504D2020202000000053657420616D6F756E74206F662074696D657300746F2066656564004E756D626572206F01
:40354000662066656564733A20256400596F75722063617420646F65736E2774000000006E65656420746F20626520666564206D6F7265007468616E2031302074696D655D
:40358000732E00004E756D626572206F662066656564733A202564200000000046656564202325640000000053657420486F757220202000253032643A2530326425732090
:4035C0002020202020202000486F6C6420627574746F6E20746F000061646A75737420616D6F756E74206F6600000000666F6F642E2052656C65617365207768656E0000E8
:403600007361746973666965642E00005475726E206B6E6F6220746F20746F67676C65004F6666004F6E00004F6E2000427574746F6E203D2053656C656374004B6E6F62F0
:40364000203D2043686F69636500000053657420476C6F62616C2054696D6500417072004D61720053657420476C6F62616C2054696D652020202020000000004368616E8D
:40368000676520466565642054696D6573202020000000004368616E6765204665656420416D6F756E742020000000005475726E206F6E2F6F6666204C454427732020207B
:4036C000000000005475726E206F6E2F6F666620537065616B657273000000004578697420202020202020202020202020202020000000004A616E00466562004D61790075
:403700004A756E004A756C0041756700536570004F6374004E6F7600446563000000000040000000140000005400000000300F40000400400F40000483408C015B045F01BA
:40374000960FA803AA0CAC06AE09B001B204B402B608BE55D804DB04DF010808100A18221A88680A6E806F68824086408B208C088F08942296089F40A810B204C204C40388
:40378000E280E403E8041E0456025A806E048240C680D480D620DA80E6808A029E02528054805B405E208E80D407D604E002190850045810834084108C048D089F40A8800C
:4037C000B210C608D405E008E202E80102310F400F320F4016330F400A400F4002410F4008420F400F430F40030405060708090A0B0C0E0F101112131415161718191B1C30
:403800001D1E1F2021222325262728292A2B2E2F3031323334354300232D302B2000686C4C0065666745464700303132333435363738394142434445460030313233343501
:40384000363738396162636465660000F8B5C046F8BC08BC9E467047A102000049170000F8B5C046F8BC08BC9E4670477902000080380000C00000204001000090000000A2
:403880000000000088130000000102030405060708090A0B0C0D0E0F04190000D8340000041A0000D834000005050000D8340000000000000000000000000000000000008C
:4038C00000000000000000000000000000000000000000000000000000000000000000000000000000000000F4360000F8360000603600005C360000FC36000000370000DF
:4039000004370000083700000C37000010370000143700001837000001000000F401000001010000643600007C36000094360000AC360000C4360000DC360000900200203B
:40394000010000000000C05D80BB000030000000006CDC02F0000000040404000000000000000000000000000000000000000000000000000000000000000000163800002A
:403980000000000000000000000000000000000000000000000000000000000000000000000000000000000000000000000000000000000000000000000000009C0100204A
:4039C00000000000000000000000000000000000000000000000000000000000000000000000000000000000000000000000000000000000000000000000000000000000C7
:403A00000000000000000000000000000000000000000000000000000000000000000000000000000000000000000000000000000000000000000000000000000000000086
:403A40000000000000000000000000000000000000000000000000000000000000000000000000000000000000000000000000000000000000000000000000000000000046
:403A80000000000000000000000000000000000000000000000000000000000000000000000000000000000000000000000000000000000000000000000000000000000006
:020000040001F9
:0200000490303A
:020000008F71FE
:0200000490402A
:4000000000000000000000000000000000000000000000000000000000000000000000000000000000000000000000000000000000000000000000000000000000000000C0
:400040000000000000000000000000000000000000000000000000000000000000000000000000000000000000000000000000000000000000000000000000000000000080
:0200000490501A
:0C0000000002112D11A10001113FA112FE
:0200000490600A
:0100000001FE
:00000001FF