:400000000040002011000000A10F0000A10F000010B500F0E5FFC04610B512221C4B1A60302001F0FDF91B4A1B4B1A60BC2292011A4B1A601A4B1B4A1A608821C9011A4A8F
:4000400011601A4A1A60E8214901194A1160194A1A6080221206184B1A608022D202174B1A604123164A1360164A13604222164B1A60023A154B1A601549072001F006F970
:40008000072001F0EDF80022124B1A6010BDC046300010400600008004010B40040301400000014041FF00800803014042FF00800003014040FF008008010B4000010B4028
:4000C000340101402C0101401401014008010140751500000C020B4010B572B60122404B1A7000240FE03F486200131959000B00411889881A5AC31858880004104300F008
:4001000049FF0134E4B2012CEDD936490C313648203000F015FFCC229201344B1A60344A344B1A60344A354B1A60EE22344B1A60553A344B1A6099231B04334A1360B02195
:400140000904324A1160324A1360E4218903314A1160314A1360A422D203304B1A6002212F4B19602F4803783C22934314221343DBB203702C4A107816230343DBB2137046
:400180000C222A4B1A602A4A2A4B1A600F232A4A13602A4A13602A4A2A4B1A6013222A4B1A602A4A2A4B1A6003222A4B1A602A4A2A4B1A608023DB00294A13608220000256
:4001C000284A1060284A1360284B19603122284B1A60284B1960FFF71FFF00F0CBFE10BD1C700F40742C0000F42C000000000240333300000002024033EE08000003024091
:40020000000402400007024000500F4008500F4020500F4028500F4030500F4038500F402000104001700F4000700F4000000440890D0000080004400C0004400002044012
:40024000B60D00000802044000030440B66D0000080304400004044024800100080404400C040440080504400C05044000070440080704401807044010B5064C2378002B9F
:4002800007D1054B002B02D0044800E000BF0123237010BDF001002000000000602A0000084B10B5002B03D00749084800E000BF07480368002B00D110BD064B002BFBD0F0
:4002C0009847F9E700000000F4010020602A0000C00000200000000002099300D3185A000F2318401018C0B27047C04670B505000A2101F09DFE04010A21280001F01EFFB5
:400300006118C8B270BDC04670B582B005000E00140001A90B7002230122200001F08CFB01F052FB8307FBD501F066FB012332002900200001F0FCFB01F046FBC307FBD5D7
:4003400001F05AFB02B070BD10B51400037000230A000100200001F06FFB01F035FB8307FBD501F049FB10BDF0B5474680B490B008AE0890099106AD069207930021002032
:4003800000F03CFD3378727816A9097816A8007A1F4F0AAC04900391179902917168019100923A001521200001F00CFF00262675200000F059FD0121002000F01FFD15481D
:4003C00000F052FD0221002000F018FD124800F04BFD0321002000F011FD2B786A78904619AA1078117A049103901A9A02926A680192424600923A001521200001F0E2FE21
:400400002675200000F030FD10B004BC9046F0BD942A0000AC2A0000C42A000082B030B58FB006AC06900791129213930221002000F0E4FC114800F017FD0321002000F03B
:40044000DDFC2378627812A9097812A8007A08AD0490039113990291616801910092084A1521280001F0AEFE00232B75280000F0FBFC0FB030BC08BC02B01847C42A000028
:40048000942A000082B030B58FB006AC06900791129213930021002000F0B0FC2378627812A9097812A8007A08AD0490039113990291616801910092094A1521280001F091
:4004C00081FE00232B75280000F0CEFC0121002000F094FC0FB030BC08BC02B01847C046942A0000F0B5474680B492B02D4B1B780AAC2D4DDB00EB181033220003CB03C219
:400500006B7909AE512201213000FFF7FDFEEB7908AA9046512201214046FFF7F5FE2B7A07AF512201213800FFF7EEFE3078FFF7D3FE060043461878FFF7CEFE0138800067
:400540002818036E98463878FFF7C6FE07000121002000F053FC154800F086FC0221002000F04CFC124800F07FFC0321002000F045FC237862780CAD0497039641460291FA
:400580006168019100920B4A1521280001F01AFE00232B75280000F067FC12B004BC9046F0BDC0460C020020C4000020AC2A0000D82A0000942A0000F0B54F4680B49EB0E5
:4005C00000F00CFC0021002000F018FCD04800F04BFCD04D6B7913AF512201213800FFF793FEEB7912AC512201212000FFF78CFE2B7A11AE512201213000FFF785FE3878AF
:40060000FFF76AFE07002078FFF766FE441EA300ED182B6E99463078FFF75EFE05000221002000F0EBFB3E00019500974B46BA4A152114A801F0C6FD14A800F015FC23E063
:40064000B64B5B78012B1FD1B44B00225A709B78012B03D10C2C09D001340AE0AF4B9B78022B06D1012C03D0013C02E0012400E00C240221002000F0C1FB631E9B00A54AFD
:40068000D318186E00F0F0FBA44BDB78002BD7D0E4B20022A14BDA700021002000F0AEFB9F4800F0E1FB25E09C4B5B78012B21D19A4B00225A709B78012B03D11F2E09D078
:4006C00001360AE0954B9B78022B06D1012E03D0013E02E0012600E01F260221042000F08DFB33008F4A032105A801F06BFD05A800F0BAFB894BDB78002BD5D0874B002241
:40070000DA700EA90E70DA700021002000F076FB854800F0A9FB25E0804B5B78012B21D17E4B00225A709B78012B03D1632D09D001350AE0794B9B78022B06D1002D03D000
:40074000013D02E0002500E063250221082000F055FB2B00754A052105A801F033FD05A800F082FB6D4BDB78002BD5D000226B4BDA700EAB1D72674DEB78513201210DA893
:40078000FFF7C2FD2B790CAD512201212800FFF7BBFD2878122813D9FFF79EFD1AAD0C3828700DAB1878FFF797FD6870604B6B6003AB1A0003CD03C20AAA03CB03C211E00D
:4007C000FFF78AFD1CAD28700DAB1878FFF784FD6870584B6B6005AB1A0003CD03C20AAA03CB03C20021002000F008FB524800F03BFB0221002000F001FB0AAB1D785E782D
:400800000B9B019300962B004C4A152114A801F0D9FC14A800F028FB25E0404B5B78012B21D13E4B00225A709B78012B03D10C2D09D001350AE0394B9B78022B06D1012D9C
:4008400003D0013D02E0012500E00C250221002000F0D4FA2B00334A032102A801F0B2FC02A800F001FB2D4BDB78002BD5D0EDB208AB1D700022294BDA700021002000F017
:40088000BDFA2F4800F0F0FA25E0244B5B78012B21D1224B00225A709B78012B03D13B2E09D001360AE01D4B9B78022B06D1002E03D0013E02E0002600E03B2602210320AE
:4008C00000F09CFA3300174A052102A801F07AFC02A800F0C9FA114BDB78002BD5D0F6B200220E4BDA700021002000F087FA154800F0BAFA002735E0084B5B78012B31D11B
:400900000022064B5A70002F1ED101371DE0C046F02A0000C4000020FC2A00000C020020082B0000142B00001C2B0000282B0000302B0000342B0000382B0000442B000037
:40094000582B0000642B000000270221052000F055FA002F03D12F4800F086FA02E02E4800F082FA2D4BDB78002BC5D000222B4BDA70002F02D00C3508AB1D7007AD002343
:400980006B70274FBB78512202212800FFF7DCFC3000FFF7ABFC6870FB78512202212800FFF7D2FC08AB1878FFF7A0FC68703B79512202212800FFF7C7FC0EAE3078FFF75B
:4009C00095FC68707B79512202212800FFF7BCFC06236B70BB79512202212800FFF7B4FC2000FFF783FC6870FB79512202212800FFF7AAFC307AFFF779FC68703B7A512242
:400A000002212800FFF7A0FCFFF76CFD1EB004BC9146F0BD342B0000302B00000C020020C400002010B500F0D9F90021002000F0E5F92A4800F018FA0121002000F0DEF989
:400A4000274800F011FA0221002000F0D7F9254800F00AFA0321002000F0D0F9224800F003FAFA20800000F049FC002424E01F4B5B78012B16D11D4B00225A709B78012B7A
:400A800004D1052C0BD00134E4B20BE0174B9B78022B07D1002C04D0013CE4B202E0002400E005240321002000F0A8F9A300104AD318186900F0D8F90C4BDB78002BD6D0C9
:400AC00000220A4BDA70002C02D0052C03D004E0FFF772FD01E0FFF705FD10BD742B0000842B0000AC2A0000942B00000C02002044010020F0B5A9B000F0F2FA00F06EFB9B
:400B000062B600F09FFD002304221421272000F0FDF800F0B9F922AB77490A0011CA11C31FAB9C46180070CA70C01DAC0A001432200060CA60C01AAA08001C301500C8C811
:400B4000C8C503A868CA68C06A46634661CB61C21D9A1E9B22984968FFF706FC19AC00266670664D2B78512202212000FFF7ECFB66706B78512202212000FFF7E5FB5F4CCE
:400B8000A3785122012109A8FFF7BEFBE378512201210AA8FFF7B8FB23790BAD512201212800FFF7B1FB6379512201210CA8FFF7ABFBE379512201210DA8FFF7A5FB237A8D
:400BC000512201210EA8FFF79FFB2878122816D9FFF782FB24AC0C3820700AAB1878FFF77BFB6070464B63600822210012A801F0D7FA082212A910A801F0D2FA14E0FFF75A
:400C00006BFB26AC20700AAB1878FFF765FB60703C4B63600822210014A801F0C1FA082214A910A801F0BCFA0CAB1878FFF754FB16AC20700DAB1878FFF74EFB01382F4D24
:400C400080002818076E67600EAB1878FFF744FB207210AEA3680093169A3B0010981199FFF710FC3278284B1C78E300EB181B7C9A422DD110AB5A78E3002049CB185B7C32
:400C80009A4225D1E300CB185B69119A9A421FD1022C0AD0631CDB00CB1858690222194901F0C9FA002800D117D00134E1B2164B1970C900114B5918189B07930093169A69
:400CC000179B08694969FFF7A9FB00230F9304E0022C02D100220C4B1A700B4BDB78012B04D10022084BDA70FFF79CFEFA20800000F004FB43E7C046642A0000C4000020B4
:400D0000302B0000342B00000C02002010B5064C20700648017006490A70064A13700822054B1A7010BDC046490200204E0200204F0200204B0200204802002010B50C00FE
:400D40000022002100F08EFD0021200000F018FE002000F0E9FD10BD10B5044B1B7801001943034B1878FFF7E9FF10BD480200204902002010B50400042003002343D8B269
:400D8000FFF7EAFF012000F08BFB042320009843FFF7E2FF322000F083FB10BD10B50400FFF7DAFF2000FFF7E5FF10BD70B50D000F2302009A4313000001C4B20B431800A5
:400DC000FFF7ECFF20002843FFF7E8FF70BDC04610B50021FFF7EAFF10BDC04610B50120FFF7F6FF022000F089FA10BD10B50220FFF7EEFF022000F081FA10BD70B584B02F
:400E00006B460C4A70CA70C31C00136823600A4B1B788B4201D2013BD9B289006B46CB58C01880235B421843C0B2FFF7D1FF04B070BDC046642C00004F02002010B5064AD0
:400E4000107804231843C0B2107008231843C0B2FFF7BEFF10BDC0464A02002010B50121FFF7A4FF10BDC04670B5060001F0DCF90500002403E0305DFFF7F0FF0134FF2373
:400E80002B409C42F7D370BD10B50022254B1A70254B1B78012B02D90821224A1170234A1278002A06D0012B04D11E4A117804230B431370322000F021FA1D4B1878FFF7C5
:400EC0004BFFFA20800000F019FA3020FFF766FF184C200000F0E4FA3020FFF75FFF200000F0DEFA3020FFF759FF962000F0D8FA2020FFF753FF0B4B187820231843C0B2EE
:400F0000FFF766FF04220C4B1A70FFF797FFFFF765FF0222094B1A700620FFF759FFFFF765FF10BD4D0200204F0200204B02002048020020941100004A0200204C02002096
:400F4000F0B50025002711E0BB00C658F3B2FF22964308E06A008A181478A419527822700135013BDBB2002BF4D10137062FEBD9F0BDC0460323044A1360044A13600022E1
:400F8000034B1A607047C0463000304030003140000E3F4010B50A00002101F00AF910BD10B501F0D1F803680C2B00D1FEE7FEE710B50300084A1068C318084A9A1A802A54
:400FC00002DC054A136005E001F0BEF80C2303600120404210BDC0466C0100208002002070B50F4E0F4D13E029686B68AC68002202E001C901C30432A242FAD1E86800225C
:4010000002E0002102C304328242FAD11035013E002EE9D101F09EF8FFF76CFDFEE7C04601000000B82D000010B50E4A136801218B43136000230AE0032B03D89A000A4902
:40104000505800E009489900094A885001332F2BF2D9FFF741F8034A116801230B43136010BDC0460000104000000000A10F00000000002010B5142000F040F900F0F4FDAA
:4010800000F0EAFD012803D10122034B1A7002E00022014B1A7010BD0F020020014B18657047C0460000002010B5040000F0CDFD044A1368C0218B43A4011C43146000F080
:4010C000C8FD10BD04E400E01022014B1A60704700E100E01022014B1A60704780E100E010B5FFF7F7FF0448FFF7D8FF0320FFF7DBFFFFF7E9FF10BD7510000010B584B050
:4011000000F0BCFD0390002400E0013400F0B6FD039B984202D11D4B9C42F6DD00F0AEFD0290002400E0013400F0A8FD029B984202D1164B9C42F6DD00F0A0FD019000249A
:4011400000E0013400F09AFD019B984202D10F4B9C42F6DD039B012B09D1019B022B06D101220B4B1A7001320A4B1A7009E0039B022B06D1019B012B03D1054A1370054ADE
:40118000137000F083FD04B010BDC0469F8601000D0200200E020020014B18647047C0460000002010B5040000F04FFD044A1368C0218B43A4011C43146000F04AFD10BD92
:4011C00000E400E00122014B1A60704700E100E00122014B1A60704780E100E010B5FFF7F7FF0448FFF7D8FF0320FFF7DBFFFFF7E9FF10BDFD10000000230AE00D4A126896
:401200003F210A400C49C95C8A4201D1033303E001332D2BF2D9032308490868084A02400A60084A944663441B78DBB2064A13607047C0462CFF0B40302D000000002240EF
:40124000FFFFFFBFCDF1FF0F28FF0B40034B18688023DB05184000D001207047000022401F2318401E3B8340014A13607047C04600E100E01F2318401E3B8340014A13605B
:401280007047C04680E100E001BE704770B504000D001F2802D90020FFF7F6FF1034A40080239B059C4664442068256070BDC04670B504000E00032902D90020FFF7E4FF2B
:4012C0001F2C02D90020FFF7DFFF03252540ED00063500F0BAFCA408A400074B9C46644421680323AB4099430B003100A9401943216000F0AEFC70BD00E400E010B5040081
:4013000006E0084B586800F097FC074B9C46644480231B029C42F4D8024B9868604300F08BFC10BD700100200080FFFF70B582B000F0CAF800285DD000F087FC05000023AF
:401340000AE02D4A12683F210A402C49C95C8A4201D1033303E001332D2BF2D903230021274A1160274A1268D20606D1254802681F318A4313390A430260234C2168234A29
:401380001140234A5A438023DB019C466244D20B013A5205520D0B001343A0225203134323601C4B1B680193302000F077FC1A4A13688021C9050B4313602668174B1E401E
:4013C000002407E00120FFF799FF1034A30533430D4A1360EE2CF5D90120FFF78FFFFF239B051E43084B1E60019A0A4B1A60280000F02FFC02B070BD2CFF0B40302D000027
:4014000028FF0B4034FF0B400800224000F800C040420F003000104000002240FFFF3FC030B587B0040000F010FC0500FFF70EFF002803D0FFF7E0FE012100E00021104BB9
:401440001B6800930F4B1B680193033C0E4B1B5D02930E4B1B68039304AA0D4B04936B4605930C4B1A600C480C4A10601B68012901D1FFF75BFF280000F0EBFB07B030BD8C
:4014800008010B4000010B40302D000030001040B6EA000008001040170000800400104010B5034B1B7B584300F0C6FB10BDC04670010020034B1868C0231B02184000D07D
:4014C0000120704700010B40034B1B68002B01DA012000E0002070470000224010B500F0B4FB044A1368C02109020B43136000F0B0FB10BD00010B4010B500F0A6FB084982
:401500000A68084B1A408024E40122430A600A6813408022120213430B6000F09AFB10BD00010B40FF3FFFFF70B5050000F08DFB0400FFF7BFFF002803D0FFF7DDFF0121D5
:4015400000E0002108482840084A1568084B2B40184310601368012901D1FFF7BFFF200000F077FB70BDC0460404040010020B40FBFBFBFF10B5244B1B685B0715D5234BB0
:401580005B685B070ED5224B596A042001401F4C62688A4362605A6A82435A629B69002B00D098470420FFF7BFFF174B1B685B0518D5164B5B685B0510D5154B596A80226F
:4015C000D2001140114842688A434260596A114A0A405A62DB69002B00D098478020C000FFF7A2FF084B1B685B030CD5074B5B685B0304D5064B1B6A002B00D0984780206C
:40160000C002FFF791FF10BD10020B408401002010020020FFFBFFFF10B50820FFF720FE10BDC04610B500F01DF810BD10B5044A1368802109060B431360FFF7EDFF10BD50
:401640000000244010B5064B1B78002B04D1FFF7E9FF0122024B1A70FFF7E8FF10BDC0463802002010B50024184B1C60184A194B1A60194B194A1360194A1460194A14608B
:40168000194A1360194B1C600820FFF7F3FD03210820FFF70DFE16490820FFF7F7FD154B1C60154B1C60154B1C60154B1C60154B1C60154B1C601022144B1A70144B1C806A
:4016C000144B1C60144B1C6010BDC046000024407708008060002440070100800003244004032440100324400002244004022440F11C0000C80E2440880E2440480F24409D
:40170000080F2440C80F2440880F24405002002060020020700200205802002010B50E4A13685B005B08136000230C490B600C490B600C4804680C49214001600B490B60F6
:401740000B490B6010210B4B19701368802109060B43136010BDC04600002440680024406C00244060002440FF5CFFFF880F2440C80F24405002002010B504000368002BB7
:4017800009D00120FFF78CFE2368013B2360002B03D0002003E0002001E08020000610BD10B5002839DBC023034208D00022284B1A601032274B1A70002310243DE0C30764
:4017C0000FD5244B1B781B072BD5234B1B685B0001D5002300E0012310211E4A117001242BE0C30520D4830722D4C30605D51022184B1A70002300241FE0164B1B781B07F4
:4018000019D5144B1B78DB0701D5252200E02422104B1A70002300240FE00123802424060BE00123012408E001238024640004E00023022401E000230024012B02D1FFF704
:401840006DFF02E0054A064B1A60200010BDC04668002440500200206000244017030000000F244070B582B004000D001600244B1B78102B40D10820FFF7FCFC214B1B68AD
:40188000DB0734D4FA239B005E43019600221E4B1A601E4A1E4B1A601E4A1F4B1A606400FF231C40002D03D12422154B1A7004E02522134B1A7001231C43184B1C60022206
:4018C000174B1A60124B1C680823FF3320001840144B1B68C02423401843040001A8FFF74BFF2043EED0FFF75BFF040000E008240820FFF7B5FC00E00424200002B070BD8E
:401900005002002064002440080F244017030000000F2440ED0F0000C00F24404002244068002440400F244010B582B0104B1B789B061AD5FA239B00584301900D4B1B68DD
:401940009B0601D5182200E010220B4B1A600B4B18681223FF331840040001A8FFF70CFF2043F4D0FFF71CFF00E0042002B010BD500200206400244068002440000F24405D
:4019800010B582B00D4B1B789B0613D5FA239B00594301910A4B18600A4B18680823FF331840040001A8FFF7E7FE2043F4D0FFF7F7FE00E0042002B010BDC04650020020EA
:4019C00040022440000F244010B50820FFF752FC074B1C88A2B21400064B1B789B0602D504231A4394B20820FFF73AFC200010BD600200205002002010B50820FFF73AFCCB
:401A0000044B1C88A4B200221A800820FFF728FC200010BD60020020054B1B682022134000D0082301221343024A13607047C0466400244068002440F0B583B001900C008F
:401A400017001D00002917D02A4B1B78102B08D10820FFF70FFC284B1B68DB070ED508260FE0244B1B78602B0AD1244A138808218B431380002604E0042602E0002600E0EE
:401A80000426002E2FD128221A4B1A7000231C4A13601C4A13601C4B1F601C4B1C60EAB21B4B1A70019B5C00FF231C40134A138802218B4313804023164A13601649174A83
:401AC00011601421FF31164A1160164A1360EB0704D5FFF7A1FF144B1C6004E0124B1C600222124B1A600820FFF7BAFB300003B0F0BDC04650020020640024406002002053
:401B000054020020580200205C0200207402002068020020800F244017030000000F2440080F2440880F24404002244068002440F0B583B001900C0017001D00002917D0F6
:401B40002F4B1B78102B08D10820FFF793FB2D4B1B68DB070ED508260FE0294B1B78602B0AD1294A138808218B431380002604E0042602E0002600E00426002E39D12922ED
:401B80001F4B1A700022214B1A60214A1760214B1C60EBB220490B70019B5C00FF231C400120044318490B8883430B801B491C4B19601421FF311B4B19601368072B03D8AB
:401BC0000422194B1A6008E0184A1368802149000B4313600822144B1A60EB0704D5FFF71BFF134B1C6004E0114B1C600222114B1A600820FFF734FB300003B0F0BDC04620
:401C0000500200206400244060020020700200206C020020640200206802002017030000000F2440080F2440C80F24406000244040022440680024400230800803D0013879
:401C4000FDD1C046C046C0467047EFF3108072B6704780F310887047024B1868400901231840704704040440034A10682023184010604009C0B2704710040440024B1B68BB
:401C8000032018407047C04604000440024A106803231840106070471000044070B50400FFF7D3FF0500102C05D8104A136803218B43136016E0202C07D80C490B68032290
:401CC0009343023A13430B600CE0302C07D807490B6803229343013A13430B6002E00020FFF7D2FA2800FFF7B4FF70BD3000104010B5AF4B1B68002B00D09847AD4B1B6857
:401D0000DB0702D50022AC4B1A60AC4B1B789B0628D5AB4B1B68DB0507D5AA4A1188C0239B000B431380012300E00023A44A1268D20706D5A34A118890239B000B43138016
:401D40000123002B0FD09D4A1278D20701D5012200E002229B49088802430A800021974A117000E00023954A1278920600D417E1934A1268D20611D51022934B1A608F4BDF
:401D80001B78DB0701D5012300E002238D4A11880B4313801022894B1A7007E1874A1278120720D5864A126892070AD50222864B1A60844A118888239B000B43138001239A
:401DC00011E07E4A1278D20703D525217B4A117009E02421794A11707C4A1268002A02D014397B4A1160754A1278520700D4AEE0724A1278D20749D5764A1268120727D5A2
:401E0000754A1268754909681F240C40744909686418141B082C09D8002C16D1714A1168714B0B401360012308340EE008240CE06B4A11686D48006841186D480068C0B263
:401E40000870116801311160013C002CF0D119E0604A1268520715D5614A116863480068411863480068C0B208701168013111601168594A1268914203D204215D4A116020
:401E800000E001235C495D4A116060E04C4A1268920726D502224C4B1A6059490B681D321A40096880231B020B4000D001239B18544A1168CB1A13601268534B1A60414ADB
:401EC000118884239B000B431380504B1A68802149020A431A6019684D4A0A401A60012335E04C4A1268D2061ED427E0454A1168364A126891421DD2344A1268013A4149DF
:401F000009688A4204D1402243490A6030490A603C4A11684148006841180978C9B240480160116801311160354A12681F210A40082ADBD11021384A116008E0354A1268A4
:401F4000520604D52F4B1A682F4B1A600123002B2CD0244A1168244B0B4013600023314A13601B4A1360304B1B789B070ED5134B1B78DB0701D5092300E00A23114A11888F
:401F80000B43138060220D4B1A700FE0274B1B689B0601D5182200E01022164B1A6005E0064B1B78DB0601D4FFF7B8FB10BDC0463C0200208C0E2440880E24405002002097
:401FC0000C0F244060020020000F24405C020020880F2440CC0F24406C020020080324407002002060002440FFFEFFFF640200204003244068002440ED0F0000C00F24403F
:4020000008022440540200205802002004022440FFFFFEFF8C0F2440800F24407402002040022440C80F24406802002064002440002243088B4274D303098B425FD3030A89
:402040008B4244D3030B8B4228D3030C8B420DD3FF22090212BA030C8B4202D31212090265D0030B8B4219D300E0090AC30B8B4201D3CB03C01A5241830B8B4201D38B03BC
:40208000C01A5241430B8B4201D34B03C01A5241030B8B4201D30B03C01A5241C30A8B4201D3CB02C01A5241830A8B4201D38B02C01A5241430A8B4201D34B02C01A524167
:4020C000030A8B4201D30B02C01A5241CDD2C3098B4201D3CB01C01A524183098B4201D38B01C01A524143098B4201D34B01C01A524103098B4201D30B01C01A5241C308B6
:402100008B4201D3CB00C01A524183088B4201D38B00C01A524143088B4201D34B00C01A5241411A00D20146524110467047FFE701B5002000F006F802BDC0460029F7D08B
:4021400076E770477047C046014B18687047C046EC0100200E4B70B500251E000D4CE41AA410A54204D0AB00F35898470135F8E700F010FE084B00251E00084CE41AA410ED
:40218000A54204D0AB00F35898470135F8E770BDA02D0000A02D0000A02D0000A82D0000002310B59A4203D0CC5CC4540133F9E710BD03008218934202D019700133FAE777
:4021C000704700000CB430B5164B9DB00C1E1D6804DA8B2301202B6040421DE0822302A99B008B810023029008619C4200D0631E8B604B6101235B42CB81209A21AB2800D9
:40220000019300F08DF8431C01DA8B232B60002C02D00023029A13701DB030BC08BC02B01847C046EC0100200023C25C0133002AFBD1581E7047002330B59A420BD0013AAF
:40224000C45CCD5CAC4205D19A4202D00133002CF6D12500631B180030BD0000F0B58E6885B007000C00039201939E4243D890238A89DB001A423ED0032509692368019804
:402280005B1A029363695D43EB0F5D19029B6D1001331B18AB4200D91D00530510D52900380000F037FB061E14D0029A2169FFF777FFA289194B134080221343A38112E08A
:4022C0002A00380000F086FB061E0CD12169380000F0D4FA0C23402201203B60A38940421343A38117E0029B2661F61826606561019EED1AA560019BB34200D21E00320042
:402300000399206800F0A5FA0020A3689B1BA36023689E19266005B0F0BDC0467FFBFFFFF0B59FB0029005938B890F0016001B0610D50B69002B0DD1402100F0EBFA3860B6
:402340003861002804D10C23029A01381360D8E040237B61002306AD6B6120336B761033AB7634002378002B03D1A31B049312D003E0252BF9D00134F4E7A31B32003900E5
:402380000298FFF76BFF431C00D1B4E06A69049B944663446B612378002B00D1ABE00122002352426A6002A95432521801342B60EB60AB601370AB65534E21780522300005
:4023C00000F03CFA002807D00123801B83402A68013413432B60EFE72B68DA0604D55322202102A8121811701A0704D553222B2102A81218117022782A2A03D0099B0020CC
:402400000A210EE0059A111D12680591002A01DB099204E05242EA60022213432B6001340BE02278303A092A04D84B4301349B180120F6E7002800D0099323782E2B1ED120
:4024400063782A2B0AD1059B02341A1D1B680592002B01DA01235B42079310E000230A201A0001346B6021783039092904D84243013452180123F6E7002B00D00792234E38
:4024800021780322300000F0D9F9002806D04023801B83402A68013413432B60217806221B48661C297600F0C9F9002812D0194B002B06D10722059B0733934308330593F2
:4024C00014E005AB00933A00134B2900029800E000BF07E005AB00933A000F4B2900029800F08AF80390039B013304D06B69039A9B186B6135E7BB890B985B0601D5012034
:4025000040421FB0F0BDC046602D0000662D00006A2D0000000000005D220000F7B5170001938A680B6900900C00934200DA130022003B6043321278002A01D001333B60C0
:4025400023689B0602D53B6802333B60062523681D401ED0230043331B785A1E9341226892061CD53020E1184331087021005A1C45310978A2184332023311700FE02200A0
:402580000123193201990098089EB047431C0ED00135E3683A689B1A9D42F0DBDAE72200019943320098089DA847431C02D10120404220E006232068E1683A680340002527
:4025C000042B03D18D1AEB43DB171D40A3682269934201DD9B1AED180027BD420AD0220001231A3201990098089EB047431CDED00137F2E70020FEBDF0B58BB006920A00D5
:4026000043320793059004920A7E0C00109B6E2A00D1ABE011D8632A22D009D8002A00D1B5E0582A00D0C5E045310A70814A4FE0642A1DD0692A1BD0BCE0732A00D1AAE0E6
:4026400009D86F2A29D0702A00D0B3E0202209680A43226037E0752A1FD0782A33D0A9E00E001A684236111D196013683370A4E021681A68080606D4490604D5111D196082
:402680000023D55E02E0111D19601568002D3BDA2D23049A6D42137036E021681A68080606D4490604D51568111D1960ADB202E0111D196015685F4B227E039308276F2AFA
:4026C0001DD00A271BE022007821453211705A4A19680392081D226818600D68100602D4500600D5ADB2D30702D520231A4322601027002D03D1202322689A4322602300E8
:40270000002243331A7002E00A274A4B03936368A360002B09DB0422216891432160002D05D1049E002B11D07BE0002D79D0049E28003900FFF702FD039B013E5B5C280022
:4027400033703900FFF774FC051EF1D1082F09D12368DB0706D563682269934202DC3023013E3370049B9B1B23612BE009681A68080607D4490605D5111D19601368A28A64
:402780001A8004E0111D1960136862691A600023049E236116E01A68111D1960166800216268300000F04AF8002801D0801B6060636803E0260042363270012323610023F4
:4027C000049A1370079B09AA00932100069B0598FFF7A4FE431C02D10120404227E02369320006990598079DA847431CF4D0236800259B070FD4099BE068984217DA180049
:4028000015E022000123193206990598079EB047431CE1D00135E368099A9B1A9D42F0DBE9E72600039B42361B7833708EE70BB0F0BDC046712D0000822D0000C9B2821820
:40284000904204D003788B4202D00130F8E70020704710B5884202D98B18984201D3002305E09B1A013A08D3995C8154FAE7934203D0CC5CC4540133F9E710BD70B5050085
:40288000002944D00C1F2368002B00DAE418280000F0D8F81E4A13681100002B02D16360146031E0A3420DD92268A018834203D118685B688218226063600C6024E0A242E6
:4028C00003D813005A68002AF9D11E689819A0420BD12168711858181960824214D110685268411819605A600EE0A04202D90C232B6009E021686018824203D110685268C4
:402900004118216062605C60280000F09CF870BD44020020032370B5CD1C9D43083506000C2D01D20C2501E0002D01DBA94202D90C23336048E0300000F084F8234B1C6844
:402940001A002100002913D00B685B1B0DD40B2B02D90B60CC181EE08C4202D1636813601AE04B6863600C0016E00C004968E9E7174C2368002B03D1300000F051F8206034
:402980002900300000F04CF8431C18D00323C41C9C43A0420DD12560300000F054F8200007220B30231D9043C31A0ED05A42E2500BE0211A300000F033F8431CEBD10C23D2
:4029C0003000336000F03FF8002070BD4402002040020020F8B506000C001500002904D11100FFF797FF040018E0002A03D1FFF745FF2C0012E000F027F885420ED9290031
:402A00003000FFF787FF071E07D021002A00FFF7C7FB21003000FFF731FF3C002000F8BD002370B5064C050008002360FEF7C0FA431C03D12368002B00D02B6070BDC04613
:402A400078020020704770470B1F1A68101F002A04DA891804390B68D018043870470000000000000C2D0000342B00001F000000A82B00001700000006000000302B00003D
:402A800001000000A42B000017000000510000002700000025643A252E326425732025732025642C20323025642000002D2D2D2D2D2D2D2D2D2D2D2D2D2D2D2D2D2D2D2D37
:402AC0000000000054696D65206F66204E65787420466565643A000054696D65206F66204E65787420466565643A202000000000536574204D6F6E74680000002573202545
:402B0000642C20323025640053657420446179202000000025303264000000005365742059656172000000003230253032640000504D0000414D000053657420486F757226
:402B40000000000025643A252E326425732020202020202020000000536574204D696E757465000053657420414D2F504D20202020000000427574746F6E203D2053656C10
:402B8000656374004B6E6F62203D2043686F69636500000053657420476C6F62616C2054696D6500417072004D61720053657420476C6F62616C2054696D6520202020200C
:402BC000000000004368616E676520466565642054696D6573202020000000004368616E6765204665656420416D6F756E742020000000005475726E206F6E2F6F6666209B
:402C00004C45442773202020000000005475726E206F6E2F6F666620537065616B657273000000004578697420202020202020202020202020202020000000004A616E00A4
:402C4000466562004D6179004A756E004A756C0041756700536570004F6374004E6F7600446563000000000040000000140000005400000000300F40000400400F40000460
:402C800083408C015B045F01960FA803AA0CAC06AE09B001B204B402B608BE55D804DB04DF010808100A18221A88680A6E806F68824086408B208C088F08942296089F403F
:402CC000A810B204C204C403E280E403E8041E0456025A806E048240C680D480D620DA80E6808A029E02528054805B405E208E80D407D604E0021908500458108340841008
:402D00008C048D089F40A880B210C608D405E008E202E80102310F400F320F4016330F400A400F4002410F4008420F400F430F40030405060708090A0B0C0E0F101112138C
:402D40001415161718191B1C1D1E1F2021222325262728292A2B2E2F3031323334354300232D302B2000686C4C006566674546470030313233343536373839414243444583
:402D80004600303132333435363738396162636465660000F8B5C046F8BC08BC9E467047A102000029100000F8B5C046F8BC08BC9E46704779020000C82D0000C0000020B3
:402DC000300100009000000000000000000102030405060708090A0B0C0D0E0F04190000302B0000041A0000302B000005050000302B000000000000000000000000000044
:402E000000000000000000000000000000000000000000000000000000000000000000000000000000000000000000003C2C0000402C0000A82B0000A42B0000442C0000AC
:402E4000482C00004C2C0000502C0000542C0000582C00005C2C0000602C0000AC2B0000C42B0000DC2B0000F42B00000C2C0000242C000080020020010000000000C05D9E
:402E800080BB000030000000006CDC02F00000000404040000000000000000000000000000000000000000000000000000000000000000005E2D00000000000000000000D6
:402EC000000000000000000000000000000000000000000000000000000000000000000000000000000000000000000000000000000000008C010020000000000000000025
:402F00000000000000000000000000000000000000000000000000000000000000000000000000000000000000000000000000000000000000000000000000000000000091
:402F40000000000000000000000000000000000000000000000000000000000000000000000000000000000000000000000000000000000000000000000000000000000051
:402F80000000000000000000000000000000000000000000000000000000000000000000000000000000000000000000000000000000000000000000000000000000000011
:402FC00000000000000000000000000000000000000000000000000000000000000000000000000000000000000000000000000000000000000000000000000000000000D1
:020000040001F9
:0200000490303A
:02000000D31516
:0200000490402A
:4000000000000000000000000000000000000000000000000000000000000000000000000000000000000000000000000000000000000000000000000000000000000000C0
:400040000000000000000000000000000000000000000000000000000000000000000000000000000000000000000000000000000000000000000000000000000000000080
:0200000490501A
:0C0000000002112D11A10001113BE4B61B
:0200000490600A
:0100000001FE
:00000001FF